{
	"contracts/99_test.sol": {
		"codingTest": {
			"abi": [
				{
					"inputs": [
						{
							"internalType": "string",
							"name": "_id",
							"type": "string"
						},
						{
							"internalType": "string",
							"name": "_password",
							"type": "string"
						}
					],
					"name": "setUser",
					"outputs": [],
					"stateMutability": "nonpayable",
					"type": "function"
				}
			],
			"devdoc": {
				"kind": "dev",
				"methods": {},
				"version": 1
			},
			"evm": {
				"assembly": "    /* \"contracts/99_test.sol\":61:2549  contract codingTest {... */\n  mstore(0x40, 0x80)\n  callvalue\n  dup1\n  iszero\n  tag_1\n  jumpi\n  0x00\n  dup1\n  revert\ntag_1:\n  pop\n  dataSize(sub_0)\n  dup1\n  dataOffset(sub_0)\n  0x00\n  codecopy\n  0x00\n  return\nstop\n\nsub_0: assembly {\n        /* \"contracts/99_test.sol\":61:2549  contract codingTest {... */\n      mstore(0x40, 0x80)\n      callvalue\n      dup1\n      iszero\n      tag_1\n      jumpi\n      0x00\n      dup1\n      revert\n    tag_1:\n      pop\n      jumpi(tag_2, lt(calldatasize, 0x04))\n      shr(0xe0, calldataload(0x00))\n      dup1\n      0x5728b973\n      eq\n      tag_3\n      jumpi\n    tag_2:\n      0x00\n      dup1\n      revert\n        /* \"contracts/99_test.sol\":1662:1877  function setUser(string memory _id, string memory _password) public {... */\n    tag_3:\n      tag_4\n      0x04\n      dup1\n      calldatasize\n      sub\n      dup2\n      add\n      swap1\n      tag_5\n      swap2\n      swap1\n      tag_6\n      jump\t// in\n    tag_5:\n      tag_7\n      jump\t// in\n    tag_4:\n      stop\n    tag_7:\n        /* \"contracts/99_test.sol\":1796:1805  _password */\n      dup1\n        /* \"contracts/99_test.sol\":1779:1806  abi.encodePacked(_password) */\n      add(0x20, mload(0x40))\n      tag_9\n      swap2\n      swap1\n      tag_10\n      jump\t// in\n    tag_9:\n      mload(0x40)\n      0x20\n      dup2\n      dup4\n      sub\n      sub\n      dup2\n      mstore\n      swap1\n      0x40\n      mstore\n        /* \"contracts/99_test.sol\":1769:1807  keccak256(abi.encodePacked(_password)) */\n      dup1\n      mload\n      swap1\n      0x20\n      add\n      keccak256\n        /* \"contracts/99_test.sol\":1741:1755  PasswordToByte */\n      0x01\n        /* \"contracts/99_test.sol\":1756:1765  _password */\n      dup3\n        /* \"contracts/99_test.sol\":1741:1766  PasswordToByte[_password] */\n      mload(0x40)\n      tag_11\n      swap2\n      swap1\n      tag_10\n      jump\t// in\n    tag_11:\n      swap1\n      dup2\n      mstore\n      0x20\n      add\n      mload(0x40)\n      dup1\n      swap2\n      sub\n      swap1\n      keccak256\n        /* \"contracts/99_test.sol\":1741:1807  PasswordToByte[_password] = keccak256(abi.encodePacked(_password)) */\n      dup2\n      swap1\n      sstore\n      pop\n        /* \"contracts/99_test.sol\":1818:1826  UserData */\n      0x00\n        /* \"contracts/99_test.sol\":1832:1868  User(_id, PasswordToByte[_password]) */\n      mload(0x40)\n      dup1\n      0x40\n      add\n      0x40\n      mstore\n      dup1\n        /* \"contracts/99_test.sol\":1837:1840  _id */\n      dup5\n        /* \"contracts/99_test.sol\":1832:1868  User(_id, PasswordToByte[_password]) */\n      dup2\n      mstore\n      0x20\n      add\n        /* \"contracts/99_test.sol\":1842:1856  PasswordToByte */\n      0x01\n        /* \"contracts/99_test.sol\":1857:1866  _password */\n      dup5\n        /* \"contracts/99_test.sol\":1842:1867  PasswordToByte[_password] */\n      mload(0x40)\n      tag_12\n      swap2\n      swap1\n      tag_10\n      jump\t// in\n    tag_12:\n      swap1\n      dup2\n      mstore\n      0x20\n      add\n      mload(0x40)\n      dup1\n      swap2\n      sub\n      swap1\n      keccak256\n      sload\n        /* \"contracts/99_test.sol\":1832:1868  User(_id, PasswordToByte[_password]) */\n      dup2\n      mstore\n      pop\n        /* \"contracts/99_test.sol\":1818:1869  UserData.push(User(_id, PasswordToByte[_password])) */\n      swap1\n      dup1\n      0x01\n      dup2\n      sload\n      add\n      dup1\n      dup3\n      sstore\n      dup1\n      swap2\n      pop\n      pop\n      0x01\n      swap1\n      sub\n      swap1\n      0x00\n      mstore\n      keccak256(0x00, 0x20)\n      swap1\n      0x02\n      mul\n      add\n      0x00\n      swap1\n      swap2\n      swap1\n      swap2\n      swap1\n      swap2\n      pop\n      0x00\n      dup3\n      add\n      mload\n      dup2\n      0x00\n      add\n      swap1\n      dup2\n      tag_14\n      swap2\n      swap1\n      tag_15\n      jump\t// in\n    tag_14:\n      pop\n      0x20\n      dup3\n      add\n      mload\n      dup2\n      0x01\n      add\n      sstore\n      pop\n      pop\n        /* \"contracts/99_test.sol\":1662:1877  function setUser(string memory _id, string memory _password) public {... */\n      pop\n      pop\n      jump\t// out\n        /* \"#utility.yul\":7:82   */\n    tag_16:\n        /* \"#utility.yul\":40:46   */\n      0x00\n        /* \"#utility.yul\":73:75   */\n      0x40\n        /* \"#utility.yul\":67:76   */\n      mload\n        /* \"#utility.yul\":57:76   */\n      swap1\n      pop\n        /* \"#utility.yul\":7:82   */\n      swap1\n      jump\t// out\n        /* \"#utility.yul\":88:205   */\n    tag_17:\n        /* \"#utility.yul\":197:198   */\n      0x00\n        /* \"#utility.yul\":194:195   */\n      dup1\n        /* \"#utility.yul\":187:199   */\n      revert\n        /* \"#utility.yul\":211:328   */\n    tag_18:\n        /* \"#utility.yul\":320:321   */\n      0x00\n        /* \"#utility.yul\":317:318   */\n      dup1\n        /* \"#utility.yul\":310:322   */\n      revert\n        /* \"#utility.yul\":334:451   */\n    tag_19:\n        /* \"#utility.yul\":443:444   */\n      0x00\n        /* \"#utility.yul\":440:441   */\n      dup1\n        /* \"#utility.yul\":433:445   */\n      revert\n        /* \"#utility.yul\":457:574   */\n    tag_20:\n        /* \"#utility.yul\":566:567   */\n      0x00\n        /* \"#utility.yul\":563:564   */\n      dup1\n        /* \"#utility.yul\":556:568   */\n      revert\n        /* \"#utility.yul\":580:682   */\n    tag_21:\n        /* \"#utility.yul\":621:627   */\n      0x00\n        /* \"#utility.yul\":672:674   */\n      0x1f\n        /* \"#utility.yul\":668:675   */\n      not\n        /* \"#utility.yul\":663:665   */\n      0x1f\n        /* \"#utility.yul\":656:661   */\n      dup4\n        /* \"#utility.yul\":652:666   */\n      add\n        /* \"#utility.yul\":648:676   */\n      and\n        /* \"#utility.yul\":638:676   */\n      swap1\n      pop\n        /* \"#utility.yul\":580:682   */\n      swap2\n      swap1\n      pop\n      jump\t// out\n        /* \"#utility.yul\":688:868   */\n    tag_22:\n        /* \"#utility.yul\":736:813   */\n      0x4e487b7100000000000000000000000000000000000000000000000000000000\n        /* \"#utility.yul\":733:734   */\n      0x00\n        /* \"#utility.yul\":726:814   */\n      mstore\n        /* \"#utility.yul\":833:837   */\n      0x41\n        /* \"#utility.yul\":830:831   */\n      0x04\n        /* \"#utility.yul\":823:838   */\n      mstore\n        /* \"#utility.yul\":857:861   */\n      0x24\n        /* \"#utility.yul\":854:855   */\n      0x00\n        /* \"#utility.yul\":847:862   */\n      revert\n        /* \"#utility.yul\":874:1155   */\n    tag_23:\n        /* \"#utility.yul\":957:984   */\n      tag_60\n        /* \"#utility.yul\":979:983   */\n      dup3\n        /* \"#utility.yul\":957:984   */\n      tag_21\n      jump\t// in\n    tag_60:\n        /* \"#utility.yul\":949:955   */\n      dup2\n        /* \"#utility.yul\":945:985   */\n      add\n        /* \"#utility.yul\":1087:1093   */\n      dup2\n        /* \"#utility.yul\":1075:1085   */\n      dup2\n        /* \"#utility.yul\":1072:1094   */\n      lt\n        /* \"#utility.yul\":1051:1069   */\n      0xffffffffffffffff\n        /* \"#utility.yul\":1039:1049   */\n      dup3\n        /* \"#utility.yul\":1036:1070   */\n      gt\n        /* \"#utility.yul\":1033:1095   */\n      or\n        /* \"#utility.yul\":1030:1118   */\n      iszero\n      tag_61\n      jumpi\n        /* \"#utility.yul\":1098:1116   */\n      tag_62\n      tag_22\n      jump\t// in\n    tag_62:\n        /* \"#utility.yul\":1030:1118   */\n    tag_61:\n        /* \"#utility.yul\":1138:1148   */\n      dup1\n        /* \"#utility.yul\":1134:1136   */\n      0x40\n        /* \"#utility.yul\":1127:1149   */\n      mstore\n        /* \"#utility.yul\":917:1155   */\n      pop\n        /* \"#utility.yul\":874:1155   */\n      pop\n      pop\n      jump\t// out\n        /* \"#utility.yul\":1161:1290   */\n    tag_24:\n        /* \"#utility.yul\":1195:1201   */\n      0x00\n        /* \"#utility.yul\":1222:1242   */\n      tag_64\n      tag_16\n      jump\t// in\n    tag_64:\n        /* \"#utility.yul\":1212:1242   */\n      swap1\n      pop\n        /* \"#utility.yul\":1251:1284   */\n      tag_65\n        /* \"#utility.yul\":1279:1283   */\n      dup3\n        /* \"#utility.yul\":1271:1277   */\n      dup3\n        /* \"#utility.yul\":1251:1284   */\n      tag_23\n      jump\t// in\n    tag_65:\n        /* \"#utility.yul\":1161:1290   */\n      swap2\n      swap1\n      pop\n      jump\t// out\n        /* \"#utility.yul\":1296:1604   */\n    tag_25:\n        /* \"#utility.yul\":1358:1362   */\n      0x00\n        /* \"#utility.yul\":1448:1466   */\n      0xffffffffffffffff\n        /* \"#utility.yul\":1440:1446   */\n      dup3\n        /* \"#utility.yul\":1437:1467   */\n      gt\n        /* \"#utility.yul\":1434:1490   */\n      iszero\n      tag_67\n      jumpi\n        /* \"#utility.yul\":1470:1488   */\n      tag_68\n      tag_22\n      jump\t// in\n    tag_68:\n        /* \"#utility.yul\":1434:1490   */\n    tag_67:\n        /* \"#utility.yul\":1508:1537   */\n      tag_69\n        /* \"#utility.yul\":1530:1536   */\n      dup3\n        /* \"#utility.yul\":1508:1537   */\n      tag_21\n      jump\t// in\n    tag_69:\n        /* \"#utility.yul\":1500:1537   */\n      swap1\n      pop\n        /* \"#utility.yul\":1592:1596   */\n      0x20\n        /* \"#utility.yul\":1586:1590   */\n      dup2\n        /* \"#utility.yul\":1582:1597   */\n      add\n        /* \"#utility.yul\":1574:1597   */\n      swap1\n      pop\n        /* \"#utility.yul\":1296:1604   */\n      swap2\n      swap1\n      pop\n      jump\t// out\n        /* \"#utility.yul\":1610:1756   */\n    tag_26:\n        /* \"#utility.yul\":1707:1713   */\n      dup3\n        /* \"#utility.yul\":1702:1705   */\n      dup2\n        /* \"#utility.yul\":1697:1700   */\n      dup4\n        /* \"#utility.yul\":1684:1714   */\n      calldatacopy\n        /* \"#utility.yul\":1748:1749   */\n      0x00\n        /* \"#utility.yul\":1739:1745   */\n      dup4\n        /* \"#utility.yul\":1734:1737   */\n      dup4\n        /* \"#utility.yul\":1730:1746   */\n      add\n        /* \"#utility.yul\":1723:1750   */\n      mstore\n        /* \"#utility.yul\":1610:1756   */\n      pop\n      pop\n      pop\n      jump\t// out\n        /* \"#utility.yul\":1762:2187   */\n    tag_27:\n        /* \"#utility.yul\":1840:1845   */\n      0x00\n        /* \"#utility.yul\":1865:1931   */\n      tag_72\n        /* \"#utility.yul\":1881:1930   */\n      tag_73\n        /* \"#utility.yul\":1923:1929   */\n      dup5\n        /* \"#utility.yul\":1881:1930   */\n      tag_25\n      jump\t// in\n    tag_73:\n        /* \"#utility.yul\":1865:1931   */\n      tag_24\n      jump\t// in\n    tag_72:\n        /* \"#utility.yul\":1856:1931   */\n      swap1\n      pop\n        /* \"#utility.yul\":1954:1960   */\n      dup3\n        /* \"#utility.yul\":1947:1952   */\n      dup2\n        /* \"#utility.yul\":1940:1961   */\n      mstore\n        /* \"#utility.yul\":1992:1996   */\n      0x20\n        /* \"#utility.yul\":1985:1990   */\n      dup2\n        /* \"#utility.yul\":1981:1997   */\n      add\n        /* \"#utility.yul\":2030:2033   */\n      dup5\n        /* \"#utility.yul\":2021:2027   */\n      dup5\n        /* \"#utility.yul\":2016:2019   */\n      dup5\n        /* \"#utility.yul\":2012:2028   */\n      add\n        /* \"#utility.yul\":2009:2034   */\n      gt\n        /* \"#utility.yul\":2006:2118   */\n      iszero\n      tag_74\n      jumpi\n        /* \"#utility.yul\":2037:2116   */\n      tag_75\n      tag_20\n      jump\t// in\n    tag_75:\n        /* \"#utility.yul\":2006:2118   */\n    tag_74:\n        /* \"#utility.yul\":2127:2181   */\n      tag_76\n        /* \"#utility.yul\":2174:2180   */\n      dup5\n        /* \"#utility.yul\":2169:2172   */\n      dup3\n        /* \"#utility.yul\":2164:2167   */\n      dup6\n        /* \"#utility.yul\":2127:2181   */\n      tag_26\n      jump\t// in\n    tag_76:\n        /* \"#utility.yul\":1846:2187   */\n      pop\n        /* \"#utility.yul\":1762:2187   */\n      swap4\n      swap3\n      pop\n      pop\n      pop\n      jump\t// out\n        /* \"#utility.yul\":2207:2547   */\n    tag_28:\n        /* \"#utility.yul\":2263:2268   */\n      0x00\n        /* \"#utility.yul\":2312:2315   */\n      dup3\n        /* \"#utility.yul\":2305:2309   */\n      0x1f\n        /* \"#utility.yul\":2297:2303   */\n      dup4\n        /* \"#utility.yul\":2293:2310   */\n      add\n        /* \"#utility.yul\":2289:2316   */\n      slt\n        /* \"#utility.yul\":2279:2401   */\n      tag_78\n      jumpi\n        /* \"#utility.yul\":2320:2399   */\n      tag_79\n      tag_19\n      jump\t// in\n    tag_79:\n        /* \"#utility.yul\":2279:2401   */\n    tag_78:\n        /* \"#utility.yul\":2437:2443   */\n      dup2\n        /* \"#utility.yul\":2424:2444   */\n      calldataload\n        /* \"#utility.yul\":2462:2541   */\n      tag_80\n        /* \"#utility.yul\":2537:2540   */\n      dup5\n        /* \"#utility.yul\":2529:2535   */\n      dup3\n        /* \"#utility.yul\":2522:2526   */\n      0x20\n        /* \"#utility.yul\":2514:2520   */\n      dup7\n        /* \"#utility.yul\":2510:2527   */\n      add\n        /* \"#utility.yul\":2462:2541   */\n      tag_27\n      jump\t// in\n    tag_80:\n        /* \"#utility.yul\":2453:2541   */\n      swap2\n      pop\n        /* \"#utility.yul\":2269:2547   */\n      pop\n        /* \"#utility.yul\":2207:2547   */\n      swap3\n      swap2\n      pop\n      pop\n      jump\t// out\n        /* \"#utility.yul\":2553:3387   */\n    tag_6:\n        /* \"#utility.yul\":2641:2647   */\n      0x00\n        /* \"#utility.yul\":2649:2655   */\n      dup1\n        /* \"#utility.yul\":2698:2700   */\n      0x40\n        /* \"#utility.yul\":2686:2695   */\n      dup4\n        /* \"#utility.yul\":2677:2684   */\n      dup6\n        /* \"#utility.yul\":2673:2696   */\n      sub\n        /* \"#utility.yul\":2669:2701   */\n      slt\n        /* \"#utility.yul\":2666:2785   */\n      iszero\n      tag_82\n      jumpi\n        /* \"#utility.yul\":2704:2783   */\n      tag_83\n      tag_17\n      jump\t// in\n    tag_83:\n        /* \"#utility.yul\":2666:2785   */\n    tag_82:\n        /* \"#utility.yul\":2852:2853   */\n      0x00\n        /* \"#utility.yul\":2841:2850   */\n      dup4\n        /* \"#utility.yul\":2837:2854   */\n      add\n        /* \"#utility.yul\":2824:2855   */\n      calldataload\n        /* \"#utility.yul\":2882:2900   */\n      0xffffffffffffffff\n        /* \"#utility.yul\":2874:2880   */\n      dup2\n        /* \"#utility.yul\":2871:2901   */\n      gt\n        /* \"#utility.yul\":2868:2985   */\n      iszero\n      tag_84\n      jumpi\n        /* \"#utility.yul\":2904:2983   */\n      tag_85\n      tag_18\n      jump\t// in\n    tag_85:\n        /* \"#utility.yul\":2868:2985   */\n    tag_84:\n        /* \"#utility.yul\":3009:3072   */\n      tag_86\n        /* \"#utility.yul\":3064:3071   */\n      dup6\n        /* \"#utility.yul\":3055:3061   */\n      dup3\n        /* \"#utility.yul\":3044:3053   */\n      dup7\n        /* \"#utility.yul\":3040:3062   */\n      add\n        /* \"#utility.yul\":3009:3072   */\n      tag_28\n      jump\t// in\n    tag_86:\n        /* \"#utility.yul\":2999:3072   */\n      swap3\n      pop\n        /* \"#utility.yul\":2795:3082   */\n      pop\n        /* \"#utility.yul\":3149:3151   */\n      0x20\n        /* \"#utility.yul\":3138:3147   */\n      dup4\n        /* \"#utility.yul\":3134:3152   */\n      add\n        /* \"#utility.yul\":3121:3153   */\n      calldataload\n        /* \"#utility.yul\":3180:3198   */\n      0xffffffffffffffff\n        /* \"#utility.yul\":3172:3178   */\n      dup2\n        /* \"#utility.yul\":3169:3199   */\n      gt\n        /* \"#utility.yul\":3166:3283   */\n      iszero\n      tag_87\n      jumpi\n        /* \"#utility.yul\":3202:3281   */\n      tag_88\n      tag_18\n      jump\t// in\n    tag_88:\n        /* \"#utility.yul\":3166:3283   */\n    tag_87:\n        /* \"#utility.yul\":3307:3370   */\n      tag_89\n        /* \"#utility.yul\":3362:3369   */\n      dup6\n        /* \"#utility.yul\":3353:3359   */\n      dup3\n        /* \"#utility.yul\":3342:3351   */\n      dup7\n        /* \"#utility.yul\":3338:3360   */\n      add\n        /* \"#utility.yul\":3307:3370   */\n      tag_28\n      jump\t// in\n    tag_89:\n        /* \"#utility.yul\":3297:3370   */\n      swap2\n      pop\n        /* \"#utility.yul\":3092:3380   */\n      pop\n        /* \"#utility.yul\":2553:3387   */\n      swap3\n      pop\n      swap3\n      swap1\n      pop\n      jump\t// out\n        /* \"#utility.yul\":3393:3492   */\n    tag_29:\n        /* \"#utility.yul\":3445:3451   */\n      0x00\n        /* \"#utility.yul\":3479:3484   */\n      dup2\n        /* \"#utility.yul\":3473:3485   */\n      mload\n        /* \"#utility.yul\":3463:3485   */\n      swap1\n      pop\n        /* \"#utility.yul\":3393:3492   */\n      swap2\n      swap1\n      pop\n      jump\t// out\n        /* \"#utility.yul\":3498:3646   */\n    tag_30:\n        /* \"#utility.yul\":3600:3611   */\n      0x00\n        /* \"#utility.yul\":3637:3640   */\n      dup2\n        /* \"#utility.yul\":3622:3640   */\n      swap1\n      pop\n        /* \"#utility.yul\":3498:3646   */\n      swap3\n      swap2\n      pop\n      pop\n      jump\t// out\n        /* \"#utility.yul\":3652:3898   */\n    tag_31:\n        /* \"#utility.yul\":3733:3734   */\n      0x00\n        /* \"#utility.yul\":3743:3856   */\n    tag_93:\n        /* \"#utility.yul\":3757:3763   */\n      dup4\n        /* \"#utility.yul\":3754:3755   */\n      dup2\n        /* \"#utility.yul\":3751:3764   */\n      lt\n        /* \"#utility.yul\":3743:3856   */\n      iszero\n      tag_95\n      jumpi\n        /* \"#utility.yul\":3842:3843   */\n      dup1\n        /* \"#utility.yul\":3837:3840   */\n      dup3\n        /* \"#utility.yul\":3833:3844   */\n      add\n        /* \"#utility.yul\":3827:3845   */\n      mload\n        /* \"#utility.yul\":3823:3824   */\n      dup2\n        /* \"#utility.yul\":3818:3821   */\n      dup5\n        /* \"#utility.yul\":3814:3825   */\n      add\n        /* \"#utility.yul\":3807:3846   */\n      mstore\n        /* \"#utility.yul\":3779:3781   */\n      0x20\n        /* \"#utility.yul\":3776:3777   */\n      dup2\n        /* \"#utility.yul\":3772:3782   */\n      add\n        /* \"#utility.yul\":3767:3782   */\n      swap1\n      pop\n        /* \"#utility.yul\":3743:3856   */\n      jump(tag_93)\n    tag_95:\n        /* \"#utility.yul\":3890:3891   */\n      0x00\n        /* \"#utility.yul\":3881:3887   */\n      dup5\n        /* \"#utility.yul\":3876:3879   */\n      dup5\n        /* \"#utility.yul\":3872:3888   */\n      add\n        /* \"#utility.yul\":3865:3892   */\n      mstore\n        /* \"#utility.yul\":3714:3898   */\n      pop\n        /* \"#utility.yul\":3652:3898   */\n      pop\n      pop\n      pop\n      jump\t// out\n        /* \"#utility.yul\":3904:4294   */\n    tag_32:\n        /* \"#utility.yul\":4010:4013   */\n      0x00\n        /* \"#utility.yul\":4038:4077   */\n      tag_97\n        /* \"#utility.yul\":4071:4076   */\n      dup3\n        /* \"#utility.yul\":4038:4077   */\n      tag_29\n      jump\t// in\n    tag_97:\n        /* \"#utility.yul\":4093:4182   */\n      tag_98\n        /* \"#utility.yul\":4175:4181   */\n      dup2\n        /* \"#utility.yul\":4170:4173   */\n      dup6\n        /* \"#utility.yul\":4093:4182   */\n      tag_30\n      jump\t// in\n    tag_98:\n        /* \"#utility.yul\":4086:4182   */\n      swap4\n      pop\n        /* \"#utility.yul\":4191:4256   */\n      tag_99\n        /* \"#utility.yul\":4249:4255   */\n      dup2\n        /* \"#utility.yul\":4244:4247   */\n      dup6\n        /* \"#utility.yul\":4237:4241   */\n      0x20\n        /* \"#utility.yul\":4230:4235   */\n      dup7\n        /* \"#utility.yul\":4226:4242   */\n      add\n        /* \"#utility.yul\":4191:4256   */\n      tag_31\n      jump\t// in\n    tag_99:\n        /* \"#utility.yul\":4281:4287   */\n      dup1\n        /* \"#utility.yul\":4276:4279   */\n      dup5\n        /* \"#utility.yul\":4272:4288   */\n      add\n        /* \"#utility.yul\":4265:4288   */\n      swap2\n      pop\n        /* \"#utility.yul\":4014:4294   */\n      pop\n        /* \"#utility.yul\":3904:4294   */\n      swap3\n      swap2\n      pop\n      pop\n      jump\t// out\n        /* \"#utility.yul\":4300:4575   */\n    tag_10:\n        /* \"#utility.yul\":4432:4435   */\n      0x00\n        /* \"#utility.yul\":4454:4549   */\n      tag_101\n        /* \"#utility.yul\":4545:4548   */\n      dup3\n        /* \"#utility.yul\":4536:4542   */\n      dup5\n        /* \"#utility.yul\":4454:4549   */\n      tag_32\n      jump\t// in\n    tag_101:\n        /* \"#utility.yul\":4447:4549   */\n      swap2\n      pop\n        /* \"#utility.yul\":4566:4569   */\n      dup2\n        /* \"#utility.yul\":4559:4569   */\n      swap1\n      pop\n        /* \"#utility.yul\":4300:4575   */\n      swap3\n      swap2\n      pop\n      pop\n      jump\t// out\n        /* \"#utility.yul\":4581:4761   */\n    tag_33:\n        /* \"#utility.yul\":4629:4706   */\n      0x4e487b7100000000000000000000000000000000000000000000000000000000\n        /* \"#utility.yul\":4626:4627   */\n      0x00\n        /* \"#utility.yul\":4619:4707   */\n      mstore\n        /* \"#utility.yul\":4726:4730   */\n      0x22\n        /* \"#utility.yul\":4723:4724   */\n      0x04\n        /* \"#utility.yul\":4716:4731   */\n      mstore\n        /* \"#utility.yul\":4750:4754   */\n      0x24\n        /* \"#utility.yul\":4747:4748   */\n      0x00\n        /* \"#utility.yul\":4740:4755   */\n      revert\n        /* \"#utility.yul\":4767:5087   */\n    tag_34:\n        /* \"#utility.yul\":4811:4817   */\n      0x00\n        /* \"#utility.yul\":4848:4849   */\n      0x02\n        /* \"#utility.yul\":4842:4846   */\n      dup3\n        /* \"#utility.yul\":4838:4850   */\n      div\n        /* \"#utility.yul\":4828:4850   */\n      swap1\n      pop\n        /* \"#utility.yul\":4895:4896   */\n      0x01\n        /* \"#utility.yul\":4889:4893   */\n      dup3\n        /* \"#utility.yul\":4885:4897   */\n      and\n        /* \"#utility.yul\":4916:4934   */\n      dup1\n        /* \"#utility.yul\":4906:4987   */\n      tag_104\n      jumpi\n        /* \"#utility.yul\":4972:4976   */\n      0x7f\n        /* \"#utility.yul\":4964:4970   */\n      dup3\n        /* \"#utility.yul\":4960:4977   */\n      and\n        /* \"#utility.yul\":4950:4977   */\n      swap2\n      pop\n        /* \"#utility.yul\":4906:4987   */\n    tag_104:\n        /* \"#utility.yul\":5034:5036   */\n      0x20\n        /* \"#utility.yul\":5026:5032   */\n      dup3\n        /* \"#utility.yul\":5023:5037   */\n      lt\n        /* \"#utility.yul\":5003:5021   */\n      dup2\n        /* \"#utility.yul\":5000:5038   */\n      sub\n        /* \"#utility.yul\":4997:5081   */\n      tag_105\n      jumpi\n        /* \"#utility.yul\":5053:5071   */\n      tag_106\n      tag_33\n      jump\t// in\n    tag_106:\n        /* \"#utility.yul\":4997:5081   */\n    tag_105:\n        /* \"#utility.yul\":4818:5087   */\n      pop\n        /* \"#utility.yul\":4767:5087   */\n      swap2\n      swap1\n      pop\n      jump\t// out\n        /* \"#utility.yul\":5093:5234   */\n    tag_35:\n        /* \"#utility.yul\":5142:5146   */\n      0x00\n        /* \"#utility.yul\":5165:5168   */\n      dup2\n        /* \"#utility.yul\":5157:5168   */\n      swap1\n      pop\n        /* \"#utility.yul\":5188:5191   */\n      dup2\n        /* \"#utility.yul\":5185:5186   */\n      0x00\n        /* \"#utility.yul\":5178:5192   */\n      mstore\n        /* \"#utility.yul\":5222:5226   */\n      0x20\n        /* \"#utility.yul\":5219:5220   */\n      0x00\n        /* \"#utility.yul\":5209:5227   */\n      keccak256\n        /* \"#utility.yul\":5201:5227   */\n      swap1\n      pop\n        /* \"#utility.yul\":5093:5234   */\n      swap2\n      swap1\n      pop\n      jump\t// out\n        /* \"#utility.yul\":5240:5333   */\n    tag_36:\n        /* \"#utility.yul\":5277:5283   */\n      0x00\n        /* \"#utility.yul\":5324:5326   */\n      0x20\n        /* \"#utility.yul\":5319:5321   */\n      0x1f\n        /* \"#utility.yul\":5312:5317   */\n      dup4\n        /* \"#utility.yul\":5308:5322   */\n      add\n        /* \"#utility.yul\":5304:5327   */\n      div\n        /* \"#utility.yul\":5294:5327   */\n      swap1\n      pop\n        /* \"#utility.yul\":5240:5333   */\n      swap2\n      swap1\n      pop\n      jump\t// out\n        /* \"#utility.yul\":5339:5446   */\n    tag_37:\n        /* \"#utility.yul\":5383:5391   */\n      0x00\n        /* \"#utility.yul\":5433:5438   */\n      dup3\n        /* \"#utility.yul\":5427:5431   */\n      dup3\n        /* \"#utility.yul\":5423:5439   */\n      shl\n        /* \"#utility.yul\":5402:5439   */\n      swap1\n      pop\n        /* \"#utility.yul\":5339:5446   */\n      swap3\n      swap2\n      pop\n      pop\n      jump\t// out\n        /* \"#utility.yul\":5452:5845   */\n    tag_38:\n        /* \"#utility.yul\":5521:5527   */\n      0x00\n        /* \"#utility.yul\":5571:5572   */\n      0x08\n        /* \"#utility.yul\":5559:5569   */\n      dup4\n        /* \"#utility.yul\":5555:5573   */\n      mul\n        /* \"#utility.yul\":5594:5691   */\n      tag_111\n        /* \"#utility.yul\":5624:5690   */\n      0xffffffffffffffffffffffffffffffffffffffffffffffffffffffffffffffff\n        /* \"#utility.yul\":5613:5622   */\n      dup3\n        /* \"#utility.yul\":5594:5691   */\n      tag_37\n      jump\t// in\n    tag_111:\n        /* \"#utility.yul\":5712:5751   */\n      tag_112\n        /* \"#utility.yul\":5742:5750   */\n      dup7\n        /* \"#utility.yul\":5731:5740   */\n      dup4\n        /* \"#utility.yul\":5712:5751   */\n      tag_37\n      jump\t// in\n    tag_112:\n        /* \"#utility.yul\":5700:5751   */\n      swap6\n      pop\n        /* \"#utility.yul\":5784:5788   */\n      dup1\n        /* \"#utility.yul\":5780:5789   */\n      not\n        /* \"#utility.yul\":5773:5778   */\n      dup5\n        /* \"#utility.yul\":5769:5790   */\n      and\n        /* \"#utility.yul\":5760:5790   */\n      swap4\n      pop\n        /* \"#utility.yul\":5833:5837   */\n      dup1\n        /* \"#utility.yul\":5823:5831   */\n      dup7\n        /* \"#utility.yul\":5819:5838   */\n      and\n        /* \"#utility.yul\":5812:5817   */\n      dup5\n        /* \"#utility.yul\":5809:5839   */\n      or\n        /* \"#utility.yul\":5799:5839   */\n      swap3\n      pop\n        /* \"#utility.yul\":5528:5845   */\n      pop\n      pop\n        /* \"#utility.yul\":5452:5845   */\n      swap4\n      swap3\n      pop\n      pop\n      pop\n      jump\t// out\n        /* \"#utility.yul\":5851:5928   */\n    tag_39:\n        /* \"#utility.yul\":5888:5895   */\n      0x00\n        /* \"#utility.yul\":5917:5922   */\n      dup2\n        /* \"#utility.yul\":5906:5922   */\n      swap1\n      pop\n        /* \"#utility.yul\":5851:5928   */\n      swap2\n      swap1\n      pop\n      jump\t// out\n        /* \"#utility.yul\":5934:5994   */\n    tag_40:\n        /* \"#utility.yul\":5962:5965   */\n      0x00\n        /* \"#utility.yul\":5983:5988   */\n      dup2\n        /* \"#utility.yul\":5976:5988   */\n      swap1\n      pop\n        /* \"#utility.yul\":5934:5994   */\n      swap2\n      swap1\n      pop\n      jump\t// out\n        /* \"#utility.yul\":6000:6142   */\n    tag_41:\n        /* \"#utility.yul\":6050:6059   */\n      0x00\n        /* \"#utility.yul\":6083:6136   */\n      tag_116\n        /* \"#utility.yul\":6101:6135   */\n      tag_117\n        /* \"#utility.yul\":6110:6134   */\n      tag_118\n        /* \"#utility.yul\":6128:6133   */\n      dup5\n        /* \"#utility.yul\":6110:6134   */\n      tag_39\n      jump\t// in\n    tag_118:\n        /* \"#utility.yul\":6101:6135   */\n      tag_40\n      jump\t// in\n    tag_117:\n        /* \"#utility.yul\":6083:6136   */\n      tag_39\n      jump\t// in\n    tag_116:\n        /* \"#utility.yul\":6070:6136   */\n      swap1\n      pop\n        /* \"#utility.yul\":6000:6142   */\n      swap2\n      swap1\n      pop\n      jump\t// out\n        /* \"#utility.yul\":6148:6223   */\n    tag_42:\n        /* \"#utility.yul\":6191:6194   */\n      0x00\n        /* \"#utility.yul\":6212:6217   */\n      dup2\n        /* \"#utility.yul\":6205:6217   */\n      swap1\n      pop\n        /* \"#utility.yul\":6148:6223   */\n      swap2\n      swap1\n      pop\n      jump\t// out\n        /* \"#utility.yul\":6229:6498   */\n    tag_43:\n        /* \"#utility.yul\":6339:6378   */\n      tag_121\n        /* \"#utility.yul\":6370:6377   */\n      dup4\n        /* \"#utility.yul\":6339:6378   */\n      tag_41\n      jump\t// in\n    tag_121:\n        /* \"#utility.yul\":6400:6491   */\n      tag_122\n        /* \"#utility.yul\":6449:6490   */\n      tag_123\n        /* \"#utility.yul\":6473:6489   */\n      dup3\n        /* \"#utility.yul\":6449:6490   */\n      tag_42\n      jump\t// in\n    tag_123:\n        /* \"#utility.yul\":6441:6447   */\n      dup5\n        /* \"#utility.yul\":6434:6438   */\n      dup5\n        /* \"#utility.yul\":6428:6439   */\n      sload\n        /* \"#utility.yul\":6400:6491   */\n      tag_38\n      jump\t// in\n    tag_122:\n        /* \"#utility.yul\":6394:6398   */\n      dup3\n        /* \"#utility.yul\":6387:6492   */\n      sstore\n        /* \"#utility.yul\":6305:6498   */\n      pop\n        /* \"#utility.yul\":6229:6498   */\n      pop\n      pop\n      pop\n      jump\t// out\n        /* \"#utility.yul\":6504:6577   */\n    tag_44:\n        /* \"#utility.yul\":6549:6552   */\n      0x00\n        /* \"#utility.yul\":6504:6577   */\n      swap1\n      jump\t// out\n        /* \"#utility.yul\":6583:6772   */\n    tag_45:\n        /* \"#utility.yul\":6660:6692   */\n      tag_126\n      tag_44\n      jump\t// in\n    tag_126:\n        /* \"#utility.yul\":6701:6766   */\n      tag_127\n        /* \"#utility.yul\":6759:6765   */\n      dup2\n        /* \"#utility.yul\":6751:6757   */\n      dup5\n        /* \"#utility.yul\":6745:6749   */\n      dup5\n        /* \"#utility.yul\":6701:6766   */\n      tag_43\n      jump\t// in\n    tag_127:\n        /* \"#utility.yul\":6636:6772   */\n      pop\n        /* \"#utility.yul\":6583:6772   */\n      pop\n      pop\n      jump\t// out\n        /* \"#utility.yul\":6778:6964   */\n    tag_46:\n        /* \"#utility.yul\":6838:6958   */\n    tag_129:\n        /* \"#utility.yul\":6855:6858   */\n      dup2\n        /* \"#utility.yul\":6848:6853   */\n      dup2\n        /* \"#utility.yul\":6845:6859   */\n      lt\n        /* \"#utility.yul\":6838:6958   */\n      iszero\n      tag_131\n      jumpi\n        /* \"#utility.yul\":6909:6948   */\n      tag_132\n        /* \"#utility.yul\":6946:6947   */\n      0x00\n        /* \"#utility.yul\":6939:6944   */\n      dup3\n        /* \"#utility.yul\":6909:6948   */\n      tag_45\n      jump\t// in\n    tag_132:\n        /* \"#utility.yul\":6882:6883   */\n      0x01\n        /* \"#utility.yul\":6875:6880   */\n      dup2\n        /* \"#utility.yul\":6871:6884   */\n      add\n        /* \"#utility.yul\":6862:6884   */\n      swap1\n      pop\n        /* \"#utility.yul\":6838:6958   */\n      jump(tag_129)\n    tag_131:\n        /* \"#utility.yul\":6778:6964   */\n      pop\n      pop\n      jump\t// out\n        /* \"#utility.yul\":6970:7513   */\n    tag_47:\n        /* \"#utility.yul\":7071:7073   */\n      0x1f\n        /* \"#utility.yul\":7066:7069   */\n      dup3\n        /* \"#utility.yul\":7063:7074   */\n      gt\n        /* \"#utility.yul\":7060:7506   */\n      iszero\n      tag_134\n      jumpi\n        /* \"#utility.yul\":7105:7143   */\n      tag_135\n        /* \"#utility.yul\":7137:7142   */\n      dup2\n        /* \"#utility.yul\":7105:7143   */\n      tag_35\n      jump\t// in\n    tag_135:\n        /* \"#utility.yul\":7189:7218   */\n      tag_136\n        /* \"#utility.yul\":7207:7217   */\n      dup5\n        /* \"#utility.yul\":7189:7218   */\n      tag_36\n      jump\t// in\n    tag_136:\n        /* \"#utility.yul\":7179:7187   */\n      dup2\n        /* \"#utility.yul\":7175:7219   */\n      add\n        /* \"#utility.yul\":7372:7374   */\n      0x20\n        /* \"#utility.yul\":7360:7370   */\n      dup6\n        /* \"#utility.yul\":7357:7375   */\n      lt\n        /* \"#utility.yul\":7354:7403   */\n      iszero\n      tag_137\n      jumpi\n        /* \"#utility.yul\":7393:7401   */\n      dup2\n        /* \"#utility.yul\":7378:7401   */\n      swap1\n      pop\n        /* \"#utility.yul\":7354:7403   */\n    tag_137:\n        /* \"#utility.yul\":7416:7496   */\n      tag_138\n        /* \"#utility.yul\":7472:7494   */\n      tag_139\n        /* \"#utility.yul\":7490:7493   */\n      dup6\n        /* \"#utility.yul\":7472:7494   */\n      tag_36\n      jump\t// in\n    tag_139:\n        /* \"#utility.yul\":7462:7470   */\n      dup4\n        /* \"#utility.yul\":7458:7495   */\n      add\n        /* \"#utility.yul\":7445:7456   */\n      dup3\n        /* \"#utility.yul\":7416:7496   */\n      tag_46\n      jump\t// in\n    tag_138:\n        /* \"#utility.yul\":7075:7506   */\n      pop\n      pop\n        /* \"#utility.yul\":7060:7506   */\n    tag_134:\n        /* \"#utility.yul\":6970:7513   */\n      pop\n      pop\n      pop\n      jump\t// out\n        /* \"#utility.yul\":7519:7636   */\n    tag_48:\n        /* \"#utility.yul\":7573:7581   */\n      0x00\n        /* \"#utility.yul\":7623:7628   */\n      dup3\n        /* \"#utility.yul\":7617:7621   */\n      dup3\n        /* \"#utility.yul\":7613:7629   */\n      shr\n        /* \"#utility.yul\":7592:7629   */\n      swap1\n      pop\n        /* \"#utility.yul\":7519:7636   */\n      swap3\n      swap2\n      pop\n      pop\n      jump\t// out\n        /* \"#utility.yul\":7642:7811   */\n    tag_49:\n        /* \"#utility.yul\":7686:7692   */\n      0x00\n        /* \"#utility.yul\":7719:7770   */\n      tag_142\n        /* \"#utility.yul\":7767:7768   */\n      0x00\n        /* \"#utility.yul\":7763:7769   */\n      not\n        /* \"#utility.yul\":7755:7760   */\n      dup5\n        /* \"#utility.yul\":7752:7753   */\n      0x08\n        /* \"#utility.yul\":7748:7761   */\n      mul\n        /* \"#utility.yul\":7719:7770   */\n      tag_48\n      jump\t// in\n    tag_142:\n        /* \"#utility.yul\":7715:7771   */\n      not\n        /* \"#utility.yul\":7800:7804   */\n      dup1\n        /* \"#utility.yul\":7794:7798   */\n      dup4\n        /* \"#utility.yul\":7790:7805   */\n      and\n        /* \"#utility.yul\":7780:7805   */\n      swap2\n      pop\n        /* \"#utility.yul\":7693:7811   */\n      pop\n        /* \"#utility.yul\":7642:7811   */\n      swap3\n      swap2\n      pop\n      pop\n      jump\t// out\n        /* \"#utility.yul\":7816:8111   */\n    tag_50:\n        /* \"#utility.yul\":7892:7896   */\n      0x00\n        /* \"#utility.yul\":8038:8067   */\n      tag_144\n        /* \"#utility.yul\":8063:8066   */\n      dup4\n        /* \"#utility.yul\":8057:8061   */\n      dup4\n        /* \"#utility.yul\":8038:8067   */\n      tag_49\n      jump\t// in\n    tag_144:\n        /* \"#utility.yul\":8030:8067   */\n      swap2\n      pop\n        /* \"#utility.yul\":8100:8103   */\n      dup3\n        /* \"#utility.yul\":8097:8098   */\n      0x02\n        /* \"#utility.yul\":8093:8104   */\n      mul\n        /* \"#utility.yul\":8087:8091   */\n      dup3\n        /* \"#utility.yul\":8084:8105   */\n      or\n        /* \"#utility.yul\":8076:8105   */\n      swap1\n      pop\n        /* \"#utility.yul\":7816:8111   */\n      swap3\n      swap2\n      pop\n      pop\n      jump\t// out\n        /* \"#utility.yul\":8116:9511   */\n    tag_15:\n        /* \"#utility.yul\":8233:8270   */\n      tag_146\n        /* \"#utility.yul\":8266:8269   */\n      dup3\n        /* \"#utility.yul\":8233:8270   */\n      tag_29\n      jump\t// in\n    tag_146:\n        /* \"#utility.yul\":8335:8353   */\n      0xffffffffffffffff\n        /* \"#utility.yul\":8327:8333   */\n      dup2\n        /* \"#utility.yul\":8324:8354   */\n      gt\n        /* \"#utility.yul\":8321:8377   */\n      iszero\n      tag_147\n      jumpi\n        /* \"#utility.yul\":8357:8375   */\n      tag_148\n      tag_22\n      jump\t// in\n    tag_148:\n        /* \"#utility.yul\":8321:8377   */\n    tag_147:\n        /* \"#utility.yul\":8401:8439   */\n      tag_149\n        /* \"#utility.yul\":8433:8437   */\n      dup3\n        /* \"#utility.yul\":8427:8438   */\n      sload\n        /* \"#utility.yul\":8401:8439   */\n      tag_34\n      jump\t// in\n    tag_149:\n        /* \"#utility.yul\":8486:8553   */\n      tag_150\n        /* \"#utility.yul\":8546:8552   */\n      dup3\n        /* \"#utility.yul\":8538:8544   */\n      dup3\n        /* \"#utility.yul\":8532:8536   */\n      dup6\n        /* \"#utility.yul\":8486:8553   */\n      tag_47\n      jump\t// in\n    tag_150:\n        /* \"#utility.yul\":8580:8581   */\n      0x00\n        /* \"#utility.yul\":8604:8608   */\n      0x20\n        /* \"#utility.yul\":8591:8608   */\n      swap1\n      pop\n        /* \"#utility.yul\":8636:8638   */\n      0x1f\n        /* \"#utility.yul\":8628:8634   */\n      dup4\n        /* \"#utility.yul\":8625:8639   */\n      gt\n        /* \"#utility.yul\":8653:8654   */\n      0x01\n        /* \"#utility.yul\":8648:9266   */\n      dup2\n      eq\n      tag_152\n      jumpi\n        /* \"#utility.yul\":9310:9311   */\n      0x00\n        /* \"#utility.yul\":9327:9333   */\n      dup5\n        /* \"#utility.yul\":9324:9401   */\n      iszero\n      tag_153\n      jumpi\n        /* \"#utility.yul\":9376:9385   */\n      dup3\n        /* \"#utility.yul\":9371:9374   */\n      dup8\n        /* \"#utility.yul\":9367:9386   */\n      add\n        /* \"#utility.yul\":9361:9387   */\n      mload\n        /* \"#utility.yul\":9352:9387   */\n      swap1\n      pop\n        /* \"#utility.yul\":9324:9401   */\n    tag_153:\n        /* \"#utility.yul\":9427:9494   */\n      tag_154\n        /* \"#utility.yul\":9487:9493   */\n      dup6\n        /* \"#utility.yul\":9480:9485   */\n      dup3\n        /* \"#utility.yul\":9427:9494   */\n      tag_50\n      jump\t// in\n    tag_154:\n        /* \"#utility.yul\":9421:9425   */\n      dup7\n        /* \"#utility.yul\":9414:9495   */\n      sstore\n        /* \"#utility.yul\":9283:9505   */\n      pop\n        /* \"#utility.yul\":8618:9505   */\n      jump(tag_151)\n        /* \"#utility.yul\":8648:9266   */\n    tag_152:\n        /* \"#utility.yul\":8700:8704   */\n      0x1f\n        /* \"#utility.yul\":8696:8705   */\n      not\n        /* \"#utility.yul\":8688:8694   */\n      dup5\n        /* \"#utility.yul\":8684:8706   */\n      and\n        /* \"#utility.yul\":8734:8771   */\n      tag_155\n        /* \"#utility.yul\":8766:8770   */\n      dup7\n        /* \"#utility.yul\":8734:8771   */\n      tag_35\n      jump\t// in\n    tag_155:\n        /* \"#utility.yul\":8793:8794   */\n      0x00\n        /* \"#utility.yul\":8807:9015   */\n    tag_156:\n        /* \"#utility.yul\":8821:8828   */\n      dup3\n        /* \"#utility.yul\":8818:8819   */\n      dup2\n        /* \"#utility.yul\":8815:8829   */\n      lt\n        /* \"#utility.yul\":8807:9015   */\n      iszero\n      tag_158\n      jumpi\n        /* \"#utility.yul\":8900:8909   */\n      dup5\n        /* \"#utility.yul\":8895:8898   */\n      dup10\n        /* \"#utility.yul\":8891:8910   */\n      add\n        /* \"#utility.yul\":8885:8911   */\n      mload\n        /* \"#utility.yul\":8877:8883   */\n      dup3\n        /* \"#utility.yul\":8870:8912   */\n      sstore\n        /* \"#utility.yul\":8951:8952   */\n      0x01\n        /* \"#utility.yul\":8943:8949   */\n      dup3\n        /* \"#utility.yul\":8939:8953   */\n      add\n        /* \"#utility.yul\":8929:8953   */\n      swap2\n      pop\n        /* \"#utility.yul\":8998:9000   */\n      0x20\n        /* \"#utility.yul\":8987:8996   */\n      dup6\n        /* \"#utility.yul\":8983:9001   */\n      add\n        /* \"#utility.yul\":8970:9001   */\n      swap5\n      pop\n        /* \"#utility.yul\":8844:8848   */\n      0x20\n        /* \"#utility.yul\":8841:8842   */\n      dup2\n        /* \"#utility.yul\":8837:8849   */\n      add\n        /* \"#utility.yul\":8832:8849   */\n      swap1\n      pop\n        /* \"#utility.yul\":8807:9015   */\n      jump(tag_156)\n    tag_158:\n        /* \"#utility.yul\":9043:9049   */\n      dup7\n        /* \"#utility.yul\":9034:9041   */\n      dup4\n        /* \"#utility.yul\":9031:9050   */\n      lt\n        /* \"#utility.yul\":9028:9207   */\n      iszero\n      tag_159\n      jumpi\n        /* \"#utility.yul\":9101:9110   */\n      dup5\n        /* \"#utility.yul\":9096:9099   */\n      dup10\n        /* \"#utility.yul\":9092:9111   */\n      add\n        /* \"#utility.yul\":9086:9112   */\n      mload\n        /* \"#utility.yul\":9144:9192   */\n      tag_160\n        /* \"#utility.yul\":9186:9190   */\n      0x1f\n        /* \"#utility.yul\":9178:9184   */\n      dup10\n        /* \"#utility.yul\":9174:9191   */\n      and\n        /* \"#utility.yul\":9163:9172   */\n      dup3\n        /* \"#utility.yul\":9144:9192   */\n      tag_49\n      jump\t// in\n    tag_160:\n        /* \"#utility.yul\":9136:9142   */\n      dup4\n        /* \"#utility.yul\":9129:9193   */\n      sstore\n        /* \"#utility.yul\":9051:9207   */\n      pop\n        /* \"#utility.yul\":9028:9207   */\n    tag_159:\n        /* \"#utility.yul\":9253:9254   */\n      0x01\n        /* \"#utility.yul\":9249:9250   */\n      0x02\n        /* \"#utility.yul\":9241:9247   */\n      dup9\n        /* \"#utility.yul\":9237:9251   */\n      mul\n        /* \"#utility.yul\":9233:9255   */\n      add\n        /* \"#utility.yul\":9227:9231   */\n      dup9\n        /* \"#utility.yul\":9220:9256   */\n      sstore\n        /* \"#utility.yul\":8655:9266   */\n      pop\n      pop\n      pop\n        /* \"#utility.yul\":8618:9505   */\n    tag_151:\n      pop\n        /* \"#utility.yul\":8208:9511   */\n      pop\n      pop\n      pop\n        /* \"#utility.yul\":8116:9511   */\n      pop\n      pop\n      jump\t// out\n\n    auxdata: 0xa2646970667358221220a73308b6161db765c7cf814315ff4ecdf8d5823a6df6435efb51ec38ba04bf1e64736f6c63430008120033\n}\n",
				"bytecode": {
					"linkReferences": {},
					"object": "608060405234801561001057600080fd5b50610691806100206000396000f3fe608060405234801561001057600080fd5b506004361061002b5760003560e01c80635728b97314610030575b600080fd5b61004a60048036038101906100459190610273565b61004c565b005b8060405160200161005d919061035c565b60405160208183030381529060405280519060200120600182604051610083919061035c565b908152602001604051809103902081905550600060405180604001604052808481526020016001846040516100b8919061035c565b908152602001604051809103902054815250908060018154018082558091505060019003906000526020600020906002020160009091909190915060008201518160000190816101089190610589565b506020820151816001015550505050565b6000604051905090565b600080fd5b600080fd5b600080fd5b600080fd5b6000601f19601f8301169050919050565b7f4e487b7100000000000000000000000000000000000000000000000000000000600052604160045260246000fd5b61018082610137565b810181811067ffffffffffffffff8211171561019f5761019e610148565b5b80604052505050565b60006101b2610119565b90506101be8282610177565b919050565b600067ffffffffffffffff8211156101de576101dd610148565b5b6101e782610137565b9050602081019050919050565b82818337600083830152505050565b6000610216610211846101c3565b6101a8565b90508281526020810184848401111561023257610231610132565b5b61023d8482856101f4565b509392505050565b600082601f83011261025a5761025961012d565b5b813561026a848260208601610203565b91505092915050565b6000806040838503121561028a57610289610123565b5b600083013567ffffffffffffffff8111156102a8576102a7610128565b5b6102b485828601610245565b925050602083013567ffffffffffffffff8111156102d5576102d4610128565b5b6102e185828601610245565b9150509250929050565b600081519050919050565b600081905092915050565b60005b8381101561031f578082015181840152602081019050610304565b60008484015250505050565b6000610336826102eb565b61034081856102f6565b9350610350818560208601610301565b80840191505092915050565b6000610368828461032b565b915081905092915050565b7f4e487b7100000000000000000000000000000000000000000000000000000000600052602260045260246000fd5b600060028204905060018216806103ba57607f821691505b6020821081036103cd576103cc610373565b5b50919050565b60008190508160005260206000209050919050565b60006020601f8301049050919050565b600082821b905092915050565b6000600883026104357fffffffffffffffffffffffffffffffffffffffffffffffffffffffffffffffff826103f8565b61043f86836103f8565b95508019841693508086168417925050509392505050565b6000819050919050565b6000819050919050565b600061048661048161047c84610457565b610461565b610457565b9050919050565b6000819050919050565b6104a08361046b565b6104b46104ac8261048d565b848454610405565b825550505050565b600090565b6104c96104bc565b6104d4818484610497565b505050565b5b818110156104f8576104ed6000826104c1565b6001810190506104da565b5050565b601f82111561053d5761050e816103d3565b610517846103e8565b81016020851015610526578190505b61053a610532856103e8565b8301826104d9565b50505b505050565b600082821c905092915050565b600061056060001984600802610542565b1980831691505092915050565b6000610579838361054f565b9150826002028217905092915050565b610592826102eb565b67ffffffffffffffff8111156105ab576105aa610148565b5b6105b582546103a2565b6105c08282856104fc565b600060209050601f8311600181146105f357600084156105e1578287015190505b6105eb858261056d565b865550610653565b601f198416610601866103d3565b60005b8281101561062957848901518255600182019150602085019450602081019050610604565b868310156106465784890151610642601f89168261054f565b8355505b6001600288020188555050505b50505050505056fea2646970667358221220a73308b6161db765c7cf814315ff4ecdf8d5823a6df6435efb51ec38ba04bf1e64736f6c63430008120033",
					"opcodes": "PUSH1 0x80 PUSH1 0x40 MSTORE CALLVALUE DUP1 ISZERO PUSH2 0x10 JUMPI PUSH1 0x0 DUP1 REVERT JUMPDEST POP PUSH2 0x691 DUP1 PUSH2 0x20 PUSH1 0x0 CODECOPY PUSH1 0x0 RETURN INVALID PUSH1 0x80 PUSH1 0x40 MSTORE CALLVALUE DUP1 ISZERO PUSH2 0x10 JUMPI PUSH1 0x0 DUP1 REVERT JUMPDEST POP PUSH1 0x4 CALLDATASIZE LT PUSH2 0x2B JUMPI PUSH1 0x0 CALLDATALOAD PUSH1 0xE0 SHR DUP1 PUSH4 0x5728B973 EQ PUSH2 0x30 JUMPI JUMPDEST PUSH1 0x0 DUP1 REVERT JUMPDEST PUSH2 0x4A PUSH1 0x4 DUP1 CALLDATASIZE SUB DUP2 ADD SWAP1 PUSH2 0x45 SWAP2 SWAP1 PUSH2 0x273 JUMP JUMPDEST PUSH2 0x4C JUMP JUMPDEST STOP JUMPDEST DUP1 PUSH1 0x40 MLOAD PUSH1 0x20 ADD PUSH2 0x5D SWAP2 SWAP1 PUSH2 0x35C JUMP JUMPDEST PUSH1 0x40 MLOAD PUSH1 0x20 DUP2 DUP4 SUB SUB DUP2 MSTORE SWAP1 PUSH1 0x40 MSTORE DUP1 MLOAD SWAP1 PUSH1 0x20 ADD KECCAK256 PUSH1 0x1 DUP3 PUSH1 0x40 MLOAD PUSH2 0x83 SWAP2 SWAP1 PUSH2 0x35C JUMP JUMPDEST SWAP1 DUP2 MSTORE PUSH1 0x20 ADD PUSH1 0x40 MLOAD DUP1 SWAP2 SUB SWAP1 KECCAK256 DUP2 SWAP1 SSTORE POP PUSH1 0x0 PUSH1 0x40 MLOAD DUP1 PUSH1 0x40 ADD PUSH1 0x40 MSTORE DUP1 DUP5 DUP2 MSTORE PUSH1 0x20 ADD PUSH1 0x1 DUP5 PUSH1 0x40 MLOAD PUSH2 0xB8 SWAP2 SWAP1 PUSH2 0x35C JUMP JUMPDEST SWAP1 DUP2 MSTORE PUSH1 0x20 ADD PUSH1 0x40 MLOAD DUP1 SWAP2 SUB SWAP1 KECCAK256 SLOAD DUP2 MSTORE POP SWAP1 DUP1 PUSH1 0x1 DUP2 SLOAD ADD DUP1 DUP3 SSTORE DUP1 SWAP2 POP POP PUSH1 0x1 SWAP1 SUB SWAP1 PUSH1 0x0 MSTORE PUSH1 0x20 PUSH1 0x0 KECCAK256 SWAP1 PUSH1 0x2 MUL ADD PUSH1 0x0 SWAP1 SWAP2 SWAP1 SWAP2 SWAP1 SWAP2 POP PUSH1 0x0 DUP3 ADD MLOAD DUP2 PUSH1 0x0 ADD SWAP1 DUP2 PUSH2 0x108 SWAP2 SWAP1 PUSH2 0x589 JUMP JUMPDEST POP PUSH1 0x20 DUP3 ADD MLOAD DUP2 PUSH1 0x1 ADD SSTORE POP POP POP POP JUMP JUMPDEST PUSH1 0x0 PUSH1 0x40 MLOAD SWAP1 POP SWAP1 JUMP JUMPDEST PUSH1 0x0 DUP1 REVERT JUMPDEST PUSH1 0x0 DUP1 REVERT JUMPDEST PUSH1 0x0 DUP1 REVERT JUMPDEST PUSH1 0x0 DUP1 REVERT JUMPDEST PUSH1 0x0 PUSH1 0x1F NOT PUSH1 0x1F DUP4 ADD AND SWAP1 POP SWAP2 SWAP1 POP JUMP JUMPDEST PUSH32 0x4E487B7100000000000000000000000000000000000000000000000000000000 PUSH1 0x0 MSTORE PUSH1 0x41 PUSH1 0x4 MSTORE PUSH1 0x24 PUSH1 0x0 REVERT JUMPDEST PUSH2 0x180 DUP3 PUSH2 0x137 JUMP JUMPDEST DUP2 ADD DUP2 DUP2 LT PUSH8 0xFFFFFFFFFFFFFFFF DUP3 GT OR ISZERO PUSH2 0x19F JUMPI PUSH2 0x19E PUSH2 0x148 JUMP JUMPDEST JUMPDEST DUP1 PUSH1 0x40 MSTORE POP POP POP JUMP JUMPDEST PUSH1 0x0 PUSH2 0x1B2 PUSH2 0x119 JUMP JUMPDEST SWAP1 POP PUSH2 0x1BE DUP3 DUP3 PUSH2 0x177 JUMP JUMPDEST SWAP2 SWAP1 POP JUMP JUMPDEST PUSH1 0x0 PUSH8 0xFFFFFFFFFFFFFFFF DUP3 GT ISZERO PUSH2 0x1DE JUMPI PUSH2 0x1DD PUSH2 0x148 JUMP JUMPDEST JUMPDEST PUSH2 0x1E7 DUP3 PUSH2 0x137 JUMP JUMPDEST SWAP1 POP PUSH1 0x20 DUP2 ADD SWAP1 POP SWAP2 SWAP1 POP JUMP JUMPDEST DUP3 DUP2 DUP4 CALLDATACOPY PUSH1 0x0 DUP4 DUP4 ADD MSTORE POP POP POP JUMP JUMPDEST PUSH1 0x0 PUSH2 0x216 PUSH2 0x211 DUP5 PUSH2 0x1C3 JUMP JUMPDEST PUSH2 0x1A8 JUMP JUMPDEST SWAP1 POP DUP3 DUP2 MSTORE PUSH1 0x20 DUP2 ADD DUP5 DUP5 DUP5 ADD GT ISZERO PUSH2 0x232 JUMPI PUSH2 0x231 PUSH2 0x132 JUMP JUMPDEST JUMPDEST PUSH2 0x23D DUP5 DUP3 DUP6 PUSH2 0x1F4 JUMP JUMPDEST POP SWAP4 SWAP3 POP POP POP JUMP JUMPDEST PUSH1 0x0 DUP3 PUSH1 0x1F DUP4 ADD SLT PUSH2 0x25A JUMPI PUSH2 0x259 PUSH2 0x12D JUMP JUMPDEST JUMPDEST DUP2 CALLDATALOAD PUSH2 0x26A DUP5 DUP3 PUSH1 0x20 DUP7 ADD PUSH2 0x203 JUMP JUMPDEST SWAP2 POP POP SWAP3 SWAP2 POP POP JUMP JUMPDEST PUSH1 0x0 DUP1 PUSH1 0x40 DUP4 DUP6 SUB SLT ISZERO PUSH2 0x28A JUMPI PUSH2 0x289 PUSH2 0x123 JUMP JUMPDEST JUMPDEST PUSH1 0x0 DUP4 ADD CALLDATALOAD PUSH8 0xFFFFFFFFFFFFFFFF DUP2 GT ISZERO PUSH2 0x2A8 JUMPI PUSH2 0x2A7 PUSH2 0x128 JUMP JUMPDEST JUMPDEST PUSH2 0x2B4 DUP6 DUP3 DUP7 ADD PUSH2 0x245 JUMP JUMPDEST SWAP3 POP POP PUSH1 0x20 DUP4 ADD CALLDATALOAD PUSH8 0xFFFFFFFFFFFFFFFF DUP2 GT ISZERO PUSH2 0x2D5 JUMPI PUSH2 0x2D4 PUSH2 0x128 JUMP JUMPDEST JUMPDEST PUSH2 0x2E1 DUP6 DUP3 DUP7 ADD PUSH2 0x245 JUMP JUMPDEST SWAP2 POP POP SWAP3 POP SWAP3 SWAP1 POP JUMP JUMPDEST PUSH1 0x0 DUP2 MLOAD SWAP1 POP SWAP2 SWAP1 POP JUMP JUMPDEST PUSH1 0x0 DUP2 SWAP1 POP SWAP3 SWAP2 POP POP JUMP JUMPDEST PUSH1 0x0 JUMPDEST DUP4 DUP2 LT ISZERO PUSH2 0x31F JUMPI DUP1 DUP3 ADD MLOAD DUP2 DUP5 ADD MSTORE PUSH1 0x20 DUP2 ADD SWAP1 POP PUSH2 0x304 JUMP JUMPDEST PUSH1 0x0 DUP5 DUP5 ADD MSTORE POP POP POP POP JUMP JUMPDEST PUSH1 0x0 PUSH2 0x336 DUP3 PUSH2 0x2EB JUMP JUMPDEST PUSH2 0x340 DUP2 DUP6 PUSH2 0x2F6 JUMP JUMPDEST SWAP4 POP PUSH2 0x350 DUP2 DUP6 PUSH1 0x20 DUP7 ADD PUSH2 0x301 JUMP JUMPDEST DUP1 DUP5 ADD SWAP2 POP POP SWAP3 SWAP2 POP POP JUMP JUMPDEST PUSH1 0x0 PUSH2 0x368 DUP3 DUP5 PUSH2 0x32B JUMP JUMPDEST SWAP2 POP DUP2 SWAP1 POP SWAP3 SWAP2 POP POP JUMP JUMPDEST PUSH32 0x4E487B7100000000000000000000000000000000000000000000000000000000 PUSH1 0x0 MSTORE PUSH1 0x22 PUSH1 0x4 MSTORE PUSH1 0x24 PUSH1 0x0 REVERT JUMPDEST PUSH1 0x0 PUSH1 0x2 DUP3 DIV SWAP1 POP PUSH1 0x1 DUP3 AND DUP1 PUSH2 0x3BA JUMPI PUSH1 0x7F DUP3 AND SWAP2 POP JUMPDEST PUSH1 0x20 DUP3 LT DUP2 SUB PUSH2 0x3CD JUMPI PUSH2 0x3CC PUSH2 0x373 JUMP JUMPDEST JUMPDEST POP SWAP2 SWAP1 POP JUMP JUMPDEST PUSH1 0x0 DUP2 SWAP1 POP DUP2 PUSH1 0x0 MSTORE PUSH1 0x20 PUSH1 0x0 KECCAK256 SWAP1 POP SWAP2 SWAP1 POP JUMP JUMPDEST PUSH1 0x0 PUSH1 0x20 PUSH1 0x1F DUP4 ADD DIV SWAP1 POP SWAP2 SWAP1 POP JUMP JUMPDEST PUSH1 0x0 DUP3 DUP3 SHL SWAP1 POP SWAP3 SWAP2 POP POP JUMP JUMPDEST PUSH1 0x0 PUSH1 0x8 DUP4 MUL PUSH2 0x435 PUSH32 0xFFFFFFFFFFFFFFFFFFFFFFFFFFFFFFFFFFFFFFFFFFFFFFFFFFFFFFFFFFFFFFFF DUP3 PUSH2 0x3F8 JUMP JUMPDEST PUSH2 0x43F DUP7 DUP4 PUSH2 0x3F8 JUMP JUMPDEST SWAP6 POP DUP1 NOT DUP5 AND SWAP4 POP DUP1 DUP7 AND DUP5 OR SWAP3 POP POP POP SWAP4 SWAP3 POP POP POP JUMP JUMPDEST PUSH1 0x0 DUP2 SWAP1 POP SWAP2 SWAP1 POP JUMP JUMPDEST PUSH1 0x0 DUP2 SWAP1 POP SWAP2 SWAP1 POP JUMP JUMPDEST PUSH1 0x0 PUSH2 0x486 PUSH2 0x481 PUSH2 0x47C DUP5 PUSH2 0x457 JUMP JUMPDEST PUSH2 0x461 JUMP JUMPDEST PUSH2 0x457 JUMP JUMPDEST SWAP1 POP SWAP2 SWAP1 POP JUMP JUMPDEST PUSH1 0x0 DUP2 SWAP1 POP SWAP2 SWAP1 POP JUMP JUMPDEST PUSH2 0x4A0 DUP4 PUSH2 0x46B JUMP JUMPDEST PUSH2 0x4B4 PUSH2 0x4AC DUP3 PUSH2 0x48D JUMP JUMPDEST DUP5 DUP5 SLOAD PUSH2 0x405 JUMP JUMPDEST DUP3 SSTORE POP POP POP POP JUMP JUMPDEST PUSH1 0x0 SWAP1 JUMP JUMPDEST PUSH2 0x4C9 PUSH2 0x4BC JUMP JUMPDEST PUSH2 0x4D4 DUP2 DUP5 DUP5 PUSH2 0x497 JUMP JUMPDEST POP POP POP JUMP JUMPDEST JUMPDEST DUP2 DUP2 LT ISZERO PUSH2 0x4F8 JUMPI PUSH2 0x4ED PUSH1 0x0 DUP3 PUSH2 0x4C1 JUMP JUMPDEST PUSH1 0x1 DUP2 ADD SWAP1 POP PUSH2 0x4DA JUMP JUMPDEST POP POP JUMP JUMPDEST PUSH1 0x1F DUP3 GT ISZERO PUSH2 0x53D JUMPI PUSH2 0x50E DUP2 PUSH2 0x3D3 JUMP JUMPDEST PUSH2 0x517 DUP5 PUSH2 0x3E8 JUMP JUMPDEST DUP2 ADD PUSH1 0x20 DUP6 LT ISZERO PUSH2 0x526 JUMPI DUP2 SWAP1 POP JUMPDEST PUSH2 0x53A PUSH2 0x532 DUP6 PUSH2 0x3E8 JUMP JUMPDEST DUP4 ADD DUP3 PUSH2 0x4D9 JUMP JUMPDEST POP POP JUMPDEST POP POP POP JUMP JUMPDEST PUSH1 0x0 DUP3 DUP3 SHR SWAP1 POP SWAP3 SWAP2 POP POP JUMP JUMPDEST PUSH1 0x0 PUSH2 0x560 PUSH1 0x0 NOT DUP5 PUSH1 0x8 MUL PUSH2 0x542 JUMP JUMPDEST NOT DUP1 DUP4 AND SWAP2 POP POP SWAP3 SWAP2 POP POP JUMP JUMPDEST PUSH1 0x0 PUSH2 0x579 DUP4 DUP4 PUSH2 0x54F JUMP JUMPDEST SWAP2 POP DUP3 PUSH1 0x2 MUL DUP3 OR SWAP1 POP SWAP3 SWAP2 POP POP JUMP JUMPDEST PUSH2 0x592 DUP3 PUSH2 0x2EB JUMP JUMPDEST PUSH8 0xFFFFFFFFFFFFFFFF DUP2 GT ISZERO PUSH2 0x5AB JUMPI PUSH2 0x5AA PUSH2 0x148 JUMP JUMPDEST JUMPDEST PUSH2 0x5B5 DUP3 SLOAD PUSH2 0x3A2 JUMP JUMPDEST PUSH2 0x5C0 DUP3 DUP3 DUP6 PUSH2 0x4FC JUMP JUMPDEST PUSH1 0x0 PUSH1 0x20 SWAP1 POP PUSH1 0x1F DUP4 GT PUSH1 0x1 DUP2 EQ PUSH2 0x5F3 JUMPI PUSH1 0x0 DUP5 ISZERO PUSH2 0x5E1 JUMPI DUP3 DUP8 ADD MLOAD SWAP1 POP JUMPDEST PUSH2 0x5EB DUP6 DUP3 PUSH2 0x56D JUMP JUMPDEST DUP7 SSTORE POP PUSH2 0x653 JUMP JUMPDEST PUSH1 0x1F NOT DUP5 AND PUSH2 0x601 DUP7 PUSH2 0x3D3 JUMP JUMPDEST PUSH1 0x0 JUMPDEST DUP3 DUP2 LT ISZERO PUSH2 0x629 JUMPI DUP5 DUP10 ADD MLOAD DUP3 SSTORE PUSH1 0x1 DUP3 ADD SWAP2 POP PUSH1 0x20 DUP6 ADD SWAP5 POP PUSH1 0x20 DUP2 ADD SWAP1 POP PUSH2 0x604 JUMP JUMPDEST DUP7 DUP4 LT ISZERO PUSH2 0x646 JUMPI DUP5 DUP10 ADD MLOAD PUSH2 0x642 PUSH1 0x1F DUP10 AND DUP3 PUSH2 0x54F JUMP JUMPDEST DUP4 SSTORE POP JUMPDEST PUSH1 0x1 PUSH1 0x2 DUP9 MUL ADD DUP9 SSTORE POP POP POP JUMPDEST POP POP POP POP POP POP JUMP INVALID LOG2 PUSH5 0x6970667358 0x22 SLT KECCAK256 0xA7 CALLER ADDMOD 0xB6 AND SAR 0xB7 PUSH6 0xC7CF814315FF 0x4E 0xCD 0xF8 0xD5 DUP3 GASPRICE PUSH14 0xF6435EFB51EC38BA04BF1E64736F PUSH13 0x63430008120033000000000000 "
				},
				"gasEstimates": {
					"creation": {
						"codeDepositCost": "336200",
						"executionCost": "374",
						"totalCost": "336574"
					},
					"external": {
						"setUser(string,string)": "infinite"
					}
				},
				"methodIdentifiers": {
					"setUser(string,string)": "5728b973"
				}
			},
			"storageLayout": {
				"storage": [
					{
						"astId": 10,
						"contract": "contracts/99_test.sol:codingTest",
						"label": "UserData",
						"offset": 0,
						"slot": "0",
						"type": "t_array(t_struct(User)6_storage)dyn_storage"
					},
					{
						"astId": 14,
						"contract": "contracts/99_test.sol:codingTest",
						"label": "PasswordToByte",
						"offset": 0,
						"slot": "1",
						"type": "t_mapping(t_string_memory_ptr,t_bytes32)"
					}
				],
				"types": {
					"t_array(t_struct(User)6_storage)dyn_storage": {
						"base": "t_struct(User)6_storage",
						"encoding": "dynamic_array",
						"label": "struct codingTest.User[]",
						"numberOfBytes": "32"
					},
					"t_bytes32": {
						"encoding": "inplace",
						"label": "bytes32",
						"numberOfBytes": "32"
					},
					"t_mapping(t_string_memory_ptr,t_bytes32)": {
						"encoding": "mapping",
						"key": "t_string_memory_ptr",
						"label": "mapping(string => bytes32)",
						"numberOfBytes": "32",
						"value": "t_bytes32"
					},
					"t_string_memory_ptr": {
						"encoding": "bytes",
						"label": "string",
						"numberOfBytes": "32"
					},
					"t_string_storage": {
						"encoding": "bytes",
						"label": "string",
						"numberOfBytes": "32"
					},
					"t_struct(User)6_storage": {
						"encoding": "inplace",
						"label": "struct codingTest.User",
						"members": [
							{
								"astId": 3,
								"contract": "contracts/99_test.sol:codingTest",
								"label": "id",
								"offset": 0,
								"slot": "0",
								"type": "t_string_storage"
							},
							{
								"astId": 5,
								"contract": "contracts/99_test.sol:codingTest",
								"label": "password",
								"offset": 0,
								"slot": "1",
								"type": "t_bytes32"
							}
						],
						"numberOfBytes": "64"
					}
				}
			},
			"userdoc": {
				"kind": "user",
				"methods": {},
				"version": 1
			}
		}
	}
}