{
	"contracts/999_note.sol": {
		"Quiz1": {
			"abi": [
				{
					"inputs": [
						{
							"internalType": "uint256",
							"name": "a",
							"type": "uint256"
						},
						{
							"internalType": "uint256",
							"name": "b",
							"type": "uint256"
						}
					],
					"name": "Divide",
					"outputs": [
						{
							"internalType": "uint256",
							"name": "",
							"type": "uint256"
						}
					],
					"stateMutability": "pure",
					"type": "function"
				},
				{
					"inputs": [
						{
							"internalType": "uint256",
							"name": "a",
							"type": "uint256"
						},
						{
							"internalType": "uint256",
							"name": "b",
							"type": "uint256"
						}
					],
					"name": "Minus",
					"outputs": [
						{
							"internalType": "uint256",
							"name": "",
							"type": "uint256"
						}
					],
					"stateMutability": "pure",
					"type": "function"
				},
				{
					"inputs": [
						{
							"internalType": "uint256",
							"name": "a",
							"type": "uint256"
						},
						{
							"internalType": "uint256",
							"name": "b",
							"type": "uint256"
						}
					],
					"name": "Multiply",
					"outputs": [
						{
							"internalType": "uint256",
							"name": "",
							"type": "uint256"
						}
					],
					"stateMutability": "pure",
					"type": "function"
				},
				{
					"inputs": [
						{
							"internalType": "uint256",
							"name": "a",
							"type": "uint256"
						},
						{
							"internalType": "uint256",
							"name": "b",
							"type": "uint256"
						}
					],
					"name": "Plus",
					"outputs": [
						{
							"internalType": "uint256",
							"name": "",
							"type": "uint256"
						}
					],
					"stateMutability": "pure",
					"type": "function"
				},
				{
					"inputs": [
						{
							"internalType": "uint256",
							"name": "a",
							"type": "uint256"
						}
					],
					"name": "Square",
					"outputs": [
						{
							"internalType": "uint256",
							"name": "",
							"type": "uint256"
						}
					],
					"stateMutability": "pure",
					"type": "function"
				}
			],
			"devdoc": {
				"kind": "dev",
				"methods": {},
				"version": 1
			},
			"evm": {
				"assembly": "    /* \"contracts/999_note.sol\":61:652  contract Quiz1 {... */\n  mstore(0x40, 0x80)\n  callvalue\n  dup1\n  iszero\n  tag_1\n  jumpi\n  0x00\n  dup1\n  revert\ntag_1:\n  pop\n  dataSize(sub_0)\n  dup1\n  dataOffset(sub_0)\n  0x00\n  codecopy\n  0x00\n  return\nstop\n\nsub_0: assembly {\n        /* \"contracts/999_note.sol\":61:652  contract Quiz1 {... */\n      mstore(0x40, 0x80)\n      callvalue\n      dup1\n      iszero\n      tag_1\n      jumpi\n      0x00\n      dup1\n      revert\n    tag_1:\n      pop\n      jumpi(tag_2, lt(calldatasize, 0x04))\n      shr(0xe0, calldataload(0x00))\n      dup1\n      0x41b5039f\n      eq\n      tag_3\n      jumpi\n      dup1\n      0x6b259ffb\n      eq\n      tag_4\n      jumpi\n      dup1\n      0x752bece8\n      eq\n      tag_5\n      jumpi\n      dup1\n      0xb048546f\n      eq\n      tag_6\n      jumpi\n      dup1\n      0xf8eac151\n      eq\n      tag_7\n      jumpi\n    tag_2:\n      0x00\n      dup1\n      revert\n        /* \"contracts/999_note.sol\":569:649  function Square(uint a) public pure returns(uint) {... */\n    tag_3:\n      tag_8\n      0x04\n      dup1\n      calldatasize\n      sub\n      dup2\n      add\n      swap1\n      tag_9\n      swap2\n      swap1\n      tag_10\n      jump\t// in\n    tag_9:\n      tag_11\n      jump\t// in\n    tag_8:\n      mload(0x40)\n      tag_12\n      swap2\n      swap1\n      tag_13\n      jump\t// in\n    tag_12:\n      mload(0x40)\n      dup1\n      swap2\n      sub\n      swap1\n      return\n        /* \"contracts/999_note.sol\":190:275  function Plus(uint a, uint b) public pure returns(uint) {... */\n    tag_4:\n      tag_14\n      0x04\n      dup1\n      calldatasize\n      sub\n      dup2\n      add\n      swap1\n      tag_15\n      swap2\n      swap1\n      tag_16\n      jump\t// in\n    tag_15:\n      tag_17\n      jump\t// in\n    tag_14:\n      mload(0x40)\n      tag_18\n      swap2\n      swap1\n      tag_13\n      jump\t// in\n    tag_18:\n      mload(0x40)\n      dup1\n      swap2\n      sub\n      swap1\n      return\n        /* \"contracts/999_note.sol\":283:369  function Minus(uint a, uint b) public pure returns(uint) {... */\n    tag_5:\n      tag_19\n      0x04\n      dup1\n      calldatasize\n      sub\n      dup2\n      add\n      swap1\n      tag_20\n      swap2\n      swap1\n      tag_16\n      jump\t// in\n    tag_20:\n      tag_21\n      jump\t// in\n    tag_19:\n      mload(0x40)\n      tag_22\n      swap2\n      swap1\n      tag_13\n      jump\t// in\n    tag_22:\n      mload(0x40)\n      dup1\n      swap2\n      sub\n      swap1\n      return\n        /* \"contracts/999_note.sol\":474:561  function Divide(uint a, uint b) public pure returns(uint) {... */\n    tag_6:\n      tag_23\n      0x04\n      dup1\n      calldatasize\n      sub\n      dup2\n      add\n      swap1\n      tag_24\n      swap2\n      swap1\n      tag_16\n      jump\t// in\n    tag_24:\n      tag_25\n      jump\t// in\n    tag_23:\n      mload(0x40)\n      tag_26\n      swap2\n      swap1\n      tag_13\n      jump\t// in\n    tag_26:\n      mload(0x40)\n      dup1\n      swap2\n      sub\n      swap1\n      return\n        /* \"contracts/999_note.sol\":377:466  function Multiply(uint a, uint b) public pure returns(uint) {... */\n    tag_7:\n      tag_27\n      0x04\n      dup1\n      calldatasize\n      sub\n      dup2\n      add\n      swap1\n      tag_28\n      swap2\n      swap1\n      tag_16\n      jump\t// in\n    tag_28:\n      tag_29\n      jump\t// in\n    tag_27:\n      mload(0x40)\n      tag_30\n      swap2\n      swap1\n      tag_13\n      jump\t// in\n    tag_30:\n      mload(0x40)\n      dup1\n      swap2\n      sub\n      swap1\n      return\n        /* \"contracts/999_note.sol\":569:649  function Square(uint a) public pure returns(uint) {... */\n    tag_11:\n        /* \"contracts/999_note.sol\":613:617  uint */\n      0x00\n        /* \"contracts/999_note.sol\":640:641  2 */\n      0x02\n        /* \"contracts/999_note.sol\":637:638  a */\n      dup3\n        /* \"contracts/999_note.sol\":637:641  a**2 */\n      tag_32\n      swap2\n      swap1\n      tag_33\n      jump\t// in\n    tag_32:\n        /* \"contracts/999_note.sol\":630:641  return a**2 */\n      swap1\n      pop\n        /* \"contracts/999_note.sol\":569:649  function Square(uint a) public pure returns(uint) {... */\n      swap2\n      swap1\n      pop\n      jump\t// out\n        /* \"contracts/999_note.sol\":190:275  function Plus(uint a, uint b) public pure returns(uint) {... */\n    tag_17:\n        /* \"contracts/999_note.sol\":240:244  uint */\n      0x00\n        /* \"contracts/999_note.sol\":266:267  b */\n      dup2\n        /* \"contracts/999_note.sol\":264:265  a */\n      dup4\n        /* \"contracts/999_note.sol\":264:267  a+b */\n      tag_35\n      swap2\n      swap1\n      tag_36\n      jump\t// in\n    tag_35:\n        /* \"contracts/999_note.sol\":257:267  return a+b */\n      swap1\n      pop\n        /* \"contracts/999_note.sol\":190:275  function Plus(uint a, uint b) public pure returns(uint) {... */\n      swap3\n      swap2\n      pop\n      pop\n      jump\t// out\n        /* \"contracts/999_note.sol\":283:369  function Minus(uint a, uint b) public pure returns(uint) {... */\n    tag_21:\n        /* \"contracts/999_note.sol\":334:338  uint */\n      0x00\n        /* \"contracts/999_note.sol\":360:361  b */\n      dup2\n        /* \"contracts/999_note.sol\":358:359  a */\n      dup4\n        /* \"contracts/999_note.sol\":358:361  a-b */\n      tag_38\n      swap2\n      swap1\n      tag_39\n      jump\t// in\n    tag_38:\n        /* \"contracts/999_note.sol\":351:361  return a-b */\n      swap1\n      pop\n        /* \"contracts/999_note.sol\":283:369  function Minus(uint a, uint b) public pure returns(uint) {... */\n      swap3\n      swap2\n      pop\n      pop\n      jump\t// out\n        /* \"contracts/999_note.sol\":474:561  function Divide(uint a, uint b) public pure returns(uint) {... */\n    tag_25:\n        /* \"contracts/999_note.sol\":526:530  uint */\n      0x00\n        /* \"contracts/999_note.sol\":552:553  b */\n      dup2\n        /* \"contracts/999_note.sol\":550:551  a */\n      dup4\n        /* \"contracts/999_note.sol\":550:553  a/b */\n      tag_41\n      swap2\n      swap1\n      tag_42\n      jump\t// in\n    tag_41:\n        /* \"contracts/999_note.sol\":543:553  return a/b */\n      swap1\n      pop\n        /* \"contracts/999_note.sol\":474:561  function Divide(uint a, uint b) public pure returns(uint) {... */\n      swap3\n      swap2\n      pop\n      pop\n      jump\t// out\n        /* \"contracts/999_note.sol\":377:466  function Multiply(uint a, uint b) public pure returns(uint) {... */\n    tag_29:\n        /* \"contracts/999_note.sol\":431:435  uint */\n      0x00\n        /* \"contracts/999_note.sol\":457:458  b */\n      dup2\n        /* \"contracts/999_note.sol\":455:456  a */\n      dup4\n        /* \"contracts/999_note.sol\":455:458  a*b */\n      tag_44\n      swap2\n      swap1\n      tag_45\n      jump\t// in\n    tag_44:\n        /* \"contracts/999_note.sol\":448:458  return a*b */\n      swap1\n      pop\n        /* \"contracts/999_note.sol\":377:466  function Multiply(uint a, uint b) public pure returns(uint) {... */\n      swap3\n      swap2\n      pop\n      pop\n      jump\t// out\n        /* \"#utility.yul\":88:205   */\n    tag_47:\n        /* \"#utility.yul\":197:198   */\n      0x00\n        /* \"#utility.yul\":194:195   */\n      dup1\n        /* \"#utility.yul\":187:199   */\n      revert\n        /* \"#utility.yul\":334:411   */\n    tag_49:\n        /* \"#utility.yul\":371:378   */\n      0x00\n        /* \"#utility.yul\":400:405   */\n      dup2\n        /* \"#utility.yul\":389:405   */\n      swap1\n      pop\n        /* \"#utility.yul\":334:411   */\n      swap2\n      swap1\n      pop\n      jump\t// out\n        /* \"#utility.yul\":417:539   */\n    tag_50:\n        /* \"#utility.yul\":490:514   */\n      tag_65\n        /* \"#utility.yul\":508:513   */\n      dup2\n        /* \"#utility.yul\":490:514   */\n      tag_49\n      jump\t// in\n    tag_65:\n        /* \"#utility.yul\":483:488   */\n      dup2\n        /* \"#utility.yul\":480:515   */\n      eq\n        /* \"#utility.yul\":470:533   */\n      tag_66\n      jumpi\n        /* \"#utility.yul\":529:530   */\n      0x00\n        /* \"#utility.yul\":526:527   */\n      dup1\n        /* \"#utility.yul\":519:531   */\n      revert\n        /* \"#utility.yul\":470:533   */\n    tag_66:\n        /* \"#utility.yul\":417:539   */\n      pop\n      jump\t// out\n        /* \"#utility.yul\":545:684   */\n    tag_51:\n        /* \"#utility.yul\":591:596   */\n      0x00\n        /* \"#utility.yul\":629:635   */\n      dup2\n        /* \"#utility.yul\":616:636   */\n      calldataload\n        /* \"#utility.yul\":607:636   */\n      swap1\n      pop\n        /* \"#utility.yul\":645:678   */\n      tag_68\n        /* \"#utility.yul\":672:677   */\n      dup2\n        /* \"#utility.yul\":645:678   */\n      tag_50\n      jump\t// in\n    tag_68:\n        /* \"#utility.yul\":545:684   */\n      swap3\n      swap2\n      pop\n      pop\n      jump\t// out\n        /* \"#utility.yul\":690:1019   */\n    tag_10:\n        /* \"#utility.yul\":749:755   */\n      0x00\n        /* \"#utility.yul\":798:800   */\n      0x20\n        /* \"#utility.yul\":786:795   */\n      dup3\n        /* \"#utility.yul\":777:784   */\n      dup5\n        /* \"#utility.yul\":773:796   */\n      sub\n        /* \"#utility.yul\":769:801   */\n      slt\n        /* \"#utility.yul\":766:885   */\n      iszero\n      tag_70\n      jumpi\n        /* \"#utility.yul\":804:883   */\n      tag_71\n      tag_47\n      jump\t// in\n    tag_71:\n        /* \"#utility.yul\":766:885   */\n    tag_70:\n        /* \"#utility.yul\":924:925   */\n      0x00\n        /* \"#utility.yul\":949:1002   */\n      tag_72\n        /* \"#utility.yul\":994:1001   */\n      dup5\n        /* \"#utility.yul\":985:991   */\n      dup3\n        /* \"#utility.yul\":974:983   */\n      dup6\n        /* \"#utility.yul\":970:992   */\n      add\n        /* \"#utility.yul\":949:1002   */\n      tag_51\n      jump\t// in\n    tag_72:\n        /* \"#utility.yul\":939:1002   */\n      swap2\n      pop\n        /* \"#utility.yul\":895:1012   */\n      pop\n        /* \"#utility.yul\":690:1019   */\n      swap3\n      swap2\n      pop\n      pop\n      jump\t// out\n        /* \"#utility.yul\":1025:1143   */\n    tag_52:\n        /* \"#utility.yul\":1112:1136   */\n      tag_74\n        /* \"#utility.yul\":1130:1135   */\n      dup2\n        /* \"#utility.yul\":1112:1136   */\n      tag_49\n      jump\t// in\n    tag_74:\n        /* \"#utility.yul\":1107:1110   */\n      dup3\n        /* \"#utility.yul\":1100:1137   */\n      mstore\n        /* \"#utility.yul\":1025:1143   */\n      pop\n      pop\n      jump\t// out\n        /* \"#utility.yul\":1149:1371   */\n    tag_13:\n        /* \"#utility.yul\":1242:1246   */\n      0x00\n        /* \"#utility.yul\":1280:1282   */\n      0x20\n        /* \"#utility.yul\":1269:1278   */\n      dup3\n        /* \"#utility.yul\":1265:1283   */\n      add\n        /* \"#utility.yul\":1257:1283   */\n      swap1\n      pop\n        /* \"#utility.yul\":1293:1364   */\n      tag_76\n        /* \"#utility.yul\":1361:1362   */\n      0x00\n        /* \"#utility.yul\":1350:1359   */\n      dup4\n        /* \"#utility.yul\":1346:1363   */\n      add\n        /* \"#utility.yul\":1337:1343   */\n      dup5\n        /* \"#utility.yul\":1293:1364   */\n      tag_52\n      jump\t// in\n    tag_76:\n        /* \"#utility.yul\":1149:1371   */\n      swap3\n      swap2\n      pop\n      pop\n      jump\t// out\n        /* \"#utility.yul\":1377:1851   */\n    tag_16:\n        /* \"#utility.yul\":1445:1451   */\n      0x00\n        /* \"#utility.yul\":1453:1459   */\n      dup1\n        /* \"#utility.yul\":1502:1504   */\n      0x40\n        /* \"#utility.yul\":1490:1499   */\n      dup4\n        /* \"#utility.yul\":1481:1488   */\n      dup6\n        /* \"#utility.yul\":1477:1500   */\n      sub\n        /* \"#utility.yul\":1473:1505   */\n      slt\n        /* \"#utility.yul\":1470:1589   */\n      iszero\n      tag_78\n      jumpi\n        /* \"#utility.yul\":1508:1587   */\n      tag_79\n      tag_47\n      jump\t// in\n    tag_79:\n        /* \"#utility.yul\":1470:1589   */\n    tag_78:\n        /* \"#utility.yul\":1628:1629   */\n      0x00\n        /* \"#utility.yul\":1653:1706   */\n      tag_80\n        /* \"#utility.yul\":1698:1705   */\n      dup6\n        /* \"#utility.yul\":1689:1695   */\n      dup3\n        /* \"#utility.yul\":1678:1687   */\n      dup7\n        /* \"#utility.yul\":1674:1696   */\n      add\n        /* \"#utility.yul\":1653:1706   */\n      tag_51\n      jump\t// in\n    tag_80:\n        /* \"#utility.yul\":1643:1706   */\n      swap3\n      pop\n        /* \"#utility.yul\":1599:1716   */\n      pop\n        /* \"#utility.yul\":1755:1757   */\n      0x20\n        /* \"#utility.yul\":1781:1834   */\n      tag_81\n        /* \"#utility.yul\":1826:1833   */\n      dup6\n        /* \"#utility.yul\":1817:1823   */\n      dup3\n        /* \"#utility.yul\":1806:1815   */\n      dup7\n        /* \"#utility.yul\":1802:1824   */\n      add\n        /* \"#utility.yul\":1781:1834   */\n      tag_51\n      jump\t// in\n    tag_81:\n        /* \"#utility.yul\":1771:1834   */\n      swap2\n      pop\n        /* \"#utility.yul\":1726:1844   */\n      pop\n        /* \"#utility.yul\":1377:1851   */\n      swap3\n      pop\n      swap3\n      swap1\n      pop\n      jump\t// out\n        /* \"#utility.yul\":1857:2037   */\n    tag_53:\n        /* \"#utility.yul\":1905:1982   */\n      0x4e487b7100000000000000000000000000000000000000000000000000000000\n        /* \"#utility.yul\":1902:1903   */\n      0x00\n        /* \"#utility.yul\":1895:1983   */\n      mstore\n        /* \"#utility.yul\":2002:2006   */\n      0x11\n        /* \"#utility.yul\":1999:2000   */\n      0x04\n        /* \"#utility.yul\":1992:2007   */\n      mstore\n        /* \"#utility.yul\":2026:2030   */\n      0x24\n        /* \"#utility.yul\":2023:2024   */\n      0x00\n        /* \"#utility.yul\":2016:2031   */\n      revert\n        /* \"#utility.yul\":2043:2145   */\n    tag_54:\n        /* \"#utility.yul\":2085:2093   */\n      0x00\n        /* \"#utility.yul\":2132:2137   */\n      dup2\n        /* \"#utility.yul\":2129:2130   */\n      0x01\n        /* \"#utility.yul\":2125:2138   */\n      shr\n        /* \"#utility.yul\":2104:2138   */\n      swap1\n      pop\n        /* \"#utility.yul\":2043:2145   */\n      swap2\n      swap1\n      pop\n      jump\t// out\n        /* \"#utility.yul\":2151:2999   */\n    tag_55:\n        /* \"#utility.yul\":2212:2217   */\n      0x00\n        /* \"#utility.yul\":2219:2223   */\n      dup1\n        /* \"#utility.yul\":2243:2249   */\n      dup3\n        /* \"#utility.yul\":2234:2249   */\n      swap2\n      pop\n        /* \"#utility.yul\":2267:2272   */\n      dup4\n        /* \"#utility.yul\":2258:2272   */\n      swap1\n      pop\n        /* \"#utility.yul\":2281:2993   */\n    tag_85:\n        /* \"#utility.yul\":2302:2303   */\n      0x01\n        /* \"#utility.yul\":2292:2300   */\n      dup6\n        /* \"#utility.yul\":2289:2304   */\n      gt\n        /* \"#utility.yul\":2281:2993   */\n      iszero\n      tag_87\n      jumpi\n        /* \"#utility.yul\":2397:2401   */\n      dup1\n        /* \"#utility.yul\":2392:2395   */\n      dup7\n        /* \"#utility.yul\":2388:2402   */\n      div\n        /* \"#utility.yul\":2382:2386   */\n      dup2\n        /* \"#utility.yul\":2379:2403   */\n      gt\n        /* \"#utility.yul\":2376:2426   */\n      iszero\n      tag_88\n      jumpi\n        /* \"#utility.yul\":2406:2424   */\n      tag_89\n      tag_53\n      jump\t// in\n    tag_89:\n        /* \"#utility.yul\":2376:2426   */\n    tag_88:\n        /* \"#utility.yul\":2456:2457   */\n      0x01\n        /* \"#utility.yul\":2446:2454   */\n      dup6\n        /* \"#utility.yul\":2442:2458   */\n      and\n        /* \"#utility.yul\":2439:2890   */\n      iszero\n      tag_90\n      jumpi\n        /* \"#utility.yul\":2871:2875   */\n      dup1\n        /* \"#utility.yul\":2864:2869   */\n      dup3\n        /* \"#utility.yul\":2860:2876   */\n      mul\n        /* \"#utility.yul\":2851:2876   */\n      swap2\n      pop\n        /* \"#utility.yul\":2439:2890   */\n    tag_90:\n        /* \"#utility.yul\":2921:2925   */\n      dup1\n        /* \"#utility.yul\":2915:2919   */\n      dup2\n        /* \"#utility.yul\":2911:2926   */\n      mul\n        /* \"#utility.yul\":2903:2926   */\n      swap1\n      pop\n        /* \"#utility.yul\":2951:2983   */\n      tag_91\n        /* \"#utility.yul\":2974:2982   */\n      dup6\n        /* \"#utility.yul\":2951:2983   */\n      tag_54\n      jump\t// in\n    tag_91:\n        /* \"#utility.yul\":2939:2983   */\n      swap5\n      pop\n        /* \"#utility.yul\":2281:2993   */\n      jump(tag_85)\n    tag_87:\n        /* \"#utility.yul\":2151:2999   */\n      swap5\n      pop\n      swap5\n      swap3\n      pop\n      pop\n      pop\n      jump\t// out\n        /* \"#utility.yul\":3005:4078   */\n    tag_56:\n        /* \"#utility.yul\":3059:3064   */\n      0x00\n        /* \"#utility.yul\":3250:3258   */\n      dup3\n        /* \"#utility.yul\":3240:3280   */\n      tag_93\n      jumpi\n        /* \"#utility.yul\":3271:3272   */\n      0x01\n        /* \"#utility.yul\":3262:3272   */\n      swap1\n      pop\n        /* \"#utility.yul\":3273:3278   */\n      jump(tag_92)\n        /* \"#utility.yul\":3240:3280   */\n    tag_93:\n        /* \"#utility.yul\":3299:3303   */\n      dup2\n        /* \"#utility.yul\":3289:3325   */\n      tag_94\n      jumpi\n        /* \"#utility.yul\":3316:3317   */\n      0x00\n        /* \"#utility.yul\":3307:3317   */\n      swap1\n      pop\n        /* \"#utility.yul\":3318:3323   */\n      jump(tag_92)\n        /* \"#utility.yul\":3289:3325   */\n    tag_94:\n        /* \"#utility.yul\":3385:3389   */\n      dup2\n        /* \"#utility.yul\":3433:3434   */\n      0x01\n        /* \"#utility.yul\":3428:3455   */\n      dup2\n      eq\n      tag_96\n      jumpi\n        /* \"#utility.yul\":3469:3470   */\n      0x02\n        /* \"#utility.yul\":3464:3655   */\n      dup2\n      eq\n      tag_97\n      jumpi\n        /* \"#utility.yul\":3378:3655   */\n      jump(tag_95)\n        /* \"#utility.yul\":3428:3455   */\n    tag_96:\n        /* \"#utility.yul\":3446:3447   */\n      0x01\n        /* \"#utility.yul\":3437:3447   */\n      swap2\n      pop\n        /* \"#utility.yul\":3448:3453   */\n      pop\n      jump(tag_92)\n        /* \"#utility.yul\":3464:3655   */\n    tag_97:\n        /* \"#utility.yul\":3509:3512   */\n      0xff\n        /* \"#utility.yul\":3499:3507   */\n      dup5\n        /* \"#utility.yul\":3496:3513   */\n      gt\n        /* \"#utility.yul\":3493:3536   */\n      iszero\n      tag_98\n      jumpi\n        /* \"#utility.yul\":3516:3534   */\n      tag_99\n      tag_53\n      jump\t// in\n    tag_99:\n        /* \"#utility.yul\":3493:3536   */\n    tag_98:\n        /* \"#utility.yul\":3565:3573   */\n      dup4\n        /* \"#utility.yul\":3562:3563   */\n      0x02\n        /* \"#utility.yul\":3558:3574   */\n      exp\n        /* \"#utility.yul\":3549:3574   */\n      swap2\n      pop\n        /* \"#utility.yul\":3600:3603   */\n      dup5\n        /* \"#utility.yul\":3593:3598   */\n      dup3\n        /* \"#utility.yul\":3590:3604   */\n      gt\n        /* \"#utility.yul\":3587:3627   */\n      iszero\n      tag_100\n      jumpi\n        /* \"#utility.yul\":3607:3625   */\n      tag_101\n      tag_53\n      jump\t// in\n    tag_101:\n        /* \"#utility.yul\":3587:3627   */\n    tag_100:\n        /* \"#utility.yul\":3640:3645   */\n      pop\n      jump(tag_92)\n        /* \"#utility.yul\":3378:3655   */\n    tag_95:\n      pop\n        /* \"#utility.yul\":3764:3766   */\n      0x20\n        /* \"#utility.yul\":3754:3762   */\n      dup4\n        /* \"#utility.yul\":3751:3767   */\n      lt\n        /* \"#utility.yul\":3745:3748   */\n      0x0133\n        /* \"#utility.yul\":3739:3743   */\n      dup4\n        /* \"#utility.yul\":3736:3749   */\n      lt\n        /* \"#utility.yul\":3732:3768   */\n      and\n        /* \"#utility.yul\":3714:3716   */\n      0x4e\n        /* \"#utility.yul\":3704:3712   */\n      dup5\n        /* \"#utility.yul\":3701:3717   */\n      lt\n        /* \"#utility.yul\":3696:3698   */\n      0x0b\n        /* \"#utility.yul\":3690:3694   */\n      dup5\n        /* \"#utility.yul\":3687:3699   */\n      lt\n        /* \"#utility.yul\":3683:3718   */\n      and\n        /* \"#utility.yul\":3667:3778   */\n      or\n        /* \"#utility.yul\":3664:3910   */\n      iszero\n      tag_102\n      jumpi\n        /* \"#utility.yul\":3820:3828   */\n      dup3\n        /* \"#utility.yul\":3814:3818   */\n      dup3\n        /* \"#utility.yul\":3810:3829   */\n      exp\n        /* \"#utility.yul\":3801:3829   */\n      swap1\n      pop\n        /* \"#utility.yul\":3855:3858   */\n      dup4\n        /* \"#utility.yul\":3848:3853   */\n      dup2\n        /* \"#utility.yul\":3845:3859   */\n      gt\n        /* \"#utility.yul\":3842:3882   */\n      iszero\n      tag_103\n      jumpi\n        /* \"#utility.yul\":3862:3880   */\n      tag_104\n      tag_53\n      jump\t// in\n    tag_104:\n        /* \"#utility.yul\":3842:3882   */\n    tag_103:\n        /* \"#utility.yul\":3895:3900   */\n      jump(tag_92)\n        /* \"#utility.yul\":3664:3910   */\n    tag_102:\n        /* \"#utility.yul\":3935:3977   */\n      tag_105\n        /* \"#utility.yul\":3973:3976   */\n      dup5\n        /* \"#utility.yul\":3963:3971   */\n      dup5\n        /* \"#utility.yul\":3957:3961   */\n      dup5\n        /* \"#utility.yul\":3954:3955   */\n      0x01\n        /* \"#utility.yul\":3935:3977   */\n      tag_55\n      jump\t// in\n    tag_105:\n        /* \"#utility.yul\":3920:3977   */\n      swap3\n      pop\n      swap1\n      pop\n        /* \"#utility.yul\":4009:4013   */\n      dup2\n        /* \"#utility.yul\":4004:4007   */\n      dup5\n        /* \"#utility.yul\":4000:4014   */\n      div\n        /* \"#utility.yul\":3993:3998   */\n      dup2\n        /* \"#utility.yul\":3990:4015   */\n      gt\n        /* \"#utility.yul\":3987:4038   */\n      iszero\n      tag_106\n      jumpi\n        /* \"#utility.yul\":4018:4036   */\n      tag_107\n      tag_53\n      jump\t// in\n    tag_107:\n        /* \"#utility.yul\":3987:4038   */\n    tag_106:\n        /* \"#utility.yul\":4067:4071   */\n      dup2\n        /* \"#utility.yul\":4060:4065   */\n      dup2\n        /* \"#utility.yul\":4056:4072   */\n      mul\n        /* \"#utility.yul\":4047:4072   */\n      swap1\n      pop\n        /* \"#utility.yul\":3005:4078   */\n    tag_92:\n      swap4\n      swap3\n      pop\n      pop\n      pop\n      jump\t// out\n        /* \"#utility.yul\":4084:4170   */\n    tag_57:\n        /* \"#utility.yul\":4119:4126   */\n      0x00\n        /* \"#utility.yul\":4159:4163   */\n      0xff\n        /* \"#utility.yul\":4152:4157   */\n      dup3\n        /* \"#utility.yul\":4148:4164   */\n      and\n        /* \"#utility.yul\":4137:4164   */\n      swap1\n      pop\n        /* \"#utility.yul\":4084:4170   */\n      swap2\n      swap1\n      pop\n      jump\t// out\n        /* \"#utility.yul\":4176:4457   */\n    tag_33:\n        /* \"#utility.yul\":4234:4239   */\n      0x00\n        /* \"#utility.yul\":4258:4281   */\n      tag_110\n        /* \"#utility.yul\":4276:4280   */\n      dup3\n        /* \"#utility.yul\":4258:4281   */\n      tag_49\n      jump\t// in\n    tag_110:\n        /* \"#utility.yul\":4250:4281   */\n      swap2\n      pop\n        /* \"#utility.yul\":4302:4327   */\n      tag_111\n        /* \"#utility.yul\":4318:4326   */\n      dup4\n        /* \"#utility.yul\":4302:4327   */\n      tag_57\n      jump\t// in\n    tag_111:\n        /* \"#utility.yul\":4290:4327   */\n      swap3\n      pop\n        /* \"#utility.yul\":4346:4450   */\n      tag_112\n        /* \"#utility.yul\":4383:4449   */\n      0xffffffffffffffffffffffffffffffffffffffffffffffffffffffffffffffff\n        /* \"#utility.yul\":4373:4381   */\n      dup5\n        /* \"#utility.yul\":4367:4371   */\n      dup5\n        /* \"#utility.yul\":4346:4450   */\n      tag_56\n      jump\t// in\n    tag_112:\n        /* \"#utility.yul\":4337:4450   */\n      swap1\n      pop\n        /* \"#utility.yul\":4176:4457   */\n      swap3\n      swap2\n      pop\n      pop\n      jump\t// out\n        /* \"#utility.yul\":4463:4654   */\n    tag_36:\n        /* \"#utility.yul\":4503:4506   */\n      0x00\n        /* \"#utility.yul\":4522:4542   */\n      tag_114\n        /* \"#utility.yul\":4540:4541   */\n      dup3\n        /* \"#utility.yul\":4522:4542   */\n      tag_49\n      jump\t// in\n    tag_114:\n        /* \"#utility.yul\":4517:4542   */\n      swap2\n      pop\n        /* \"#utility.yul\":4556:4576   */\n      tag_115\n        /* \"#utility.yul\":4574:4575   */\n      dup4\n        /* \"#utility.yul\":4556:4576   */\n      tag_49\n      jump\t// in\n    tag_115:\n        /* \"#utility.yul\":4551:4576   */\n      swap3\n      pop\n        /* \"#utility.yul\":4599:4600   */\n      dup3\n        /* \"#utility.yul\":4596:4597   */\n      dup3\n        /* \"#utility.yul\":4592:4601   */\n      add\n        /* \"#utility.yul\":4585:4601   */\n      swap1\n      pop\n        /* \"#utility.yul\":4620:4623   */\n      dup1\n        /* \"#utility.yul\":4617:4618   */\n      dup3\n        /* \"#utility.yul\":4614:4624   */\n      gt\n        /* \"#utility.yul\":4611:4647   */\n      iszero\n      tag_116\n      jumpi\n        /* \"#utility.yul\":4627:4645   */\n      tag_117\n      tag_53\n      jump\t// in\n    tag_117:\n        /* \"#utility.yul\":4611:4647   */\n    tag_116:\n        /* \"#utility.yul\":4463:4654   */\n      swap3\n      swap2\n      pop\n      pop\n      jump\t// out\n        /* \"#utility.yul\":4660:4854   */\n    tag_39:\n        /* \"#utility.yul\":4700:4704   */\n      0x00\n        /* \"#utility.yul\":4720:4740   */\n      tag_119\n        /* \"#utility.yul\":4738:4739   */\n      dup3\n        /* \"#utility.yul\":4720:4740   */\n      tag_49\n      jump\t// in\n    tag_119:\n        /* \"#utility.yul\":4715:4740   */\n      swap2\n      pop\n        /* \"#utility.yul\":4754:4774   */\n      tag_120\n        /* \"#utility.yul\":4772:4773   */\n      dup4\n        /* \"#utility.yul\":4754:4774   */\n      tag_49\n      jump\t// in\n    tag_120:\n        /* \"#utility.yul\":4749:4774   */\n      swap3\n      pop\n        /* \"#utility.yul\":4798:4799   */\n      dup3\n        /* \"#utility.yul\":4795:4796   */\n      dup3\n        /* \"#utility.yul\":4791:4800   */\n      sub\n        /* \"#utility.yul\":4783:4800   */\n      swap1\n      pop\n        /* \"#utility.yul\":4822:4823   */\n      dup2\n        /* \"#utility.yul\":4816:4820   */\n      dup2\n        /* \"#utility.yul\":4813:4824   */\n      gt\n        /* \"#utility.yul\":4810:4847   */\n      iszero\n      tag_121\n      jumpi\n        /* \"#utility.yul\":4827:4845   */\n      tag_122\n      tag_53\n      jump\t// in\n    tag_122:\n        /* \"#utility.yul\":4810:4847   */\n    tag_121:\n        /* \"#utility.yul\":4660:4854   */\n      swap3\n      swap2\n      pop\n      pop\n      jump\t// out\n        /* \"#utility.yul\":4860:5040   */\n    tag_58:\n        /* \"#utility.yul\":4908:4985   */\n      0x4e487b7100000000000000000000000000000000000000000000000000000000\n        /* \"#utility.yul\":4905:4906   */\n      0x00\n        /* \"#utility.yul\":4898:4986   */\n      mstore\n        /* \"#utility.yul\":5005:5009   */\n      0x12\n        /* \"#utility.yul\":5002:5003   */\n      0x04\n        /* \"#utility.yul\":4995:5010   */\n      mstore\n        /* \"#utility.yul\":5029:5033   */\n      0x24\n        /* \"#utility.yul\":5026:5027   */\n      0x00\n        /* \"#utility.yul\":5019:5034   */\n      revert\n        /* \"#utility.yul\":5046:5231   */\n    tag_42:\n        /* \"#utility.yul\":5086:5087   */\n      0x00\n        /* \"#utility.yul\":5103:5123   */\n      tag_125\n        /* \"#utility.yul\":5121:5122   */\n      dup3\n        /* \"#utility.yul\":5103:5123   */\n      tag_49\n      jump\t// in\n    tag_125:\n        /* \"#utility.yul\":5098:5123   */\n      swap2\n      pop\n        /* \"#utility.yul\":5137:5157   */\n      tag_126\n        /* \"#utility.yul\":5155:5156   */\n      dup4\n        /* \"#utility.yul\":5137:5157   */\n      tag_49\n      jump\t// in\n    tag_126:\n        /* \"#utility.yul\":5132:5157   */\n      swap3\n      pop\n        /* \"#utility.yul\":5176:5177   */\n      dup3\n        /* \"#utility.yul\":5166:5201   */\n      tag_127\n      jumpi\n        /* \"#utility.yul\":5181:5199   */\n      tag_128\n      tag_58\n      jump\t// in\n    tag_128:\n        /* \"#utility.yul\":5166:5201   */\n    tag_127:\n        /* \"#utility.yul\":5223:5224   */\n      dup3\n        /* \"#utility.yul\":5220:5221   */\n      dup3\n        /* \"#utility.yul\":5216:5225   */\n      div\n        /* \"#utility.yul\":5211:5225   */\n      swap1\n      pop\n        /* \"#utility.yul\":5046:5231   */\n      swap3\n      swap2\n      pop\n      pop\n      jump\t// out\n        /* \"#utility.yul\":5237:5647   */\n    tag_45:\n        /* \"#utility.yul\":5277:5284   */\n      0x00\n        /* \"#utility.yul\":5300:5320   */\n      tag_130\n        /* \"#utility.yul\":5318:5319   */\n      dup3\n        /* \"#utility.yul\":5300:5320   */\n      tag_49\n      jump\t// in\n    tag_130:\n        /* \"#utility.yul\":5295:5320   */\n      swap2\n      pop\n        /* \"#utility.yul\":5334:5354   */\n      tag_131\n        /* \"#utility.yul\":5352:5353   */\n      dup4\n        /* \"#utility.yul\":5334:5354   */\n      tag_49\n      jump\t// in\n    tag_131:\n        /* \"#utility.yul\":5329:5354   */\n      swap3\n      pop\n        /* \"#utility.yul\":5389:5390   */\n      dup3\n        /* \"#utility.yul\":5386:5387   */\n      dup3\n        /* \"#utility.yul\":5382:5391   */\n      mul\n        /* \"#utility.yul\":5411:5441   */\n      tag_132\n        /* \"#utility.yul\":5429:5440   */\n      dup2\n        /* \"#utility.yul\":5411:5441   */\n      tag_49\n      jump\t// in\n    tag_132:\n        /* \"#utility.yul\":5400:5441   */\n      swap2\n      pop\n        /* \"#utility.yul\":5590:5591   */\n      dup3\n        /* \"#utility.yul\":5581:5588   */\n      dup3\n        /* \"#utility.yul\":5577:5592   */\n      div\n        /* \"#utility.yul\":5574:5575   */\n      dup5\n        /* \"#utility.yul\":5571:5593   */\n      eq\n        /* \"#utility.yul\":5551:5552   */\n      dup4\n        /* \"#utility.yul\":5544:5553   */\n      iszero\n        /* \"#utility.yul\":5524:5607   */\n      or\n        /* \"#utility.yul\":5501:5640   */\n      tag_133\n      jumpi\n        /* \"#utility.yul\":5620:5638   */\n      tag_134\n      tag_53\n      jump\t// in\n    tag_134:\n        /* \"#utility.yul\":5501:5640   */\n    tag_133:\n        /* \"#utility.yul\":5285:5647   */\n      pop\n        /* \"#utility.yul\":5237:5647   */\n      swap3\n      swap2\n      pop\n      pop\n      jump\t// out\n\n    auxdata: 0xa26469706673582212208cc4ca31849f5da6e024feabb0c751ee4a9d3b74189cdffaaf1eb2183344138864736f6c63430008120033\n}\n",
				"bytecode": {
					"linkReferences": {},
					"object": "608060405234801561001057600080fd5b50610586806100206000396000f3fe608060405234801561001057600080fd5b50600436106100575760003560e01c806341b5039f1461005c5780636b259ffb1461008c578063752bece8146100bc578063b048546f146100ec578063f8eac1511461011c575b600080fd5b610076600480360381019061007191906101f5565b61014c565b6040516100839190610231565b60405180910390f35b6100a660048036038101906100a1919061024c565b610162565b6040516100b39190610231565b60405180910390f35b6100d660048036038101906100d1919061024c565b610178565b6040516100e39190610231565b60405180910390f35b6101066004803603810190610101919061024c565b61018e565b6040516101139190610231565b60405180910390f35b6101366004803603810190610131919061024c565b6101a4565b6040516101439190610231565b60405180910390f35b600060028261015b91906103fb565b9050919050565b600081836101709190610446565b905092915050565b60008183610186919061047a565b905092915050565b6000818361019c91906104dd565b905092915050565b600081836101b2919061050e565b905092915050565b600080fd5b6000819050919050565b6101d2816101bf565b81146101dd57600080fd5b50565b6000813590506101ef816101c9565b92915050565b60006020828403121561020b5761020a6101ba565b5b6000610219848285016101e0565b91505092915050565b61022b816101bf565b82525050565b60006020820190506102466000830184610222565b92915050565b60008060408385031215610263576102626101ba565b5b6000610271858286016101e0565b9250506020610282858286016101e0565b9150509250929050565b7f4e487b7100000000000000000000000000000000000000000000000000000000600052601160045260246000fd5b60008160011c9050919050565b6000808291508390505b6001851115610312578086048111156102ee576102ed61028c565b5b60018516156102fd5780820291505b808102905061030b856102bb565b94506102d2565b94509492505050565b60008261032b57600190506103e7565b8161033957600090506103e7565b816001811461034f576002811461035957610388565b60019150506103e7565b60ff84111561036b5761036a61028c565b5b8360020a9150848211156103825761038161028c565b5b506103e7565b5060208310610133831016604e8410600b84101617156103bd5782820a9050838111156103b8576103b761028c565b5b6103e7565b6103ca84848460016102c8565b925090508184048111156103e1576103e061028c565b5b81810290505b9392505050565b600060ff82169050919050565b6000610406826101bf565b9150610411836103ee565b925061043e7fffffffffffffffffffffffffffffffffffffffffffffffffffffffffffffffff848461031b565b905092915050565b6000610451826101bf565b915061045c836101bf565b92508282019050808211156104745761047361028c565b5b92915050565b6000610485826101bf565b9150610490836101bf565b92508282039050818111156104a8576104a761028c565b5b92915050565b7f4e487b7100000000000000000000000000000000000000000000000000000000600052601260045260246000fd5b60006104e8826101bf565b91506104f3836101bf565b925082610503576105026104ae565b5b828204905092915050565b6000610519826101bf565b9150610524836101bf565b9250828202610532816101bf565b915082820484148315176105495761054861028c565b5b509291505056fea26469706673582212208cc4ca31849f5da6e024feabb0c751ee4a9d3b74189cdffaaf1eb2183344138864736f6c63430008120033",
					"opcodes": "PUSH1 0x80 PUSH1 0x40 MSTORE CALLVALUE DUP1 ISZERO PUSH2 0x10 JUMPI PUSH1 0x0 DUP1 REVERT JUMPDEST POP PUSH2 0x586 DUP1 PUSH2 0x20 PUSH1 0x0 CODECOPY PUSH1 0x0 RETURN INVALID PUSH1 0x80 PUSH1 0x40 MSTORE CALLVALUE DUP1 ISZERO PUSH2 0x10 JUMPI PUSH1 0x0 DUP1 REVERT JUMPDEST POP PUSH1 0x4 CALLDATASIZE LT PUSH2 0x57 JUMPI PUSH1 0x0 CALLDATALOAD PUSH1 0xE0 SHR DUP1 PUSH4 0x41B5039F EQ PUSH2 0x5C JUMPI DUP1 PUSH4 0x6B259FFB EQ PUSH2 0x8C JUMPI DUP1 PUSH4 0x752BECE8 EQ PUSH2 0xBC JUMPI DUP1 PUSH4 0xB048546F EQ PUSH2 0xEC JUMPI DUP1 PUSH4 0xF8EAC151 EQ PUSH2 0x11C JUMPI JUMPDEST PUSH1 0x0 DUP1 REVERT JUMPDEST PUSH2 0x76 PUSH1 0x4 DUP1 CALLDATASIZE SUB DUP2 ADD SWAP1 PUSH2 0x71 SWAP2 SWAP1 PUSH2 0x1F5 JUMP JUMPDEST PUSH2 0x14C JUMP JUMPDEST PUSH1 0x40 MLOAD PUSH2 0x83 SWAP2 SWAP1 PUSH2 0x231 JUMP JUMPDEST PUSH1 0x40 MLOAD DUP1 SWAP2 SUB SWAP1 RETURN JUMPDEST PUSH2 0xA6 PUSH1 0x4 DUP1 CALLDATASIZE SUB DUP2 ADD SWAP1 PUSH2 0xA1 SWAP2 SWAP1 PUSH2 0x24C JUMP JUMPDEST PUSH2 0x162 JUMP JUMPDEST PUSH1 0x40 MLOAD PUSH2 0xB3 SWAP2 SWAP1 PUSH2 0x231 JUMP JUMPDEST PUSH1 0x40 MLOAD DUP1 SWAP2 SUB SWAP1 RETURN JUMPDEST PUSH2 0xD6 PUSH1 0x4 DUP1 CALLDATASIZE SUB DUP2 ADD SWAP1 PUSH2 0xD1 SWAP2 SWAP1 PUSH2 0x24C JUMP JUMPDEST PUSH2 0x178 JUMP JUMPDEST PUSH1 0x40 MLOAD PUSH2 0xE3 SWAP2 SWAP1 PUSH2 0x231 JUMP JUMPDEST PUSH1 0x40 MLOAD DUP1 SWAP2 SUB SWAP1 RETURN JUMPDEST PUSH2 0x106 PUSH1 0x4 DUP1 CALLDATASIZE SUB DUP2 ADD SWAP1 PUSH2 0x101 SWAP2 SWAP1 PUSH2 0x24C JUMP JUMPDEST PUSH2 0x18E JUMP JUMPDEST PUSH1 0x40 MLOAD PUSH2 0x113 SWAP2 SWAP1 PUSH2 0x231 JUMP JUMPDEST PUSH1 0x40 MLOAD DUP1 SWAP2 SUB SWAP1 RETURN JUMPDEST PUSH2 0x136 PUSH1 0x4 DUP1 CALLDATASIZE SUB DUP2 ADD SWAP1 PUSH2 0x131 SWAP2 SWAP1 PUSH2 0x24C JUMP JUMPDEST PUSH2 0x1A4 JUMP JUMPDEST PUSH1 0x40 MLOAD PUSH2 0x143 SWAP2 SWAP1 PUSH2 0x231 JUMP JUMPDEST PUSH1 0x40 MLOAD DUP1 SWAP2 SUB SWAP1 RETURN JUMPDEST PUSH1 0x0 PUSH1 0x2 DUP3 PUSH2 0x15B SWAP2 SWAP1 PUSH2 0x3FB JUMP JUMPDEST SWAP1 POP SWAP2 SWAP1 POP JUMP JUMPDEST PUSH1 0x0 DUP2 DUP4 PUSH2 0x170 SWAP2 SWAP1 PUSH2 0x446 JUMP JUMPDEST SWAP1 POP SWAP3 SWAP2 POP POP JUMP JUMPDEST PUSH1 0x0 DUP2 DUP4 PUSH2 0x186 SWAP2 SWAP1 PUSH2 0x47A JUMP JUMPDEST SWAP1 POP SWAP3 SWAP2 POP POP JUMP JUMPDEST PUSH1 0x0 DUP2 DUP4 PUSH2 0x19C SWAP2 SWAP1 PUSH2 0x4DD JUMP JUMPDEST SWAP1 POP SWAP3 SWAP2 POP POP JUMP JUMPDEST PUSH1 0x0 DUP2 DUP4 PUSH2 0x1B2 SWAP2 SWAP1 PUSH2 0x50E JUMP JUMPDEST SWAP1 POP SWAP3 SWAP2 POP POP JUMP JUMPDEST PUSH1 0x0 DUP1 REVERT JUMPDEST PUSH1 0x0 DUP2 SWAP1 POP SWAP2 SWAP1 POP JUMP JUMPDEST PUSH2 0x1D2 DUP2 PUSH2 0x1BF JUMP JUMPDEST DUP2 EQ PUSH2 0x1DD JUMPI PUSH1 0x0 DUP1 REVERT JUMPDEST POP JUMP JUMPDEST PUSH1 0x0 DUP2 CALLDATALOAD SWAP1 POP PUSH2 0x1EF DUP2 PUSH2 0x1C9 JUMP JUMPDEST SWAP3 SWAP2 POP POP JUMP JUMPDEST PUSH1 0x0 PUSH1 0x20 DUP3 DUP5 SUB SLT ISZERO PUSH2 0x20B JUMPI PUSH2 0x20A PUSH2 0x1BA JUMP JUMPDEST JUMPDEST PUSH1 0x0 PUSH2 0x219 DUP5 DUP3 DUP6 ADD PUSH2 0x1E0 JUMP JUMPDEST SWAP2 POP POP SWAP3 SWAP2 POP POP JUMP JUMPDEST PUSH2 0x22B DUP2 PUSH2 0x1BF JUMP JUMPDEST DUP3 MSTORE POP POP JUMP JUMPDEST PUSH1 0x0 PUSH1 0x20 DUP3 ADD SWAP1 POP PUSH2 0x246 PUSH1 0x0 DUP4 ADD DUP5 PUSH2 0x222 JUMP JUMPDEST SWAP3 SWAP2 POP POP JUMP JUMPDEST PUSH1 0x0 DUP1 PUSH1 0x40 DUP4 DUP6 SUB SLT ISZERO PUSH2 0x263 JUMPI PUSH2 0x262 PUSH2 0x1BA JUMP JUMPDEST JUMPDEST PUSH1 0x0 PUSH2 0x271 DUP6 DUP3 DUP7 ADD PUSH2 0x1E0 JUMP JUMPDEST SWAP3 POP POP PUSH1 0x20 PUSH2 0x282 DUP6 DUP3 DUP7 ADD PUSH2 0x1E0 JUMP JUMPDEST SWAP2 POP POP SWAP3 POP SWAP3 SWAP1 POP JUMP JUMPDEST PUSH32 0x4E487B7100000000000000000000000000000000000000000000000000000000 PUSH1 0x0 MSTORE PUSH1 0x11 PUSH1 0x4 MSTORE PUSH1 0x24 PUSH1 0x0 REVERT JUMPDEST PUSH1 0x0 DUP2 PUSH1 0x1 SHR SWAP1 POP SWAP2 SWAP1 POP JUMP JUMPDEST PUSH1 0x0 DUP1 DUP3 SWAP2 POP DUP4 SWAP1 POP JUMPDEST PUSH1 0x1 DUP6 GT ISZERO PUSH2 0x312 JUMPI DUP1 DUP7 DIV DUP2 GT ISZERO PUSH2 0x2EE JUMPI PUSH2 0x2ED PUSH2 0x28C JUMP JUMPDEST JUMPDEST PUSH1 0x1 DUP6 AND ISZERO PUSH2 0x2FD JUMPI DUP1 DUP3 MUL SWAP2 POP JUMPDEST DUP1 DUP2 MUL SWAP1 POP PUSH2 0x30B DUP6 PUSH2 0x2BB JUMP JUMPDEST SWAP5 POP PUSH2 0x2D2 JUMP JUMPDEST SWAP5 POP SWAP5 SWAP3 POP POP POP JUMP JUMPDEST PUSH1 0x0 DUP3 PUSH2 0x32B JUMPI PUSH1 0x1 SWAP1 POP PUSH2 0x3E7 JUMP JUMPDEST DUP2 PUSH2 0x339 JUMPI PUSH1 0x0 SWAP1 POP PUSH2 0x3E7 JUMP JUMPDEST DUP2 PUSH1 0x1 DUP2 EQ PUSH2 0x34F JUMPI PUSH1 0x2 DUP2 EQ PUSH2 0x359 JUMPI PUSH2 0x388 JUMP JUMPDEST PUSH1 0x1 SWAP2 POP POP PUSH2 0x3E7 JUMP JUMPDEST PUSH1 0xFF DUP5 GT ISZERO PUSH2 0x36B JUMPI PUSH2 0x36A PUSH2 0x28C JUMP JUMPDEST JUMPDEST DUP4 PUSH1 0x2 EXP SWAP2 POP DUP5 DUP3 GT ISZERO PUSH2 0x382 JUMPI PUSH2 0x381 PUSH2 0x28C JUMP JUMPDEST JUMPDEST POP PUSH2 0x3E7 JUMP JUMPDEST POP PUSH1 0x20 DUP4 LT PUSH2 0x133 DUP4 LT AND PUSH1 0x4E DUP5 LT PUSH1 0xB DUP5 LT AND OR ISZERO PUSH2 0x3BD JUMPI DUP3 DUP3 EXP SWAP1 POP DUP4 DUP2 GT ISZERO PUSH2 0x3B8 JUMPI PUSH2 0x3B7 PUSH2 0x28C JUMP JUMPDEST JUMPDEST PUSH2 0x3E7 JUMP JUMPDEST PUSH2 0x3CA DUP5 DUP5 DUP5 PUSH1 0x1 PUSH2 0x2C8 JUMP JUMPDEST SWAP3 POP SWAP1 POP DUP2 DUP5 DIV DUP2 GT ISZERO PUSH2 0x3E1 JUMPI PUSH2 0x3E0 PUSH2 0x28C JUMP JUMPDEST JUMPDEST DUP2 DUP2 MUL SWAP1 POP JUMPDEST SWAP4 SWAP3 POP POP POP JUMP JUMPDEST PUSH1 0x0 PUSH1 0xFF DUP3 AND SWAP1 POP SWAP2 SWAP1 POP JUMP JUMPDEST PUSH1 0x0 PUSH2 0x406 DUP3 PUSH2 0x1BF JUMP JUMPDEST SWAP2 POP PUSH2 0x411 DUP4 PUSH2 0x3EE JUMP JUMPDEST SWAP3 POP PUSH2 0x43E PUSH32 0xFFFFFFFFFFFFFFFFFFFFFFFFFFFFFFFFFFFFFFFFFFFFFFFFFFFFFFFFFFFFFFFF DUP5 DUP5 PUSH2 0x31B JUMP JUMPDEST SWAP1 POP SWAP3 SWAP2 POP POP JUMP JUMPDEST PUSH1 0x0 PUSH2 0x451 DUP3 PUSH2 0x1BF JUMP JUMPDEST SWAP2 POP PUSH2 0x45C DUP4 PUSH2 0x1BF JUMP JUMPDEST SWAP3 POP DUP3 DUP3 ADD SWAP1 POP DUP1 DUP3 GT ISZERO PUSH2 0x474 JUMPI PUSH2 0x473 PUSH2 0x28C JUMP JUMPDEST JUMPDEST SWAP3 SWAP2 POP POP JUMP JUMPDEST PUSH1 0x0 PUSH2 0x485 DUP3 PUSH2 0x1BF JUMP JUMPDEST SWAP2 POP PUSH2 0x490 DUP4 PUSH2 0x1BF JUMP JUMPDEST SWAP3 POP DUP3 DUP3 SUB SWAP1 POP DUP2 DUP2 GT ISZERO PUSH2 0x4A8 JUMPI PUSH2 0x4A7 PUSH2 0x28C JUMP JUMPDEST JUMPDEST SWAP3 SWAP2 POP POP JUMP JUMPDEST PUSH32 0x4E487B7100000000000000000000000000000000000000000000000000000000 PUSH1 0x0 MSTORE PUSH1 0x12 PUSH1 0x4 MSTORE PUSH1 0x24 PUSH1 0x0 REVERT JUMPDEST PUSH1 0x0 PUSH2 0x4E8 DUP3 PUSH2 0x1BF JUMP JUMPDEST SWAP2 POP PUSH2 0x4F3 DUP4 PUSH2 0x1BF JUMP JUMPDEST SWAP3 POP DUP3 PUSH2 0x503 JUMPI PUSH2 0x502 PUSH2 0x4AE JUMP JUMPDEST JUMPDEST DUP3 DUP3 DIV SWAP1 POP SWAP3 SWAP2 POP POP JUMP JUMPDEST PUSH1 0x0 PUSH2 0x519 DUP3 PUSH2 0x1BF JUMP JUMPDEST SWAP2 POP PUSH2 0x524 DUP4 PUSH2 0x1BF JUMP JUMPDEST SWAP3 POP DUP3 DUP3 MUL PUSH2 0x532 DUP2 PUSH2 0x1BF JUMP JUMPDEST SWAP2 POP DUP3 DUP3 DIV DUP5 EQ DUP4 ISZERO OR PUSH2 0x549 JUMPI PUSH2 0x548 PUSH2 0x28C JUMP JUMPDEST JUMPDEST POP SWAP3 SWAP2 POP POP JUMP INVALID LOG2 PUSH5 0x6970667358 0x22 SLT KECCAK256 DUP13 0xC4 0xCA BALANCE DUP5 SWAP16 0x5D 0xA6 0xE0 0x24 INVALID 0xAB 0xB0 0xC7 MLOAD 0xEE 0x4A SWAP14 EXTCODESIZE PUSH21 0x189CDFFAAF1EB2183344138864736F6C6343000812 STOP CALLER "
				},
				"gasEstimates": {
					"creation": {
						"codeDepositCost": "282800",
						"executionCost": "324",
						"totalCost": "283124"
					},
					"external": {
						"Divide(uint256,uint256)": "infinite",
						"Minus(uint256,uint256)": "infinite",
						"Multiply(uint256,uint256)": "infinite",
						"Plus(uint256,uint256)": "infinite",
						"Square(uint256)": "infinite"
					}
				},
				"methodIdentifiers": {
					"Divide(uint256,uint256)": "b048546f",
					"Minus(uint256,uint256)": "752bece8",
					"Multiply(uint256,uint256)": "f8eac151",
					"Plus(uint256,uint256)": "6b259ffb",
					"Square(uint256)": "41b5039f"
				}
			},
			"storageLayout": {
				"storage": [],
				"types": null
			},
			"userdoc": {
				"kind": "user",
				"methods": {},
				"version": 1
			}
		}
	}
}