{
	"contracts/999_note.sol": {
		"Quiz2": {
			"abi": [
				{
					"inputs": [
						{
							"internalType": "uint256",
							"name": "a",
							"type": "uint256"
						},
						{
							"internalType": "uint256",
							"name": "b",
							"type": "uint256"
						}
					],
					"name": "Divide",
					"outputs": [
						{
							"internalType": "uint256",
							"name": "",
							"type": "uint256"
						},
						{
							"internalType": "uint256",
							"name": "",
							"type": "uint256"
						}
					],
					"stateMutability": "pure",
					"type": "function"
				},
				{
					"inputs": [
						{
							"internalType": "uint256",
							"name": "a",
							"type": "uint256"
						},
						{
							"internalType": "uint256",
							"name": "b",
							"type": "uint256"
						}
					],
					"name": "Minus",
					"outputs": [
						{
							"internalType": "uint256",
							"name": "",
							"type": "uint256"
						}
					],
					"stateMutability": "pure",
					"type": "function"
				},
				{
					"inputs": [
						{
							"internalType": "uint256",
							"name": "a",
							"type": "uint256"
						},
						{
							"internalType": "uint256",
							"name": "b",
							"type": "uint256"
						}
					],
					"name": "Multiply",
					"outputs": [
						{
							"internalType": "uint256",
							"name": "",
							"type": "uint256"
						}
					],
					"stateMutability": "pure",
					"type": "function"
				},
				{
					"inputs": [
						{
							"internalType": "uint256",
							"name": "a",
							"type": "uint256"
						},
						{
							"internalType": "uint256",
							"name": "b",
							"type": "uint256"
						}
					],
					"name": "Plus",
					"outputs": [
						{
							"internalType": "uint256",
							"name": "",
							"type": "uint256"
						}
					],
					"stateMutability": "pure",
					"type": "function"
				}
			],
			"devdoc": {
				"kind": "dev",
				"methods": {},
				"version": 1
			},
			"evm": {
				"assembly": "    /* \"contracts/999_note.sol\":656:1251  contract Quiz2 {... */\n  mstore(0x40, 0x80)\n  callvalue\n  dup1\n  iszero\n  tag_1\n  jumpi\n  0x00\n  dup1\n  revert\ntag_1:\n  pop\n  dataSize(sub_0)\n  dup1\n  dataOffset(sub_0)\n  0x00\n  codecopy\n  0x00\n  return\nstop\n\nsub_0: assembly {\n        /* \"contracts/999_note.sol\":656:1251  contract Quiz2 {... */\n      mstore(0x40, 0x80)\n      callvalue\n      dup1\n      iszero\n      tag_1\n      jumpi\n      0x00\n      dup1\n      revert\n    tag_1:\n      pop\n      jumpi(tag_2, lt(calldatasize, 0x04))\n      shr(0xe0, calldataload(0x00))\n      dup1\n      0x6b259ffb\n      eq\n      tag_3\n      jumpi\n      dup1\n      0x752bece8\n      eq\n      tag_4\n      jumpi\n      dup1\n      0xb048546f\n      eq\n      tag_5\n      jumpi\n      dup1\n      0xf8eac151\n      eq\n      tag_6\n      jumpi\n    tag_2:\n      0x00\n      dup1\n      revert\n        /* \"contracts/999_note.sol\":864:949  function Plus(uint a, uint b) public pure returns(uint) {... */\n    tag_3:\n      tag_7\n      0x04\n      dup1\n      calldatasize\n      sub\n      dup2\n      add\n      swap1\n      tag_8\n      swap2\n      swap1\n      tag_9\n      jump\t// in\n    tag_8:\n      tag_10\n      jump\t// in\n    tag_7:\n      mload(0x40)\n      tag_11\n      swap2\n      swap1\n      tag_12\n      jump\t// in\n    tag_11:\n      mload(0x40)\n      dup1\n      swap2\n      sub\n      swap1\n      return\n        /* \"contracts/999_note.sol\":957:1043  function Minus(uint a, uint b) public pure returns(uint) {... */\n    tag_4:\n      tag_13\n      0x04\n      dup1\n      calldatasize\n      sub\n      dup2\n      add\n      swap1\n      tag_14\n      swap2\n      swap1\n      tag_9\n      jump\t// in\n    tag_14:\n      tag_15\n      jump\t// in\n    tag_13:\n      mload(0x40)\n      tag_16\n      swap2\n      swap1\n      tag_12\n      jump\t// in\n    tag_16:\n      mload(0x40)\n      dup1\n      swap2\n      sub\n      swap1\n      return\n        /* \"contracts/999_note.sol\":1148:1248  function Divide(uint a, uint b) public pure returns(uint, uint) {... */\n    tag_5:\n      tag_17\n      0x04\n      dup1\n      calldatasize\n      sub\n      dup2\n      add\n      swap1\n      tag_18\n      swap2\n      swap1\n      tag_9\n      jump\t// in\n    tag_18:\n      tag_19\n      jump\t// in\n    tag_17:\n      mload(0x40)\n      tag_20\n      swap3\n      swap2\n      swap1\n      tag_21\n      jump\t// in\n    tag_20:\n      mload(0x40)\n      dup1\n      swap2\n      sub\n      swap1\n      return\n        /* \"contracts/999_note.sol\":1051:1140  function Multiply(uint a, uint b) public pure returns(uint) {... */\n    tag_6:\n      tag_22\n      0x04\n      dup1\n      calldatasize\n      sub\n      dup2\n      add\n      swap1\n      tag_23\n      swap2\n      swap1\n      tag_9\n      jump\t// in\n    tag_23:\n      tag_24\n      jump\t// in\n    tag_22:\n      mload(0x40)\n      tag_25\n      swap2\n      swap1\n      tag_12\n      jump\t// in\n    tag_25:\n      mload(0x40)\n      dup1\n      swap2\n      sub\n      swap1\n      return\n        /* \"contracts/999_note.sol\":864:949  function Plus(uint a, uint b) public pure returns(uint) {... */\n    tag_10:\n        /* \"contracts/999_note.sol\":914:918  uint */\n      0x00\n        /* \"contracts/999_note.sol\":940:941  b */\n      dup2\n        /* \"contracts/999_note.sol\":938:939  a */\n      dup4\n        /* \"contracts/999_note.sol\":938:941  a+b */\n      tag_27\n      swap2\n      swap1\n      tag_28\n      jump\t// in\n    tag_27:\n        /* \"contracts/999_note.sol\":931:941  return a+b */\n      swap1\n      pop\n        /* \"contracts/999_note.sol\":864:949  function Plus(uint a, uint b) public pure returns(uint) {... */\n      swap3\n      swap2\n      pop\n      pop\n      jump\t// out\n        /* \"contracts/999_note.sol\":957:1043  function Minus(uint a, uint b) public pure returns(uint) {... */\n    tag_15:\n        /* \"contracts/999_note.sol\":1008:1012  uint */\n      0x00\n        /* \"contracts/999_note.sol\":1034:1035  b */\n      dup2\n        /* \"contracts/999_note.sol\":1032:1033  a */\n      dup4\n        /* \"contracts/999_note.sol\":1032:1035  a-b */\n      tag_30\n      swap2\n      swap1\n      tag_31\n      jump\t// in\n    tag_30:\n        /* \"contracts/999_note.sol\":1025:1035  return a-b */\n      swap1\n      pop\n        /* \"contracts/999_note.sol\":957:1043  function Minus(uint a, uint b) public pure returns(uint) {... */\n      swap3\n      swap2\n      pop\n      pop\n      jump\t// out\n        /* \"contracts/999_note.sol\":1148:1248  function Divide(uint a, uint b) public pure returns(uint, uint) {... */\n    tag_19:\n        /* \"contracts/999_note.sol\":1200:1204  uint */\n      0x00\n        /* \"contracts/999_note.sol\":1206:1210  uint */\n      dup1\n        /* \"contracts/999_note.sol\":1233:1234  b */\n      dup3\n        /* \"contracts/999_note.sol\":1231:1232  a */\n      dup5\n        /* \"contracts/999_note.sol\":1231:1234  a/b */\n      tag_33\n      swap2\n      swap1\n      tag_34\n      jump\t// in\n    tag_33:\n        /* \"contracts/999_note.sol\":1238:1239  b */\n      dup4\n        /* \"contracts/999_note.sol\":1236:1237  a */\n      dup6\n        /* \"contracts/999_note.sol\":1236:1239  a%b */\n      tag_35\n      swap2\n      swap1\n      tag_36\n      jump\t// in\n    tag_35:\n        /* \"contracts/999_note.sol\":1223:1240  return (a/b, a%b) */\n      swap2\n      pop\n      swap2\n      pop\n        /* \"contracts/999_note.sol\":1148:1248  function Divide(uint a, uint b) public pure returns(uint, uint) {... */\n      swap3\n      pop\n      swap3\n      swap1\n      pop\n      jump\t// out\n        /* \"contracts/999_note.sol\":1051:1140  function Multiply(uint a, uint b) public pure returns(uint) {... */\n    tag_24:\n        /* \"contracts/999_note.sol\":1105:1109  uint */\n      0x00\n        /* \"contracts/999_note.sol\":1131:1132  b */\n      dup2\n        /* \"contracts/999_note.sol\":1129:1130  a */\n      dup4\n        /* \"contracts/999_note.sol\":1129:1132  a*b */\n      tag_38\n      swap2\n      swap1\n      tag_39\n      jump\t// in\n    tag_38:\n        /* \"contracts/999_note.sol\":1122:1132  return a*b */\n      swap1\n      pop\n        /* \"contracts/999_note.sol\":1051:1140  function Multiply(uint a, uint b) public pure returns(uint) {... */\n      swap3\n      swap2\n      pop\n      pop\n      jump\t// out\n        /* \"#utility.yul\":88:205   */\n    tag_41:\n        /* \"#utility.yul\":197:198   */\n      0x00\n        /* \"#utility.yul\":194:195   */\n      dup1\n        /* \"#utility.yul\":187:199   */\n      revert\n        /* \"#utility.yul\":334:411   */\n    tag_43:\n        /* \"#utility.yul\":371:378   */\n      0x00\n        /* \"#utility.yul\":400:405   */\n      dup2\n        /* \"#utility.yul\":389:405   */\n      swap1\n      pop\n        /* \"#utility.yul\":334:411   */\n      swap2\n      swap1\n      pop\n      jump\t// out\n        /* \"#utility.yul\":417:539   */\n    tag_44:\n        /* \"#utility.yul\":490:514   */\n      tag_55\n        /* \"#utility.yul\":508:513   */\n      dup2\n        /* \"#utility.yul\":490:514   */\n      tag_43\n      jump\t// in\n    tag_55:\n        /* \"#utility.yul\":483:488   */\n      dup2\n        /* \"#utility.yul\":480:515   */\n      eq\n        /* \"#utility.yul\":470:533   */\n      tag_56\n      jumpi\n        /* \"#utility.yul\":529:530   */\n      0x00\n        /* \"#utility.yul\":526:527   */\n      dup1\n        /* \"#utility.yul\":519:531   */\n      revert\n        /* \"#utility.yul\":470:533   */\n    tag_56:\n        /* \"#utility.yul\":417:539   */\n      pop\n      jump\t// out\n        /* \"#utility.yul\":545:684   */\n    tag_45:\n        /* \"#utility.yul\":591:596   */\n      0x00\n        /* \"#utility.yul\":629:635   */\n      dup2\n        /* \"#utility.yul\":616:636   */\n      calldataload\n        /* \"#utility.yul\":607:636   */\n      swap1\n      pop\n        /* \"#utility.yul\":645:678   */\n      tag_58\n        /* \"#utility.yul\":672:677   */\n      dup2\n        /* \"#utility.yul\":645:678   */\n      tag_44\n      jump\t// in\n    tag_58:\n        /* \"#utility.yul\":545:684   */\n      swap3\n      swap2\n      pop\n      pop\n      jump\t// out\n        /* \"#utility.yul\":690:1164   */\n    tag_9:\n        /* \"#utility.yul\":758:764   */\n      0x00\n        /* \"#utility.yul\":766:772   */\n      dup1\n        /* \"#utility.yul\":815:817   */\n      0x40\n        /* \"#utility.yul\":803:812   */\n      dup4\n        /* \"#utility.yul\":794:801   */\n      dup6\n        /* \"#utility.yul\":790:813   */\n      sub\n        /* \"#utility.yul\":786:818   */\n      slt\n        /* \"#utility.yul\":783:902   */\n      iszero\n      tag_60\n      jumpi\n        /* \"#utility.yul\":821:900   */\n      tag_61\n      tag_41\n      jump\t// in\n    tag_61:\n        /* \"#utility.yul\":783:902   */\n    tag_60:\n        /* \"#utility.yul\":941:942   */\n      0x00\n        /* \"#utility.yul\":966:1019   */\n      tag_62\n        /* \"#utility.yul\":1011:1018   */\n      dup6\n        /* \"#utility.yul\":1002:1008   */\n      dup3\n        /* \"#utility.yul\":991:1000   */\n      dup7\n        /* \"#utility.yul\":987:1009   */\n      add\n        /* \"#utility.yul\":966:1019   */\n      tag_45\n      jump\t// in\n    tag_62:\n        /* \"#utility.yul\":956:1019   */\n      swap3\n      pop\n        /* \"#utility.yul\":912:1029   */\n      pop\n        /* \"#utility.yul\":1068:1070   */\n      0x20\n        /* \"#utility.yul\":1094:1147   */\n      tag_63\n        /* \"#utility.yul\":1139:1146   */\n      dup6\n        /* \"#utility.yul\":1130:1136   */\n      dup3\n        /* \"#utility.yul\":1119:1128   */\n      dup7\n        /* \"#utility.yul\":1115:1137   */\n      add\n        /* \"#utility.yul\":1094:1147   */\n      tag_45\n      jump\t// in\n    tag_63:\n        /* \"#utility.yul\":1084:1147   */\n      swap2\n      pop\n        /* \"#utility.yul\":1039:1157   */\n      pop\n        /* \"#utility.yul\":690:1164   */\n      swap3\n      pop\n      swap3\n      swap1\n      pop\n      jump\t// out\n        /* \"#utility.yul\":1170:1288   */\n    tag_46:\n        /* \"#utility.yul\":1257:1281   */\n      tag_65\n        /* \"#utility.yul\":1275:1280   */\n      dup2\n        /* \"#utility.yul\":1257:1281   */\n      tag_43\n      jump\t// in\n    tag_65:\n        /* \"#utility.yul\":1252:1255   */\n      dup3\n        /* \"#utility.yul\":1245:1282   */\n      mstore\n        /* \"#utility.yul\":1170:1288   */\n      pop\n      pop\n      jump\t// out\n        /* \"#utility.yul\":1294:1516   */\n    tag_12:\n        /* \"#utility.yul\":1387:1391   */\n      0x00\n        /* \"#utility.yul\":1425:1427   */\n      0x20\n        /* \"#utility.yul\":1414:1423   */\n      dup3\n        /* \"#utility.yul\":1410:1428   */\n      add\n        /* \"#utility.yul\":1402:1428   */\n      swap1\n      pop\n        /* \"#utility.yul\":1438:1509   */\n      tag_67\n        /* \"#utility.yul\":1506:1507   */\n      0x00\n        /* \"#utility.yul\":1495:1504   */\n      dup4\n        /* \"#utility.yul\":1491:1508   */\n      add\n        /* \"#utility.yul\":1482:1488   */\n      dup5\n        /* \"#utility.yul\":1438:1509   */\n      tag_46\n      jump\t// in\n    tag_67:\n        /* \"#utility.yul\":1294:1516   */\n      swap3\n      swap2\n      pop\n      pop\n      jump\t// out\n        /* \"#utility.yul\":1522:1854   */\n    tag_21:\n        /* \"#utility.yul\":1643:1647   */\n      0x00\n        /* \"#utility.yul\":1681:1683   */\n      0x40\n        /* \"#utility.yul\":1670:1679   */\n      dup3\n        /* \"#utility.yul\":1666:1684   */\n      add\n        /* \"#utility.yul\":1658:1684   */\n      swap1\n      pop\n        /* \"#utility.yul\":1694:1765   */\n      tag_69\n        /* \"#utility.yul\":1762:1763   */\n      0x00\n        /* \"#utility.yul\":1751:1760   */\n      dup4\n        /* \"#utility.yul\":1747:1764   */\n      add\n        /* \"#utility.yul\":1738:1744   */\n      dup6\n        /* \"#utility.yul\":1694:1765   */\n      tag_46\n      jump\t// in\n    tag_69:\n        /* \"#utility.yul\":1775:1847   */\n      tag_70\n        /* \"#utility.yul\":1843:1845   */\n      0x20\n        /* \"#utility.yul\":1832:1841   */\n      dup4\n        /* \"#utility.yul\":1828:1846   */\n      add\n        /* \"#utility.yul\":1819:1825   */\n      dup5\n        /* \"#utility.yul\":1775:1847   */\n      tag_46\n      jump\t// in\n    tag_70:\n        /* \"#utility.yul\":1522:1854   */\n      swap4\n      swap3\n      pop\n      pop\n      pop\n      jump\t// out\n        /* \"#utility.yul\":1860:2040   */\n    tag_47:\n        /* \"#utility.yul\":1908:1985   */\n      0x4e487b7100000000000000000000000000000000000000000000000000000000\n        /* \"#utility.yul\":1905:1906   */\n      0x00\n        /* \"#utility.yul\":1898:1986   */\n      mstore\n        /* \"#utility.yul\":2005:2009   */\n      0x11\n        /* \"#utility.yul\":2002:2003   */\n      0x04\n        /* \"#utility.yul\":1995:2010   */\n      mstore\n        /* \"#utility.yul\":2029:2033   */\n      0x24\n        /* \"#utility.yul\":2026:2027   */\n      0x00\n        /* \"#utility.yul\":2019:2034   */\n      revert\n        /* \"#utility.yul\":2046:2237   */\n    tag_28:\n        /* \"#utility.yul\":2086:2089   */\n      0x00\n        /* \"#utility.yul\":2105:2125   */\n      tag_73\n        /* \"#utility.yul\":2123:2124   */\n      dup3\n        /* \"#utility.yul\":2105:2125   */\n      tag_43\n      jump\t// in\n    tag_73:\n        /* \"#utility.yul\":2100:2125   */\n      swap2\n      pop\n        /* \"#utility.yul\":2139:2159   */\n      tag_74\n        /* \"#utility.yul\":2157:2158   */\n      dup4\n        /* \"#utility.yul\":2139:2159   */\n      tag_43\n      jump\t// in\n    tag_74:\n        /* \"#utility.yul\":2134:2159   */\n      swap3\n      pop\n        /* \"#utility.yul\":2182:2183   */\n      dup3\n        /* \"#utility.yul\":2179:2180   */\n      dup3\n        /* \"#utility.yul\":2175:2184   */\n      add\n        /* \"#utility.yul\":2168:2184   */\n      swap1\n      pop\n        /* \"#utility.yul\":2203:2206   */\n      dup1\n        /* \"#utility.yul\":2200:2201   */\n      dup3\n        /* \"#utility.yul\":2197:2207   */\n      gt\n        /* \"#utility.yul\":2194:2230   */\n      iszero\n      tag_75\n      jumpi\n        /* \"#utility.yul\":2210:2228   */\n      tag_76\n      tag_47\n      jump\t// in\n    tag_76:\n        /* \"#utility.yul\":2194:2230   */\n    tag_75:\n        /* \"#utility.yul\":2046:2237   */\n      swap3\n      swap2\n      pop\n      pop\n      jump\t// out\n        /* \"#utility.yul\":2243:2437   */\n    tag_31:\n        /* \"#utility.yul\":2283:2287   */\n      0x00\n        /* \"#utility.yul\":2303:2323   */\n      tag_78\n        /* \"#utility.yul\":2321:2322   */\n      dup3\n        /* \"#utility.yul\":2303:2323   */\n      tag_43\n      jump\t// in\n    tag_78:\n        /* \"#utility.yul\":2298:2323   */\n      swap2\n      pop\n        /* \"#utility.yul\":2337:2357   */\n      tag_79\n        /* \"#utility.yul\":2355:2356   */\n      dup4\n        /* \"#utility.yul\":2337:2357   */\n      tag_43\n      jump\t// in\n    tag_79:\n        /* \"#utility.yul\":2332:2357   */\n      swap3\n      pop\n        /* \"#utility.yul\":2381:2382   */\n      dup3\n        /* \"#utility.yul\":2378:2379   */\n      dup3\n        /* \"#utility.yul\":2374:2383   */\n      sub\n        /* \"#utility.yul\":2366:2383   */\n      swap1\n      pop\n        /* \"#utility.yul\":2405:2406   */\n      dup2\n        /* \"#utility.yul\":2399:2403   */\n      dup2\n        /* \"#utility.yul\":2396:2407   */\n      gt\n        /* \"#utility.yul\":2393:2430   */\n      iszero\n      tag_80\n      jumpi\n        /* \"#utility.yul\":2410:2428   */\n      tag_81\n      tag_47\n      jump\t// in\n    tag_81:\n        /* \"#utility.yul\":2393:2430   */\n    tag_80:\n        /* \"#utility.yul\":2243:2437   */\n      swap3\n      swap2\n      pop\n      pop\n      jump\t// out\n        /* \"#utility.yul\":2443:2623   */\n    tag_48:\n        /* \"#utility.yul\":2491:2568   */\n      0x4e487b7100000000000000000000000000000000000000000000000000000000\n        /* \"#utility.yul\":2488:2489   */\n      0x00\n        /* \"#utility.yul\":2481:2569   */\n      mstore\n        /* \"#utility.yul\":2588:2592   */\n      0x12\n        /* \"#utility.yul\":2585:2586   */\n      0x04\n        /* \"#utility.yul\":2578:2593   */\n      mstore\n        /* \"#utility.yul\":2612:2616   */\n      0x24\n        /* \"#utility.yul\":2609:2610   */\n      0x00\n        /* \"#utility.yul\":2602:2617   */\n      revert\n        /* \"#utility.yul\":2629:2814   */\n    tag_34:\n        /* \"#utility.yul\":2669:2670   */\n      0x00\n        /* \"#utility.yul\":2686:2706   */\n      tag_84\n        /* \"#utility.yul\":2704:2705   */\n      dup3\n        /* \"#utility.yul\":2686:2706   */\n      tag_43\n      jump\t// in\n    tag_84:\n        /* \"#utility.yul\":2681:2706   */\n      swap2\n      pop\n        /* \"#utility.yul\":2720:2740   */\n      tag_85\n        /* \"#utility.yul\":2738:2739   */\n      dup4\n        /* \"#utility.yul\":2720:2740   */\n      tag_43\n      jump\t// in\n    tag_85:\n        /* \"#utility.yul\":2715:2740   */\n      swap3\n      pop\n        /* \"#utility.yul\":2759:2760   */\n      dup3\n        /* \"#utility.yul\":2749:2784   */\n      tag_86\n      jumpi\n        /* \"#utility.yul\":2764:2782   */\n      tag_87\n      tag_48\n      jump\t// in\n    tag_87:\n        /* \"#utility.yul\":2749:2784   */\n    tag_86:\n        /* \"#utility.yul\":2806:2807   */\n      dup3\n        /* \"#utility.yul\":2803:2804   */\n      dup3\n        /* \"#utility.yul\":2799:2808   */\n      div\n        /* \"#utility.yul\":2794:2808   */\n      swap1\n      pop\n        /* \"#utility.yul\":2629:2814   */\n      swap3\n      swap2\n      pop\n      pop\n      jump\t// out\n        /* \"#utility.yul\":2820:2996   */\n    tag_36:\n        /* \"#utility.yul\":2852:2853   */\n      0x00\n        /* \"#utility.yul\":2869:2889   */\n      tag_89\n        /* \"#utility.yul\":2887:2888   */\n      dup3\n        /* \"#utility.yul\":2869:2889   */\n      tag_43\n      jump\t// in\n    tag_89:\n        /* \"#utility.yul\":2864:2889   */\n      swap2\n      pop\n        /* \"#utility.yul\":2903:2923   */\n      tag_90\n        /* \"#utility.yul\":2921:2922   */\n      dup4\n        /* \"#utility.yul\":2903:2923   */\n      tag_43\n      jump\t// in\n    tag_90:\n        /* \"#utility.yul\":2898:2923   */\n      swap3\n      pop\n        /* \"#utility.yul\":2942:2943   */\n      dup3\n        /* \"#utility.yul\":2932:2967   */\n      tag_91\n      jumpi\n        /* \"#utility.yul\":2947:2965   */\n      tag_92\n      tag_48\n      jump\t// in\n    tag_92:\n        /* \"#utility.yul\":2932:2967   */\n    tag_91:\n        /* \"#utility.yul\":2988:2989   */\n      dup3\n        /* \"#utility.yul\":2985:2986   */\n      dup3\n        /* \"#utility.yul\":2981:2990   */\n      mod\n        /* \"#utility.yul\":2976:2990   */\n      swap1\n      pop\n        /* \"#utility.yul\":2820:2996   */\n      swap3\n      swap2\n      pop\n      pop\n      jump\t// out\n        /* \"#utility.yul\":3002:3412   */\n    tag_39:\n        /* \"#utility.yul\":3042:3049   */\n      0x00\n        /* \"#utility.yul\":3065:3085   */\n      tag_94\n        /* \"#utility.yul\":3083:3084   */\n      dup3\n        /* \"#utility.yul\":3065:3085   */\n      tag_43\n      jump\t// in\n    tag_94:\n        /* \"#utility.yul\":3060:3085   */\n      swap2\n      pop\n        /* \"#utility.yul\":3099:3119   */\n      tag_95\n        /* \"#utility.yul\":3117:3118   */\n      dup4\n        /* \"#utility.yul\":3099:3119   */\n      tag_43\n      jump\t// in\n    tag_95:\n        /* \"#utility.yul\":3094:3119   */\n      swap3\n      pop\n        /* \"#utility.yul\":3154:3155   */\n      dup3\n        /* \"#utility.yul\":3151:3152   */\n      dup3\n        /* \"#utility.yul\":3147:3156   */\n      mul\n        /* \"#utility.yul\":3176:3206   */\n      tag_96\n        /* \"#utility.yul\":3194:3205   */\n      dup2\n        /* \"#utility.yul\":3176:3206   */\n      tag_43\n      jump\t// in\n    tag_96:\n        /* \"#utility.yul\":3165:3206   */\n      swap2\n      pop\n        /* \"#utility.yul\":3355:3356   */\n      dup3\n        /* \"#utility.yul\":3346:3353   */\n      dup3\n        /* \"#utility.yul\":3342:3357   */\n      div\n        /* \"#utility.yul\":3339:3340   */\n      dup5\n        /* \"#utility.yul\":3336:3358   */\n      eq\n        /* \"#utility.yul\":3316:3317   */\n      dup4\n        /* \"#utility.yul\":3309:3318   */\n      iszero\n        /* \"#utility.yul\":3289:3372   */\n      or\n        /* \"#utility.yul\":3266:3405   */\n      tag_97\n      jumpi\n        /* \"#utility.yul\":3385:3403   */\n      tag_98\n      tag_47\n      jump\t// in\n    tag_98:\n        /* \"#utility.yul\":3266:3405   */\n    tag_97:\n        /* \"#utility.yul\":3050:3412   */\n      pop\n        /* \"#utility.yul\":3002:3412   */\n      swap3\n      swap2\n      pop\n      pop\n      jump\t// out\n\n    auxdata: 0xa2646970667358221220b4c5fcbfcdc7a57c37088b00c14f8f5938dcb0814596ec129c7eb16f0553f83064736f6c63430008120033\n}\n",
				"bytecode": {
					"linkReferences": {},
					"object": "608060405234801561001057600080fd5b506103e8806100206000396000f3fe608060405234801561001057600080fd5b506004361061004c5760003560e01c80636b259ffb14610051578063752bece814610081578063b048546f146100b1578063f8eac151146100e2575b600080fd5b61006b600480360381019061006691906101b5565b610112565b6040516100789190610204565b60405180910390f35b61009b600480360381019061009691906101b5565b610128565b6040516100a89190610204565b60405180910390f35b6100cb60048036038101906100c691906101b5565b61013e565b6040516100d992919061021f565b60405180910390f35b6100fc60048036038101906100f791906101b5565b610164565b6040516101099190610204565b60405180910390f35b600081836101209190610277565b905092915050565b6000818361013691906102ab565b905092915050565b600080828461014d919061030e565b8385610159919061033f565b915091509250929050565b600081836101729190610370565b905092915050565b600080fd5b6000819050919050565b6101928161017f565b811461019d57600080fd5b50565b6000813590506101af81610189565b92915050565b600080604083850312156101cc576101cb61017a565b5b60006101da858286016101a0565b92505060206101eb858286016101a0565b9150509250929050565b6101fe8161017f565b82525050565b600060208201905061021960008301846101f5565b92915050565b600060408201905061023460008301856101f5565b61024160208301846101f5565b9392505050565b7f4e487b7100000000000000000000000000000000000000000000000000000000600052601160045260246000fd5b60006102828261017f565b915061028d8361017f565b92508282019050808211156102a5576102a4610248565b5b92915050565b60006102b68261017f565b91506102c18361017f565b92508282039050818111156102d9576102d8610248565b5b92915050565b7f4e487b7100000000000000000000000000000000000000000000000000000000600052601260045260246000fd5b60006103198261017f565b91506103248361017f565b925082610334576103336102df565b5b828204905092915050565b600061034a8261017f565b91506103558361017f565b925082610365576103646102df565b5b828206905092915050565b600061037b8261017f565b91506103868361017f565b92508282026103948161017f565b915082820484148315176103ab576103aa610248565b5b509291505056fea2646970667358221220b4c5fcbfcdc7a57c37088b00c14f8f5938dcb0814596ec129c7eb16f0553f83064736f6c63430008120033",
					"opcodes": "PUSH1 0x80 PUSH1 0x40 MSTORE CALLVALUE DUP1 ISZERO PUSH2 0x10 JUMPI PUSH1 0x0 DUP1 REVERT JUMPDEST POP PUSH2 0x3E8 DUP1 PUSH2 0x20 PUSH1 0x0 CODECOPY PUSH1 0x0 RETURN INVALID PUSH1 0x80 PUSH1 0x40 MSTORE CALLVALUE DUP1 ISZERO PUSH2 0x10 JUMPI PUSH1 0x0 DUP1 REVERT JUMPDEST POP PUSH1 0x4 CALLDATASIZE LT PUSH2 0x4C JUMPI PUSH1 0x0 CALLDATALOAD PUSH1 0xE0 SHR DUP1 PUSH4 0x6B259FFB EQ PUSH2 0x51 JUMPI DUP1 PUSH4 0x752BECE8 EQ PUSH2 0x81 JUMPI DUP1 PUSH4 0xB048546F EQ PUSH2 0xB1 JUMPI DUP1 PUSH4 0xF8EAC151 EQ PUSH2 0xE2 JUMPI JUMPDEST PUSH1 0x0 DUP1 REVERT JUMPDEST PUSH2 0x6B PUSH1 0x4 DUP1 CALLDATASIZE SUB DUP2 ADD SWAP1 PUSH2 0x66 SWAP2 SWAP1 PUSH2 0x1B5 JUMP JUMPDEST PUSH2 0x112 JUMP JUMPDEST PUSH1 0x40 MLOAD PUSH2 0x78 SWAP2 SWAP1 PUSH2 0x204 JUMP JUMPDEST PUSH1 0x40 MLOAD DUP1 SWAP2 SUB SWAP1 RETURN JUMPDEST PUSH2 0x9B PUSH1 0x4 DUP1 CALLDATASIZE SUB DUP2 ADD SWAP1 PUSH2 0x96 SWAP2 SWAP1 PUSH2 0x1B5 JUMP JUMPDEST PUSH2 0x128 JUMP JUMPDEST PUSH1 0x40 MLOAD PUSH2 0xA8 SWAP2 SWAP1 PUSH2 0x204 JUMP JUMPDEST PUSH1 0x40 MLOAD DUP1 SWAP2 SUB SWAP1 RETURN JUMPDEST PUSH2 0xCB PUSH1 0x4 DUP1 CALLDATASIZE SUB DUP2 ADD SWAP1 PUSH2 0xC6 SWAP2 SWAP1 PUSH2 0x1B5 JUMP JUMPDEST PUSH2 0x13E JUMP JUMPDEST PUSH1 0x40 MLOAD PUSH2 0xD9 SWAP3 SWAP2 SWAP1 PUSH2 0x21F JUMP JUMPDEST PUSH1 0x40 MLOAD DUP1 SWAP2 SUB SWAP1 RETURN JUMPDEST PUSH2 0xFC PUSH1 0x4 DUP1 CALLDATASIZE SUB DUP2 ADD SWAP1 PUSH2 0xF7 SWAP2 SWAP1 PUSH2 0x1B5 JUMP JUMPDEST PUSH2 0x164 JUMP JUMPDEST PUSH1 0x40 MLOAD PUSH2 0x109 SWAP2 SWAP1 PUSH2 0x204 JUMP JUMPDEST PUSH1 0x40 MLOAD DUP1 SWAP2 SUB SWAP1 RETURN JUMPDEST PUSH1 0x0 DUP2 DUP4 PUSH2 0x120 SWAP2 SWAP1 PUSH2 0x277 JUMP JUMPDEST SWAP1 POP SWAP3 SWAP2 POP POP JUMP JUMPDEST PUSH1 0x0 DUP2 DUP4 PUSH2 0x136 SWAP2 SWAP1 PUSH2 0x2AB JUMP JUMPDEST SWAP1 POP SWAP3 SWAP2 POP POP JUMP JUMPDEST PUSH1 0x0 DUP1 DUP3 DUP5 PUSH2 0x14D SWAP2 SWAP1 PUSH2 0x30E JUMP JUMPDEST DUP4 DUP6 PUSH2 0x159 SWAP2 SWAP1 PUSH2 0x33F JUMP JUMPDEST SWAP2 POP SWAP2 POP SWAP3 POP SWAP3 SWAP1 POP JUMP JUMPDEST PUSH1 0x0 DUP2 DUP4 PUSH2 0x172 SWAP2 SWAP1 PUSH2 0x370 JUMP JUMPDEST SWAP1 POP SWAP3 SWAP2 POP POP JUMP JUMPDEST PUSH1 0x0 DUP1 REVERT JUMPDEST PUSH1 0x0 DUP2 SWAP1 POP SWAP2 SWAP1 POP JUMP JUMPDEST PUSH2 0x192 DUP2 PUSH2 0x17F JUMP JUMPDEST DUP2 EQ PUSH2 0x19D JUMPI PUSH1 0x0 DUP1 REVERT JUMPDEST POP JUMP JUMPDEST PUSH1 0x0 DUP2 CALLDATALOAD SWAP1 POP PUSH2 0x1AF DUP2 PUSH2 0x189 JUMP JUMPDEST SWAP3 SWAP2 POP POP JUMP JUMPDEST PUSH1 0x0 DUP1 PUSH1 0x40 DUP4 DUP6 SUB SLT ISZERO PUSH2 0x1CC JUMPI PUSH2 0x1CB PUSH2 0x17A JUMP JUMPDEST JUMPDEST PUSH1 0x0 PUSH2 0x1DA DUP6 DUP3 DUP7 ADD PUSH2 0x1A0 JUMP JUMPDEST SWAP3 POP POP PUSH1 0x20 PUSH2 0x1EB DUP6 DUP3 DUP7 ADD PUSH2 0x1A0 JUMP JUMPDEST SWAP2 POP POP SWAP3 POP SWAP3 SWAP1 POP JUMP JUMPDEST PUSH2 0x1FE DUP2 PUSH2 0x17F JUMP JUMPDEST DUP3 MSTORE POP POP JUMP JUMPDEST PUSH1 0x0 PUSH1 0x20 DUP3 ADD SWAP1 POP PUSH2 0x219 PUSH1 0x0 DUP4 ADD DUP5 PUSH2 0x1F5 JUMP JUMPDEST SWAP3 SWAP2 POP POP JUMP JUMPDEST PUSH1 0x0 PUSH1 0x40 DUP3 ADD SWAP1 POP PUSH2 0x234 PUSH1 0x0 DUP4 ADD DUP6 PUSH2 0x1F5 JUMP JUMPDEST PUSH2 0x241 PUSH1 0x20 DUP4 ADD DUP5 PUSH2 0x1F5 JUMP JUMPDEST SWAP4 SWAP3 POP POP POP JUMP JUMPDEST PUSH32 0x4E487B7100000000000000000000000000000000000000000000000000000000 PUSH1 0x0 MSTORE PUSH1 0x11 PUSH1 0x4 MSTORE PUSH1 0x24 PUSH1 0x0 REVERT JUMPDEST PUSH1 0x0 PUSH2 0x282 DUP3 PUSH2 0x17F JUMP JUMPDEST SWAP2 POP PUSH2 0x28D DUP4 PUSH2 0x17F JUMP JUMPDEST SWAP3 POP DUP3 DUP3 ADD SWAP1 POP DUP1 DUP3 GT ISZERO PUSH2 0x2A5 JUMPI PUSH2 0x2A4 PUSH2 0x248 JUMP JUMPDEST JUMPDEST SWAP3 SWAP2 POP POP JUMP JUMPDEST PUSH1 0x0 PUSH2 0x2B6 DUP3 PUSH2 0x17F JUMP JUMPDEST SWAP2 POP PUSH2 0x2C1 DUP4 PUSH2 0x17F JUMP JUMPDEST SWAP3 POP DUP3 DUP3 SUB SWAP1 POP DUP2 DUP2 GT ISZERO PUSH2 0x2D9 JUMPI PUSH2 0x2D8 PUSH2 0x248 JUMP JUMPDEST JUMPDEST SWAP3 SWAP2 POP POP JUMP JUMPDEST PUSH32 0x4E487B7100000000000000000000000000000000000000000000000000000000 PUSH1 0x0 MSTORE PUSH1 0x12 PUSH1 0x4 MSTORE PUSH1 0x24 PUSH1 0x0 REVERT JUMPDEST PUSH1 0x0 PUSH2 0x319 DUP3 PUSH2 0x17F JUMP JUMPDEST SWAP2 POP PUSH2 0x324 DUP4 PUSH2 0x17F JUMP JUMPDEST SWAP3 POP DUP3 PUSH2 0x334 JUMPI PUSH2 0x333 PUSH2 0x2DF JUMP JUMPDEST JUMPDEST DUP3 DUP3 DIV SWAP1 POP SWAP3 SWAP2 POP POP JUMP JUMPDEST PUSH1 0x0 PUSH2 0x34A DUP3 PUSH2 0x17F JUMP JUMPDEST SWAP2 POP PUSH2 0x355 DUP4 PUSH2 0x17F JUMP JUMPDEST SWAP3 POP DUP3 PUSH2 0x365 JUMPI PUSH2 0x364 PUSH2 0x2DF JUMP JUMPDEST JUMPDEST DUP3 DUP3 MOD SWAP1 POP SWAP3 SWAP2 POP POP JUMP JUMPDEST PUSH1 0x0 PUSH2 0x37B DUP3 PUSH2 0x17F JUMP JUMPDEST SWAP2 POP PUSH2 0x386 DUP4 PUSH2 0x17F JUMP JUMPDEST SWAP3 POP DUP3 DUP3 MUL PUSH2 0x394 DUP2 PUSH2 0x17F JUMP JUMPDEST SWAP2 POP DUP3 DUP3 DIV DUP5 EQ DUP4 ISZERO OR PUSH2 0x3AB JUMPI PUSH2 0x3AA PUSH2 0x248 JUMP JUMPDEST JUMPDEST POP SWAP3 SWAP2 POP POP JUMP INVALID LOG2 PUSH5 0x6970667358 0x22 SLT KECCAK256 0xB4 0xC5 0xFC 0xBF 0xCD 0xC7 0xA5 PUSH29 0x37088B00C14F8F5938DCB0814596EC129C7EB16F0553F83064736F6C63 NUMBER STOP ADDMOD SLT STOP CALLER "
				},
				"gasEstimates": {
					"creation": {
						"codeDepositCost": "200000",
						"executionCost": "245",
						"totalCost": "200245"
					},
					"external": {
						"Divide(uint256,uint256)": "infinite",
						"Minus(uint256,uint256)": "infinite",
						"Multiply(uint256,uint256)": "infinite",
						"Plus(uint256,uint256)": "infinite"
					}
				},
				"methodIdentifiers": {
					"Divide(uint256,uint256)": "b048546f",
					"Minus(uint256,uint256)": "752bece8",
					"Multiply(uint256,uint256)": "f8eac151",
					"Plus(uint256,uint256)": "6b259ffb"
				}
			},
			"storageLayout": {
				"storage": [],
				"types": null
			},
			"userdoc": {
				"kind": "user",
				"methods": {},
				"version": 1
			}
		}
	}
}