{
	"data": {
		"bytecode": {
			"linkReferences": {},
			"object": "608060405234801561001057600080fd5b50610398806100206000396000f3fe608060405234801561001057600080fd5b50600436106100415760003560e01c80630f1adef81461004657806310c66e171461006457806389f915f61461006e575b600080fd5b61004e61008c565b60405161005b91906101a7565b60405180910390f35b61006c6100d9565b005b610076610121565b604051610083919061026d565b60405180910390f35b60008060005b60068110156100d157600081600681106100af576100ae610288565b5b0154826100bc91906102e6565b915080806100c99061031a565b915050610092565b508091505090565b60005b600681101561011e576001816100f291906102e6565b6000826006811061010657610105610288565b5b018190555080806101169061031a565b9150506100dc565b50565b61012961016c565b6000600680602002604051908101604052809291908260068015610162576020028201915b81548152602001906001019080831161014e575b5050505050905090565b6040518060c00160405280600690602082028036833780820191505090505090565b6000819050919050565b6101a18161018e565b82525050565b60006020820190506101bc6000830184610198565b92915050565b600060069050919050565b600081905092915050565b6000819050919050565b6101eb8161018e565b82525050565b60006101fd83836101e2565b60208301905092915050565b6000602082019050919050565b61021f816101c2565b61022981846101cd565b9250610234826101d8565b8060005b8381101561026557815161024c87826101f1565b965061025783610209565b925050600181019050610238565b505050505050565b600060c0820190506102826000830184610216565b92915050565b7f4e487b7100000000000000000000000000000000000000000000000000000000600052603260045260246000fd5b7f4e487b7100000000000000000000000000000000000000000000000000000000600052601160045260246000fd5b60006102f18261018e565b91506102fc8361018e565b9250828201905080821115610314576103136102b7565b5b92915050565b60006103258261018e565b91507fffffffffffffffffffffffffffffffffffffffffffffffffffffffffffffffff8203610357576103566102b7565b5b60018201905091905056fea2646970667358221220d91c6789995cbb5962cb80df2ab0bf1e5a91e2b704e751709de4ba1560eaeea064736f6c63430008120033",
			"opcodes": "PUSH1 0x80 PUSH1 0x40 MSTORE CALLVALUE DUP1 ISZERO PUSH2 0x10 JUMPI PUSH1 0x0 DUP1 REVERT JUMPDEST POP PUSH2 0x398 DUP1 PUSH2 0x20 PUSH1 0x0 CODECOPY PUSH1 0x0 RETURN INVALID PUSH1 0x80 PUSH1 0x40 MSTORE CALLVALUE DUP1 ISZERO PUSH2 0x10 JUMPI PUSH1 0x0 DUP1 REVERT JUMPDEST POP PUSH1 0x4 CALLDATASIZE LT PUSH2 0x41 JUMPI PUSH1 0x0 CALLDATALOAD PUSH1 0xE0 SHR DUP1 PUSH4 0xF1ADEF8 EQ PUSH2 0x46 JUMPI DUP1 PUSH4 0x10C66E17 EQ PUSH2 0x64 JUMPI DUP1 PUSH4 0x89F915F6 EQ PUSH2 0x6E JUMPI JUMPDEST PUSH1 0x0 DUP1 REVERT JUMPDEST PUSH2 0x4E PUSH2 0x8C JUMP JUMPDEST PUSH1 0x40 MLOAD PUSH2 0x5B SWAP2 SWAP1 PUSH2 0x1A7 JUMP JUMPDEST PUSH1 0x40 MLOAD DUP1 SWAP2 SUB SWAP1 RETURN JUMPDEST PUSH2 0x6C PUSH2 0xD9 JUMP JUMPDEST STOP JUMPDEST PUSH2 0x76 PUSH2 0x121 JUMP JUMPDEST PUSH1 0x40 MLOAD PUSH2 0x83 SWAP2 SWAP1 PUSH2 0x26D JUMP JUMPDEST PUSH1 0x40 MLOAD DUP1 SWAP2 SUB SWAP1 RETURN JUMPDEST PUSH1 0x0 DUP1 PUSH1 0x0 JUMPDEST PUSH1 0x6 DUP2 LT ISZERO PUSH2 0xD1 JUMPI PUSH1 0x0 DUP2 PUSH1 0x6 DUP2 LT PUSH2 0xAF JUMPI PUSH2 0xAE PUSH2 0x288 JUMP JUMPDEST JUMPDEST ADD SLOAD DUP3 PUSH2 0xBC SWAP2 SWAP1 PUSH2 0x2E6 JUMP JUMPDEST SWAP2 POP DUP1 DUP1 PUSH2 0xC9 SWAP1 PUSH2 0x31A JUMP JUMPDEST SWAP2 POP POP PUSH2 0x92 JUMP JUMPDEST POP DUP1 SWAP2 POP POP SWAP1 JUMP JUMPDEST PUSH1 0x0 JUMPDEST PUSH1 0x6 DUP2 LT ISZERO PUSH2 0x11E JUMPI PUSH1 0x1 DUP2 PUSH2 0xF2 SWAP2 SWAP1 PUSH2 0x2E6 JUMP JUMPDEST PUSH1 0x0 DUP3 PUSH1 0x6 DUP2 LT PUSH2 0x106 JUMPI PUSH2 0x105 PUSH2 0x288 JUMP JUMPDEST JUMPDEST ADD DUP2 SWAP1 SSTORE POP DUP1 DUP1 PUSH2 0x116 SWAP1 PUSH2 0x31A JUMP JUMPDEST SWAP2 POP POP PUSH2 0xDC JUMP JUMPDEST POP JUMP JUMPDEST PUSH2 0x129 PUSH2 0x16C JUMP JUMPDEST PUSH1 0x0 PUSH1 0x6 DUP1 PUSH1 0x20 MUL PUSH1 0x40 MLOAD SWAP1 DUP2 ADD PUSH1 0x40 MSTORE DUP1 SWAP3 SWAP2 SWAP1 DUP3 PUSH1 0x6 DUP1 ISZERO PUSH2 0x162 JUMPI PUSH1 0x20 MUL DUP3 ADD SWAP2 JUMPDEST DUP2 SLOAD DUP2 MSTORE PUSH1 0x20 ADD SWAP1 PUSH1 0x1 ADD SWAP1 DUP1 DUP4 GT PUSH2 0x14E JUMPI JUMPDEST POP POP POP POP POP SWAP1 POP SWAP1 JUMP JUMPDEST PUSH1 0x40 MLOAD DUP1 PUSH1 0xC0 ADD PUSH1 0x40 MSTORE DUP1 PUSH1 0x6 SWAP1 PUSH1 0x20 DUP3 MUL DUP1 CALLDATASIZE DUP4 CALLDATACOPY DUP1 DUP3 ADD SWAP2 POP POP SWAP1 POP POP SWAP1 JUMP JUMPDEST PUSH1 0x0 DUP2 SWAP1 POP SWAP2 SWAP1 POP JUMP JUMPDEST PUSH2 0x1A1 DUP2 PUSH2 0x18E JUMP JUMPDEST DUP3 MSTORE POP POP JUMP JUMPDEST PUSH1 0x0 PUSH1 0x20 DUP3 ADD SWAP1 POP PUSH2 0x1BC PUSH1 0x0 DUP4 ADD DUP5 PUSH2 0x198 JUMP JUMPDEST SWAP3 SWAP2 POP POP JUMP JUMPDEST PUSH1 0x0 PUSH1 0x6 SWAP1 POP SWAP2 SWAP1 POP JUMP JUMPDEST PUSH1 0x0 DUP2 SWAP1 POP SWAP3 SWAP2 POP POP JUMP JUMPDEST PUSH1 0x0 DUP2 SWAP1 POP SWAP2 SWAP1 POP JUMP JUMPDEST PUSH2 0x1EB DUP2 PUSH2 0x18E JUMP JUMPDEST DUP3 MSTORE POP POP JUMP JUMPDEST PUSH1 0x0 PUSH2 0x1FD DUP4 DUP4 PUSH2 0x1E2 JUMP JUMPDEST PUSH1 0x20 DUP4 ADD SWAP1 POP SWAP3 SWAP2 POP POP JUMP JUMPDEST PUSH1 0x0 PUSH1 0x20 DUP3 ADD SWAP1 POP SWAP2 SWAP1 POP JUMP JUMPDEST PUSH2 0x21F DUP2 PUSH2 0x1C2 JUMP JUMPDEST PUSH2 0x229 DUP2 DUP5 PUSH2 0x1CD JUMP JUMPDEST SWAP3 POP PUSH2 0x234 DUP3 PUSH2 0x1D8 JUMP JUMPDEST DUP1 PUSH1 0x0 JUMPDEST DUP4 DUP2 LT ISZERO PUSH2 0x265 JUMPI DUP2 MLOAD PUSH2 0x24C DUP8 DUP3 PUSH2 0x1F1 JUMP JUMPDEST SWAP7 POP PUSH2 0x257 DUP4 PUSH2 0x209 JUMP JUMPDEST SWAP3 POP POP PUSH1 0x1 DUP2 ADD SWAP1 POP PUSH2 0x238 JUMP JUMPDEST POP POP POP POP POP POP JUMP JUMPDEST PUSH1 0x0 PUSH1 0xC0 DUP3 ADD SWAP1 POP PUSH2 0x282 PUSH1 0x0 DUP4 ADD DUP5 PUSH2 0x216 JUMP JUMPDEST SWAP3 SWAP2 POP POP JUMP JUMPDEST PUSH32 0x4E487B7100000000000000000000000000000000000000000000000000000000 PUSH1 0x0 MSTORE PUSH1 0x32 PUSH1 0x4 MSTORE PUSH1 0x24 PUSH1 0x0 REVERT JUMPDEST PUSH32 0x4E487B7100000000000000000000000000000000000000000000000000000000 PUSH1 0x0 MSTORE PUSH1 0x11 PUSH1 0x4 MSTORE PUSH1 0x24 PUSH1 0x0 REVERT JUMPDEST PUSH1 0x0 PUSH2 0x2F1 DUP3 PUSH2 0x18E JUMP JUMPDEST SWAP2 POP PUSH2 0x2FC DUP4 PUSH2 0x18E JUMP JUMPDEST SWAP3 POP DUP3 DUP3 ADD SWAP1 POP DUP1 DUP3 GT ISZERO PUSH2 0x314 JUMPI PUSH2 0x313 PUSH2 0x2B7 JUMP JUMPDEST JUMPDEST SWAP3 SWAP2 POP POP JUMP JUMPDEST PUSH1 0x0 PUSH2 0x325 DUP3 PUSH2 0x18E JUMP JUMPDEST SWAP2 POP PUSH32 0xFFFFFFFFFFFFFFFFFFFFFFFFFFFFFFFFFFFFFFFFFFFFFFFFFFFFFFFFFFFFFFFF DUP3 SUB PUSH2 0x357 JUMPI PUSH2 0x356 PUSH2 0x2B7 JUMP JUMPDEST JUMPDEST PUSH1 0x1 DUP3 ADD SWAP1 POP SWAP2 SWAP1 POP JUMP INVALID LOG2 PUSH5 0x6970667358 0x22 SLT KECCAK256 0xD9 SHR PUSH8 0x89995CBB5962CB80 0xDF 0x2A 0xB0 0xBF 0x1E GAS SWAP2 0xE2 0xB7 DIV 0xE7 MLOAD PUSH17 0x9DE4BA1560EAEEA064736F6C6343000812 STOP CALLER "
		},
		"gasEstimates": {
			"creation": {
				"codeDepositCost": "184000",
				"executionCost": "226",
				"totalCost": "184226"
			},
			"external": {
				"addAllNumbers()": "infinite",
				"getNumbers()": "infinite",
				"setNumbers()": "infinite"
			}
		},
		"methodIdentifiers": {
			"addAllNumbers()": "0f1adef8",
			"getNumbers()": "89f915f6",
			"setNumbers()": "10c66e17"
		}
	},
	"abi": [
		{
			"inputs": [],
			"name": "addAllNumbers",
			"outputs": [
				{
					"internalType": "uint256",
					"name": "",
					"type": "uint256"
				}
			],
			"stateMutability": "view",
			"type": "function"
		},
		{
			"inputs": [],
			"name": "getNumbers",
			"outputs": [
				{
					"internalType": "uint256[6]",
					"name": "",
					"type": "uint256[6]"
				}
			],
			"stateMutability": "view",
			"type": "function"
		},
		{
			"inputs": [],
			"name": "setNumbers",
			"outputs": [],
			"stateMutability": "nonpayable",
			"type": "function"
		}
	]
}