{
	"data": {
		"bytecode": {
			"linkReferences": {},
			"object": "608060405234801561001057600080fd5b50610741806100206000396000f3fe608060405234801561001057600080fd5b50600436106100575760003560e01c8063179405bf1461005c5780636d4ce63c14610066578063959ac48414610084578063c0e54343146100a0578063fe1c9f31146100aa575b600080fd5b6100646100b4565b005b61006e6101e7565b60405161007b919061057d565b60405180910390f35b61009e600480360381019061009991906105d0565b61023f565b005b6100a861026b565b005b6100b2610382565b005b60005b60016000805490506100c9919061062c565b8110156101e45760006001826100df9190610660565b90505b6000805490508110156101d0576000818154811061010357610102610694565b5b90600052602060002001546000838154811061012257610121610694565b5b906000526020600020015411156101bd576000818154811061014757610146610694565b5b90600052602060002001546000838154811061016657610165610694565b5b90600052602060002001546000848154811061018557610184610694565b5b9060005260206000200160008085815481106101a4576101a3610694565b5b9060005260206000200160008491905055839190505550505b80806101c8906106c3565b9150506100e2565b5080806101dc906106c3565b9150506100b7565b50565b6060600080548060200260200160405190810160405280929190818152602001828054801561023557602002820191906000526020600020905b815481526020019060010190808311610221575b5050505050905090565b600081908060018154018082558091505060019003906000526020600020016000909190919091505550565b6000600190505b60008054905081101561037f5760005b8181101561036b576000828154811061029e5761029d610694565b5b9060005260206000200154600082815481106102bd576102bc610694565b5b9060005260206000200154101561035857600082815481106102e2576102e1610694565b5b90600052602060002001546000828154811061030157610300610694565b5b9060005260206000200154600083815481106103205761031f610694565b5b90600052602060002001600080868154811061033f5761033e610694565b5b9060005260206000200160008491905055839190505550505b8080610363906106c3565b915050610282565b508080610377906106c3565b915050610272565b50565b60005b6001600080549050610397919061062c565b8110156104b25760006001826103ad9190610660565b90505b60008054905081101561049e57600081815481106103d1576103d0610694565b5b9060005260206000200154600083815481106103f0576103ef610694565b5b9060005260206000200154101561048b576000818154811061041557610414610694565b5b90600052602060002001546000838154811061043457610433610694565b5b90600052602060002001546000848154811061045357610452610694565b5b90600052602060002001600080858154811061047257610471610694565b5b9060005260206000200160008491905055839190505550505b8080610496906106c3565b9150506103b0565b5080806104aa906106c3565b915050610385565b50565b600081519050919050565b600082825260208201905092915050565b6000819050602082019050919050565b6000819050919050565b6104f4816104e1565b82525050565b600061050683836104eb565b60208301905092915050565b6000602082019050919050565b600061052a826104b5565b61053481856104c0565b935061053f836104d1565b8060005b8381101561057057815161055788826104fa565b975061056283610512565b925050600181019050610543565b5085935050505092915050565b60006020820190508181036000830152610597818461051f565b905092915050565b600080fd5b6105ad816104e1565b81146105b857600080fd5b50565b6000813590506105ca816105a4565b92915050565b6000602082840312156105e6576105e561059f565b5b60006105f4848285016105bb565b91505092915050565b7f4e487b7100000000000000000000000000000000000000000000000000000000600052601160045260246000fd5b6000610637826104e1565b9150610642836104e1565b925082820390508181111561065a576106596105fd565b5b92915050565b600061066b826104e1565b9150610676836104e1565b925082820190508082111561068e5761068d6105fd565b5b92915050565b7f4e487b7100000000000000000000000000000000000000000000000000000000600052603260045260246000fd5b60006106ce826104e1565b91507fffffffffffffffffffffffffffffffffffffffffffffffffffffffffffffffff8203610700576106ff6105fd565b5b60018201905091905056fea2646970667358221220a3d219ab8e1b5e1791a91930012b48b1bb67aed184744fc7d7a6dc592ae09b7664736f6c63430008120033",
			"opcodes": "PUSH1 0x80 PUSH1 0x40 MSTORE CALLVALUE DUP1 ISZERO PUSH2 0x10 JUMPI PUSH1 0x0 DUP1 REVERT JUMPDEST POP PUSH2 0x741 DUP1 PUSH2 0x20 PUSH1 0x0 CODECOPY PUSH1 0x0 RETURN INVALID PUSH1 0x80 PUSH1 0x40 MSTORE CALLVALUE DUP1 ISZERO PUSH2 0x10 JUMPI PUSH1 0x0 DUP1 REVERT JUMPDEST POP PUSH1 0x4 CALLDATASIZE LT PUSH2 0x57 JUMPI PUSH1 0x0 CALLDATALOAD PUSH1 0xE0 SHR DUP1 PUSH4 0x179405BF EQ PUSH2 0x5C JUMPI DUP1 PUSH4 0x6D4CE63C EQ PUSH2 0x66 JUMPI DUP1 PUSH4 0x959AC484 EQ PUSH2 0x84 JUMPI DUP1 PUSH4 0xC0E54343 EQ PUSH2 0xA0 JUMPI DUP1 PUSH4 0xFE1C9F31 EQ PUSH2 0xAA JUMPI JUMPDEST PUSH1 0x0 DUP1 REVERT JUMPDEST PUSH2 0x64 PUSH2 0xB4 JUMP JUMPDEST STOP JUMPDEST PUSH2 0x6E PUSH2 0x1E7 JUMP JUMPDEST PUSH1 0x40 MLOAD PUSH2 0x7B SWAP2 SWAP1 PUSH2 0x57D JUMP JUMPDEST PUSH1 0x40 MLOAD DUP1 SWAP2 SUB SWAP1 RETURN JUMPDEST PUSH2 0x9E PUSH1 0x4 DUP1 CALLDATASIZE SUB DUP2 ADD SWAP1 PUSH2 0x99 SWAP2 SWAP1 PUSH2 0x5D0 JUMP JUMPDEST PUSH2 0x23F JUMP JUMPDEST STOP JUMPDEST PUSH2 0xA8 PUSH2 0x26B JUMP JUMPDEST STOP JUMPDEST PUSH2 0xB2 PUSH2 0x382 JUMP JUMPDEST STOP JUMPDEST PUSH1 0x0 JUMPDEST PUSH1 0x1 PUSH1 0x0 DUP1 SLOAD SWAP1 POP PUSH2 0xC9 SWAP2 SWAP1 PUSH2 0x62C JUMP JUMPDEST DUP2 LT ISZERO PUSH2 0x1E4 JUMPI PUSH1 0x0 PUSH1 0x1 DUP3 PUSH2 0xDF SWAP2 SWAP1 PUSH2 0x660 JUMP JUMPDEST SWAP1 POP JUMPDEST PUSH1 0x0 DUP1 SLOAD SWAP1 POP DUP2 LT ISZERO PUSH2 0x1D0 JUMPI PUSH1 0x0 DUP2 DUP2 SLOAD DUP2 LT PUSH2 0x103 JUMPI PUSH2 0x102 PUSH2 0x694 JUMP JUMPDEST JUMPDEST SWAP1 PUSH1 0x0 MSTORE PUSH1 0x20 PUSH1 0x0 KECCAK256 ADD SLOAD PUSH1 0x0 DUP4 DUP2 SLOAD DUP2 LT PUSH2 0x122 JUMPI PUSH2 0x121 PUSH2 0x694 JUMP JUMPDEST JUMPDEST SWAP1 PUSH1 0x0 MSTORE PUSH1 0x20 PUSH1 0x0 KECCAK256 ADD SLOAD GT ISZERO PUSH2 0x1BD JUMPI PUSH1 0x0 DUP2 DUP2 SLOAD DUP2 LT PUSH2 0x147 JUMPI PUSH2 0x146 PUSH2 0x694 JUMP JUMPDEST JUMPDEST SWAP1 PUSH1 0x0 MSTORE PUSH1 0x20 PUSH1 0x0 KECCAK256 ADD SLOAD PUSH1 0x0 DUP4 DUP2 SLOAD DUP2 LT PUSH2 0x166 JUMPI PUSH2 0x165 PUSH2 0x694 JUMP JUMPDEST JUMPDEST SWAP1 PUSH1 0x0 MSTORE PUSH1 0x20 PUSH1 0x0 KECCAK256 ADD SLOAD PUSH1 0x0 DUP5 DUP2 SLOAD DUP2 LT PUSH2 0x185 JUMPI PUSH2 0x184 PUSH2 0x694 JUMP JUMPDEST JUMPDEST SWAP1 PUSH1 0x0 MSTORE PUSH1 0x20 PUSH1 0x0 KECCAK256 ADD PUSH1 0x0 DUP1 DUP6 DUP2 SLOAD DUP2 LT PUSH2 0x1A4 JUMPI PUSH2 0x1A3 PUSH2 0x694 JUMP JUMPDEST JUMPDEST SWAP1 PUSH1 0x0 MSTORE PUSH1 0x20 PUSH1 0x0 KECCAK256 ADD PUSH1 0x0 DUP5 SWAP2 SWAP1 POP SSTORE DUP4 SWAP2 SWAP1 POP SSTORE POP POP JUMPDEST DUP1 DUP1 PUSH2 0x1C8 SWAP1 PUSH2 0x6C3 JUMP JUMPDEST SWAP2 POP POP PUSH2 0xE2 JUMP JUMPDEST POP DUP1 DUP1 PUSH2 0x1DC SWAP1 PUSH2 0x6C3 JUMP JUMPDEST SWAP2 POP POP PUSH2 0xB7 JUMP JUMPDEST POP JUMP JUMPDEST PUSH1 0x60 PUSH1 0x0 DUP1 SLOAD DUP1 PUSH1 0x20 MUL PUSH1 0x20 ADD PUSH1 0x40 MLOAD SWAP1 DUP2 ADD PUSH1 0x40 MSTORE DUP1 SWAP3 SWAP2 SWAP1 DUP2 DUP2 MSTORE PUSH1 0x20 ADD DUP3 DUP1 SLOAD DUP1 ISZERO PUSH2 0x235 JUMPI PUSH1 0x20 MUL DUP3 ADD SWAP2 SWAP1 PUSH1 0x0 MSTORE PUSH1 0x20 PUSH1 0x0 KECCAK256 SWAP1 JUMPDEST DUP2 SLOAD DUP2 MSTORE PUSH1 0x20 ADD SWAP1 PUSH1 0x1 ADD SWAP1 DUP1 DUP4 GT PUSH2 0x221 JUMPI JUMPDEST POP POP POP POP POP SWAP1 POP SWAP1 JUMP JUMPDEST PUSH1 0x0 DUP2 SWAP1 DUP1 PUSH1 0x1 DUP2 SLOAD ADD DUP1 DUP3 SSTORE DUP1 SWAP2 POP POP PUSH1 0x1 SWAP1 SUB SWAP1 PUSH1 0x0 MSTORE PUSH1 0x20 PUSH1 0x0 KECCAK256 ADD PUSH1 0x0 SWAP1 SWAP2 SWAP1 SWAP2 SWAP1 SWAP2 POP SSTORE POP JUMP JUMPDEST PUSH1 0x0 PUSH1 0x1 SWAP1 POP JUMPDEST PUSH1 0x0 DUP1 SLOAD SWAP1 POP DUP2 LT ISZERO PUSH2 0x37F JUMPI PUSH1 0x0 JUMPDEST DUP2 DUP2 LT ISZERO PUSH2 0x36B JUMPI PUSH1 0x0 DUP3 DUP2 SLOAD DUP2 LT PUSH2 0x29E JUMPI PUSH2 0x29D PUSH2 0x694 JUMP JUMPDEST JUMPDEST SWAP1 PUSH1 0x0 MSTORE PUSH1 0x20 PUSH1 0x0 KECCAK256 ADD SLOAD PUSH1 0x0 DUP3 DUP2 SLOAD DUP2 LT PUSH2 0x2BD JUMPI PUSH2 0x2BC PUSH2 0x694 JUMP JUMPDEST JUMPDEST SWAP1 PUSH1 0x0 MSTORE PUSH1 0x20 PUSH1 0x0 KECCAK256 ADD SLOAD LT ISZERO PUSH2 0x358 JUMPI PUSH1 0x0 DUP3 DUP2 SLOAD DUP2 LT PUSH2 0x2E2 JUMPI PUSH2 0x2E1 PUSH2 0x694 JUMP JUMPDEST JUMPDEST SWAP1 PUSH1 0x0 MSTORE PUSH1 0x20 PUSH1 0x0 KECCAK256 ADD SLOAD PUSH1 0x0 DUP3 DUP2 SLOAD DUP2 LT PUSH2 0x301 JUMPI PUSH2 0x300 PUSH2 0x694 JUMP JUMPDEST JUMPDEST SWAP1 PUSH1 0x0 MSTORE PUSH1 0x20 PUSH1 0x0 KECCAK256 ADD SLOAD PUSH1 0x0 DUP4 DUP2 SLOAD DUP2 LT PUSH2 0x320 JUMPI PUSH2 0x31F PUSH2 0x694 JUMP JUMPDEST JUMPDEST SWAP1 PUSH1 0x0 MSTORE PUSH1 0x20 PUSH1 0x0 KECCAK256 ADD PUSH1 0x0 DUP1 DUP7 DUP2 SLOAD DUP2 LT PUSH2 0x33F JUMPI PUSH2 0x33E PUSH2 0x694 JUMP JUMPDEST JUMPDEST SWAP1 PUSH1 0x0 MSTORE PUSH1 0x20 PUSH1 0x0 KECCAK256 ADD PUSH1 0x0 DUP5 SWAP2 SWAP1 POP SSTORE DUP4 SWAP2 SWAP1 POP SSTORE POP POP JUMPDEST DUP1 DUP1 PUSH2 0x363 SWAP1 PUSH2 0x6C3 JUMP JUMPDEST SWAP2 POP POP PUSH2 0x282 JUMP JUMPDEST POP DUP1 DUP1 PUSH2 0x377 SWAP1 PUSH2 0x6C3 JUMP JUMPDEST SWAP2 POP POP PUSH2 0x272 JUMP JUMPDEST POP JUMP JUMPDEST PUSH1 0x0 JUMPDEST PUSH1 0x1 PUSH1 0x0 DUP1 SLOAD SWAP1 POP PUSH2 0x397 SWAP2 SWAP1 PUSH2 0x62C JUMP JUMPDEST DUP2 LT ISZERO PUSH2 0x4B2 JUMPI PUSH1 0x0 PUSH1 0x1 DUP3 PUSH2 0x3AD SWAP2 SWAP1 PUSH2 0x660 JUMP JUMPDEST SWAP1 POP JUMPDEST PUSH1 0x0 DUP1 SLOAD SWAP1 POP DUP2 LT ISZERO PUSH2 0x49E JUMPI PUSH1 0x0 DUP2 DUP2 SLOAD DUP2 LT PUSH2 0x3D1 JUMPI PUSH2 0x3D0 PUSH2 0x694 JUMP JUMPDEST JUMPDEST SWAP1 PUSH1 0x0 MSTORE PUSH1 0x20 PUSH1 0x0 KECCAK256 ADD SLOAD PUSH1 0x0 DUP4 DUP2 SLOAD DUP2 LT PUSH2 0x3F0 JUMPI PUSH2 0x3EF PUSH2 0x694 JUMP JUMPDEST JUMPDEST SWAP1 PUSH1 0x0 MSTORE PUSH1 0x20 PUSH1 0x0 KECCAK256 ADD SLOAD LT ISZERO PUSH2 0x48B JUMPI PUSH1 0x0 DUP2 DUP2 SLOAD DUP2 LT PUSH2 0x415 JUMPI PUSH2 0x414 PUSH2 0x694 JUMP JUMPDEST JUMPDEST SWAP1 PUSH1 0x0 MSTORE PUSH1 0x20 PUSH1 0x0 KECCAK256 ADD SLOAD PUSH1 0x0 DUP4 DUP2 SLOAD DUP2 LT PUSH2 0x434 JUMPI PUSH2 0x433 PUSH2 0x694 JUMP JUMPDEST JUMPDEST SWAP1 PUSH1 0x0 MSTORE PUSH1 0x20 PUSH1 0x0 KECCAK256 ADD SLOAD PUSH1 0x0 DUP5 DUP2 SLOAD DUP2 LT PUSH2 0x453 JUMPI PUSH2 0x452 PUSH2 0x694 JUMP JUMPDEST JUMPDEST SWAP1 PUSH1 0x0 MSTORE PUSH1 0x20 PUSH1 0x0 KECCAK256 ADD PUSH1 0x0 DUP1 DUP6 DUP2 SLOAD DUP2 LT PUSH2 0x472 JUMPI PUSH2 0x471 PUSH2 0x694 JUMP JUMPDEST JUMPDEST SWAP1 PUSH1 0x0 MSTORE PUSH1 0x20 PUSH1 0x0 KECCAK256 ADD PUSH1 0x0 DUP5 SWAP2 SWAP1 POP SSTORE DUP4 SWAP2 SWAP1 POP SSTORE POP POP JUMPDEST DUP1 DUP1 PUSH2 0x496 SWAP1 PUSH2 0x6C3 JUMP JUMPDEST SWAP2 POP POP PUSH2 0x3B0 JUMP JUMPDEST POP DUP1 DUP1 PUSH2 0x4AA SWAP1 PUSH2 0x6C3 JUMP JUMPDEST SWAP2 POP POP PUSH2 0x385 JUMP JUMPDEST POP JUMP JUMPDEST PUSH1 0x0 DUP2 MLOAD SWAP1 POP SWAP2 SWAP1 POP JUMP JUMPDEST PUSH1 0x0 DUP3 DUP3 MSTORE PUSH1 0x20 DUP3 ADD SWAP1 POP SWAP3 SWAP2 POP POP JUMP JUMPDEST PUSH1 0x0 DUP2 SWAP1 POP PUSH1 0x20 DUP3 ADD SWAP1 POP SWAP2 SWAP1 POP JUMP JUMPDEST PUSH1 0x0 DUP2 SWAP1 POP SWAP2 SWAP1 POP JUMP JUMPDEST PUSH2 0x4F4 DUP2 PUSH2 0x4E1 JUMP JUMPDEST DUP3 MSTORE POP POP JUMP JUMPDEST PUSH1 0x0 PUSH2 0x506 DUP4 DUP4 PUSH2 0x4EB JUMP JUMPDEST PUSH1 0x20 DUP4 ADD SWAP1 POP SWAP3 SWAP2 POP POP JUMP JUMPDEST PUSH1 0x0 PUSH1 0x20 DUP3 ADD SWAP1 POP SWAP2 SWAP1 POP JUMP JUMPDEST PUSH1 0x0 PUSH2 0x52A DUP3 PUSH2 0x4B5 JUMP JUMPDEST PUSH2 0x534 DUP2 DUP6 PUSH2 0x4C0 JUMP JUMPDEST SWAP4 POP PUSH2 0x53F DUP4 PUSH2 0x4D1 JUMP JUMPDEST DUP1 PUSH1 0x0 JUMPDEST DUP4 DUP2 LT ISZERO PUSH2 0x570 JUMPI DUP2 MLOAD PUSH2 0x557 DUP9 DUP3 PUSH2 0x4FA JUMP JUMPDEST SWAP8 POP PUSH2 0x562 DUP4 PUSH2 0x512 JUMP JUMPDEST SWAP3 POP POP PUSH1 0x1 DUP2 ADD SWAP1 POP PUSH2 0x543 JUMP JUMPDEST POP DUP6 SWAP4 POP POP POP POP SWAP3 SWAP2 POP POP JUMP JUMPDEST PUSH1 0x0 PUSH1 0x20 DUP3 ADD SWAP1 POP DUP2 DUP2 SUB PUSH1 0x0 DUP4 ADD MSTORE PUSH2 0x597 DUP2 DUP5 PUSH2 0x51F JUMP JUMPDEST SWAP1 POP SWAP3 SWAP2 POP POP JUMP JUMPDEST PUSH1 0x0 DUP1 REVERT JUMPDEST PUSH2 0x5AD DUP2 PUSH2 0x4E1 JUMP JUMPDEST DUP2 EQ PUSH2 0x5B8 JUMPI PUSH1 0x0 DUP1 REVERT JUMPDEST POP JUMP JUMPDEST PUSH1 0x0 DUP2 CALLDATALOAD SWAP1 POP PUSH2 0x5CA DUP2 PUSH2 0x5A4 JUMP JUMPDEST SWAP3 SWAP2 POP POP JUMP JUMPDEST PUSH1 0x0 PUSH1 0x20 DUP3 DUP5 SUB SLT ISZERO PUSH2 0x5E6 JUMPI PUSH2 0x5E5 PUSH2 0x59F JUMP JUMPDEST JUMPDEST PUSH1 0x0 PUSH2 0x5F4 DUP5 DUP3 DUP6 ADD PUSH2 0x5BB JUMP JUMPDEST SWAP2 POP POP SWAP3 SWAP2 POP POP JUMP JUMPDEST PUSH32 0x4E487B7100000000000000000000000000000000000000000000000000000000 PUSH1 0x0 MSTORE PUSH1 0x11 PUSH1 0x4 MSTORE PUSH1 0x24 PUSH1 0x0 REVERT JUMPDEST PUSH1 0x0 PUSH2 0x637 DUP3 PUSH2 0x4E1 JUMP JUMPDEST SWAP2 POP PUSH2 0x642 DUP4 PUSH2 0x4E1 JUMP JUMPDEST SWAP3 POP DUP3 DUP3 SUB SWAP1 POP DUP2 DUP2 GT ISZERO PUSH2 0x65A JUMPI PUSH2 0x659 PUSH2 0x5FD JUMP JUMPDEST JUMPDEST SWAP3 SWAP2 POP POP JUMP JUMPDEST PUSH1 0x0 PUSH2 0x66B DUP3 PUSH2 0x4E1 JUMP JUMPDEST SWAP2 POP PUSH2 0x676 DUP4 PUSH2 0x4E1 JUMP JUMPDEST SWAP3 POP DUP3 DUP3 ADD SWAP1 POP DUP1 DUP3 GT ISZERO PUSH2 0x68E JUMPI PUSH2 0x68D PUSH2 0x5FD JUMP JUMPDEST JUMPDEST SWAP3 SWAP2 POP POP JUMP JUMPDEST PUSH32 0x4E487B7100000000000000000000000000000000000000000000000000000000 PUSH1 0x0 MSTORE PUSH1 0x32 PUSH1 0x4 MSTORE PUSH1 0x24 PUSH1 0x0 REVERT JUMPDEST PUSH1 0x0 PUSH2 0x6CE DUP3 PUSH2 0x4E1 JUMP JUMPDEST SWAP2 POP PUSH32 0xFFFFFFFFFFFFFFFFFFFFFFFFFFFFFFFFFFFFFFFFFFFFFFFFFFFFFFFFFFFFFFFF DUP3 SUB PUSH2 0x700 JUMPI PUSH2 0x6FF PUSH2 0x5FD JUMP JUMPDEST JUMPDEST PUSH1 0x1 DUP3 ADD SWAP1 POP SWAP2 SWAP1 POP JUMP INVALID LOG2 PUSH5 0x6970667358 0x22 SLT KECCAK256 LOG3 0xD2 NOT 0xAB DUP15 SHL 0x5E OR SWAP2 0xA9 NOT ADDRESS ADD 0x2B BASEFEE 0xB1 0xBB PUSH8 0xAED184744FC7D7A6 0xDC MSIZE 0x2A 0xE0 SWAP12 PUSH23 0x64736F6C63430008120033000000000000000000000000 "
		},
		"gasEstimates": {
			"creation": {
				"codeDepositCost": "371400",
				"executionCost": "411",
				"totalCost": "371811"
			},
			"external": {
				"get()": "infinite",
				"push(uint256)": "46851",
				"sortingDown()": "infinite",
				"sortingUp()": "infinite",
				"sortingUp2()": "infinite"
			}
		},
		"methodIdentifiers": {
			"get()": "6d4ce63c",
			"push(uint256)": "959ac484",
			"sortingDown()": "179405bf",
			"sortingUp()": "fe1c9f31",
			"sortingUp2()": "c0e54343"
		}
	},
	"abi": [
		{
			"inputs": [],
			"name": "get",
			"outputs": [
				{
					"internalType": "uint256[]",
					"name": "",
					"type": "uint256[]"
				}
			],
			"stateMutability": "view",
			"type": "function"
		},
		{
			"inputs": [
				{
					"internalType": "uint256",
					"name": "_n",
					"type": "uint256"
				}
			],
			"name": "push",
			"outputs": [],
			"stateMutability": "nonpayable",
			"type": "function"
		},
		{
			"inputs": [],
			"name": "sortingDown",
			"outputs": [],
			"stateMutability": "nonpayable",
			"type": "function"
		},
		{
			"inputs": [],
			"name": "sortingUp",
			"outputs": [],
			"stateMutability": "nonpayable",
			"type": "function"
		},
		{
			"inputs": [],
			"name": "sortingUp2",
			"outputs": [],
			"stateMutability": "nonpayable",
			"type": "function"
		}
	]
}